{"abi":[{"type":"constructor","inputs":[{"name":"name_","type":"string","internalType":"string"},{"name":"symbol_","type":"string","internalType":"string"}],"stateMutability":"nonpayable"},{"type":"function","name":"approve","inputs":[{"name":"spender","type":"address","internalType":"address"},{"name":"id","type":"uint256","internalType":"uint256"}],"outputs":[],"stateMutability":"nonpayable"},{"type":"function","name":"balanceOf","inputs":[{"name":"owner","type":"address","internalType":"address"}],"outputs":[{"name":"","type":"uint256","internalType":"uint256"}],"stateMutability":"view"},{"type":"function","name":"baseURI","inputs":[],"outputs":[{"name":"","type":"string","internalType":"string"}],"stateMutability":"view"},{"type":"function","name":"getApproved","inputs":[{"name":"","type":"uint256","internalType":"uint256"}],"outputs":[{"name":"","type":"address","internalType":"address"}],"stateMutability":"view"},{"type":"function","name":"isApprovedForAll","inputs":[{"name":"","type":"address","internalType":"address"},{"name":"","type":"address","internalType":"address"}],"outputs":[{"name":"","type":"bool","internalType":"bool"}],"stateMutability":"view"},{"type":"function","name":"mint","inputs":[{"name":"to","type":"address","internalType":"address"},{"name":"id","type":"uint256","internalType":"uint256"}],"outputs":[],"stateMutability":"nonpayable"},{"type":"function","name":"name","inputs":[],"outputs":[{"name":"","type":"string","internalType":"string"}],"stateMutability":"view"},{"type":"function","name":"ownerOf","inputs":[{"name":"id","type":"uint256","internalType":"uint256"}],"outputs":[{"name":"owner","type":"address","internalType":"address"}],"stateMutability":"view"},{"type":"function","name":"royaltyInfo","inputs":[{"name":"tokenId","type":"uint256","internalType":"uint256"},{"name":"salePrice","type":"uint256","internalType":"uint256"}],"outputs":[{"name":"","type":"address","internalType":"address"},{"name":"","type":"uint256","internalType":"uint256"}],"stateMutability":"pure"},{"type":"function","name":"safeTransferFrom","inputs":[{"name":"from","type":"address","internalType":"address"},{"name":"to","type":"address","internalType":"address"},{"name":"id","type":"uint256","internalType":"uint256"}],"outputs":[],"stateMutability":"nonpayable"},{"type":"function","name":"safeTransferFrom","inputs":[{"name":"from","type":"address","internalType":"address"},{"name":"to","type":"address","internalType":"address"},{"name":"id","type":"uint256","internalType":"uint256"},{"name":"data","type":"bytes","internalType":"bytes"}],"outputs":[],"stateMutability":"nonpayable"},{"type":"function","name":"setApprovalForAll","inputs":[{"name":"operator","type":"address","internalType":"address"},{"name":"approved","type":"bool","internalType":"bool"}],"outputs":[],"stateMutability":"nonpayable"},{"type":"function","name":"supportsInterface","inputs":[{"name":"interfaceId","type":"bytes4","internalType":"bytes4"}],"outputs":[{"name":"","type":"bool","internalType":"bool"}],"stateMutability":"view"},{"type":"function","name":"symbol","inputs":[],"outputs":[{"name":"","type":"string","internalType":"string"}],"stateMutability":"view"},{"type":"function","name":"tokenURI","inputs":[{"name":"","type":"uint256","internalType":"uint256"}],"outputs":[{"name":"","type":"string","internalType":"string"}],"stateMutability":"view"},{"type":"function","name":"transferFrom","inputs":[{"name":"from","type":"address","internalType":"address"},{"name":"to","type":"address","internalType":"address"},{"name":"id","type":"uint256","internalType":"uint256"}],"outputs":[],"stateMutability":"nonpayable"},{"type":"event","name":"Approval","inputs":[{"name":"owner","type":"address","indexed":true,"internalType":"address"},{"name":"spender","type":"address","indexed":true,"internalType":"address"},{"name":"id","type":"uint256","indexed":true,"internalType":"uint256"}],"anonymous":false},{"type":"event","name":"ApprovalForAll","inputs":[{"name":"owner","type":"address","indexed":true,"internalType":"address"},{"name":"operator","type":"address","indexed":true,"internalType":"address"},{"name":"approved","type":"bool","indexed":false,"internalType":"bool"}],"anonymous":false},{"type":"event","name":"Transfer","inputs":[{"name":"from","type":"address","indexed":true,"internalType":"address"},{"name":"to","type":"address","indexed":true,"internalType":"address"},{"name":"id","type":"uint256","indexed":true,"internalType":"uint256"}],"anonymous":false}],"bytecode":{"object":"0x60c0604052600c60809081526b796565742d726f79616c747960a01b60a0526008906200002d90826200012d565b503480156200003b57600080fd5b506040516200116a3803806200116a8339810160408190526200005e91620002a8565b818160006200006e83826200012d565b5060016200007d82826200012d565b505050505062000312565b634e487b7160e01b600052604160045260246000fd5b600181811c90821680620000b357607f821691505b602082108103620000d457634e487b7160e01b600052602260045260246000fd5b50919050565b601f8211156200012857600081815260208120601f850160051c81016020861015620001035750805b601f850160051c820191505b8181101562000124578281556001016200010f565b5050505b505050565b81516001600160401b0381111562000149576200014962000088565b62000161816200015a84546200009e565b84620000da565b602080601f831160018114620001995760008415620001805750858301515b600019600386901b1c1916600185901b17855562000124565b600085815260208120601f198616915b82811015620001ca57888601518255948401946001909101908401620001a9565b5085821015620001e95787850151600019600388901b60f8161c191681555b5050505050600190811b01905550565b600082601f8301126200020b57600080fd5b81516001600160401b038082111562000228576200022862000088565b604051601f8301601f19908116603f0116810190828211818310171562000253576200025362000088565b816040528381526020925086838588010111156200027057600080fd5b600091505b8382101562000294578582018301518183018401529082019062000275565b600093810190920192909252949350505050565b60008060408385031215620002bc57600080fd5b82516001600160401b0380821115620002d457600080fd5b620002e286838701620001f9565b93506020850151915080821115620002f957600080fd5b506200030885828601620001f9565b9150509250929050565b610e4880620003226000396000f3fe608060405234801561001057600080fd5b50600436106100e05760003560e01c80636352211e116100875780636352211e146101e35780636c0360eb146101f657806370a08231146101fe57806395d89b411461021f578063a22cb46514610227578063b88d4fde1461023a578063c87b56dd1461024d578063e985e9c51461026057600080fd5b806301ffc9a7146100e557806306fdde031461010d578063081812fc14610122578063095ea7b31461016357806323b872dd146101785780632a55205a1461018b57806340c10f19146101bd57806342842e0e146101d0575b600080fd5b6100f86100f3366004610a54565b61028e565b60405190151581526020015b60405180910390f35b61011561029f565b6040516101049190610a78565b61014b610130366004610ac6565b6004602052600090815260409020546001600160a01b031681565b6040516001600160a01b039091168152602001610104565b610176610171366004610af6565b61032d565b005b610176610186366004610b20565b6103f7565b61019e610199366004610b5c565b610579565b604080516001600160a01b039093168352602083019190915201610104565b6101766101cb366004610af6565b6105a3565b6101766101de366004610b20565b6105b1565b61014b6101f1366004610ac6565b610686565b6101156106dd565b61021161020c366004610b7e565b6106ea565b604051908152602001610104565b61011561074d565b610176610235366004610b99565b61075a565b610176610248366004610bd5565b6107c6565b61011561025b366004610ac6565b61088b565b6100f861026e366004610c70565b600560209081526000928352604080842090915290825290205460ff1681565b60006102998261091f565b92915050565b600080546102ac90610ca3565b80601f01602080910402602001604051908101604052809291908181526020018280546102d890610ca3565b80156103255780601f106102fa57610100808354040283529160200191610325565b820191906000526020600020905b81548152906001019060200180831161030857829003601f168201915b505050505081565b6000818152600260205260409020546001600160a01b03163381148061037657506001600160a01b038116600090815260056020908152604080832033845290915290205460ff165b61039b5760405162461bcd60e51b815260040161039290610cdd565b60405180910390fd5b60008281526004602052604080822080546001600160a01b0319166001600160a01b0387811691821790925591518593918516917f8c5be1e5ebec7d5bd14f71427d1e84f3dd0314c0f7b2291e5b200ac8c7c3b92591a4505050565b6000818152600260205260409020546001600160a01b0384811691161461044d5760405162461bcd60e51b815260206004820152600a60248201526957524f4e475f46524f4d60b01b6044820152606401610392565b6001600160a01b0382166104735760405162461bcd60e51b815260040161039290610d05565b336001600160a01b03841614806104ad57506001600160a01b038316600090815260056020908152604080832033845290915290205460ff165b806104ce57506000818152600460205260409020546001600160a01b031633145b6104ea5760405162461bcd60e51b815260040161039290610cdd565b6001600160a01b0380841660008181526003602090815260408083208054600019019055938616808352848320805460010190558583526002825284832080546001600160a01b03199081168317909155600490925284832080549092169091559251849392917fddf252ad1be2c89b69c2b068fc378daa952ba7f163c4a11628f55a4df523b3ef91a4505050565b60008063beefbeef606461058e85600a610d30565b6105989190610d55565b915091509250929050565b6105ad8282610954565b5050565b6105bc8383836103f7565b6001600160a01b0382163b15806106655750604051630a85bd0160e11b8082523360048301526001600160a01b03858116602484015260448301849052608060648401526000608484015290919084169063150b7a029060a4016020604051808303816000875af1158015610635573d6000803e3d6000fd5b505050506040513d601f19601f820116820180604052508101906106599190610d77565b6001600160e01b031916145b6106815760405162461bcd60e51b815260040161039290610d94565b505050565b6000818152600260205260409020546001600160a01b0316806106d85760405162461bcd60e51b815260206004820152600a6024820152691393d517d3525395115160b21b6044820152606401610392565b919050565b600880546102ac90610ca3565b60006001600160a01b0382166107315760405162461bcd60e51b815260206004820152600c60248201526b5a45524f5f4144445245535360a01b6044820152606401610392565b506001600160a01b031660009081526003602052604090205490565b600180546102ac90610ca3565b3360008181526005602090815260408083206001600160a01b03871680855290835292819020805460ff191686151590811790915590519081529192917f17307eab39ab6107e8899845ad3d59bd9653f200f220920489ca2b5937696c31910160405180910390a35050565b6107d18585856103f7565b6001600160a01b0384163b15806108685750604051630a85bd0160e11b808252906001600160a01b0386169063150b7a02906108199033908a90899089908990600401610dbe565b6020604051808303816000875af1158015610838573d6000803e3d6000fd5b505050506040513d601f19601f8201168201806040525081019061085c9190610d77565b6001600160e01b031916145b6108845760405162461bcd60e51b815260040161039290610d94565b5050505050565b60606008805461089a90610ca3565b80601f01602080910402602001604051908101604052809291908181526020018280546108c690610ca3565b80156109135780601f106108e857610100808354040283529160200191610913565b820191906000526020600020905b8154815290600101906020018083116108f657829003601f168201915b50505050509050919050565b60006001600160e01b0319821663152a902d60e11b148061029957506301ffc9a760e01b6001600160e01b0319831614610299565b6001600160a01b03821661097a5760405162461bcd60e51b815260040161039290610d05565b6000818152600260205260409020546001600160a01b0316156109d05760405162461bcd60e51b815260206004820152600e60248201526d1053149150511657d3525395115160921b6044820152606401610392565b6001600160a01b038216600081815260036020908152604080832080546001019055848352600290915280822080546001600160a01b0319168417905551839291907fddf252ad1be2c89b69c2b068fc378daa952ba7f163c4a11628f55a4df523b3ef908290a45050565b6001600160e01b031981168114610a5157600080fd5b50565b600060208284031215610a6657600080fd5b8135610a7181610a3b565b9392505050565b600060208083528351808285015260005b81811015610aa557858101830151858201604001528201610a89565b506000604082860101526040601f19601f8301168501019250505092915050565b600060208284031215610ad857600080fd5b5035919050565b80356001600160a01b03811681146106d857600080fd5b60008060408385031215610b0957600080fd5b610b1283610adf565b946020939093013593505050565b600080600060608486031215610b3557600080fd5b610b3e84610adf565b9250610b4c60208501610adf565b9150604084013590509250925092565b60008060408385031215610b6f57600080fd5b50508035926020909101359150565b600060208284031215610b9057600080fd5b610a7182610adf565b60008060408385031215610bac57600080fd5b610bb583610adf565b915060208301358015158114610bca57600080fd5b809150509250929050565b600080600080600060808688031215610bed57600080fd5b610bf686610adf565b9450610c0460208701610adf565b935060408601359250606086013567ffffffffffffffff80821115610c2857600080fd5b818801915088601f830112610c3c57600080fd5b813581811115610c4b57600080fd5b896020828501011115610c5d57600080fd5b9699959850939650602001949392505050565b60008060408385031215610c8357600080fd5b610c8c83610adf565b9150610c9a60208401610adf565b90509250929050565b600181811c90821680610cb757607f821691505b602082108103610cd757634e487b7160e01b600052602260045260246000fd5b50919050565b6020808252600e908201526d1393d517d055551213d49256915160921b604082015260600190565b6020808252601190820152701253959053125117d49150d25412515395607a1b604082015260600190565b808202811582820484141761029957634e487b7160e01b600052601160045260246000fd5b600082610d7257634e487b7160e01b600052601260045260246000fd5b500490565b600060208284031215610d8957600080fd5b8151610a7181610a3b565b60208082526010908201526f155394d0519157d49150d2541251539560821b604082015260600190565b6001600160a01b038681168252851660208201526040810184905260806060820181905281018290526000828460a0840137600060a0848401015260a0601f19601f8501168301019050969550505050505056fea2646970667358221220c9a7a90bc6e3de908ec0be602a824e316a0f4ce4c2c1ea390efe2cb42794f4da64736f6c63430008110033","linkReferences":{}},"methodIdentifiers":{"approve(address,uint256)":"095ea7b3","balanceOf(address)":"70a08231","baseURI()":"6c0360eb","getApproved(uint256)":"081812fc","isApprovedForAll(address,address)":"e985e9c5","mint(address,uint256)":"40c10f19","name()":"06fdde03","ownerOf(uint256)":"6352211e","royaltyInfo(uint256,uint256)":"2a55205a","safeTransferFrom(address,address,uint256)":"42842e0e","safeTransferFrom(address,address,uint256,bytes)":"b88d4fde","setApprovalForAll(address,bool)":"a22cb465","supportsInterface(bytes4)":"01ffc9a7","symbol()":"95d89b41","tokenURI(uint256)":"c87b56dd","transferFrom(address,address,uint256)":"23b872dd"},"id":87}