{"abi":[{"type":"constructor","inputs":[{"name":"_royaltyRegistry","type":"address","internalType":"address"}],"stateMutability":"nonpayable"},{"type":"receive","stateMutability":"payable"},{"type":"function","name":"getRoyaltyRate","inputs":[{"name":"tokenAddress","type":"address","internalType":"address"}],"outputs":[{"name":"","type":"uint256","internalType":"uint256"}],"stateMutability":"view"},{"type":"function","name":"nftBuy","inputs":[{"name":"pair","type":"address","internalType":"address"},{"name":"tokenIds","type":"uint256[]","internalType":"uint256[]"},{"name":"maxInputAmount","type":"uint256","internalType":"uint256"},{"name":"deadline","type":"uint256","internalType":"uint256"}],"outputs":[{"name":"inputAmount","type":"uint256","internalType":"uint256"}],"stateMutability":"payable"},{"type":"function","name":"nftSell","inputs":[{"name":"pair","type":"address","internalType":"address"},{"name":"tokenIds","type":"uint256[]","internalType":"uint256[]"},{"name":"minOutputAmount","type":"uint256","internalType":"uint256"},{"name":"deadline","type":"uint256","internalType":"uint256"},{"name":"proofs","type":"bytes32[][]","internalType":"bytes32[][]"},{"name":"messages","type":"tuple[]","internalType":"struct ReservoirOracle.Message[]","components":[{"name":"id","type":"bytes32","internalType":"bytes32"},{"name":"payload","type":"bytes","internalType":"bytes"},{"name":"timestamp","type":"uint256","internalType":"uint256"},{"name":"signature","type":"bytes","internalType":"bytes"}]}],"outputs":[{"name":"outputAmount","type":"uint256","internalType":"uint256"}],"stateMutability":"nonpayable"},{"type":"function","name":"onERC721Received","inputs":[{"name":"","type":"address","internalType":"address"},{"name":"","type":"address","internalType":"address"},{"name":"","type":"uint256","internalType":"uint256"},{"name":"","type":"bytes","internalType":"bytes"}],"outputs":[{"name":"","type":"bytes4","internalType":"bytes4"}],"stateMutability":"nonpayable"},{"type":"function","name":"owner","inputs":[],"outputs":[{"name":"","type":"address","internalType":"address"}],"stateMutability":"view"},{"type":"function","name":"royaltyRegistry","inputs":[],"outputs":[{"name":"","type":"address","internalType":"contract IRoyaltyRegistry"}],"stateMutability":"view"},{"type":"function","name":"setRoyaltyRegistry","inputs":[{"name":"_royaltyRegistry","type":"address","internalType":"address"}],"outputs":[],"stateMutability":"nonpayable"},{"type":"function","name":"transferOwnership","inputs":[{"name":"newOwner","type":"address","internalType":"address"}],"outputs":[],"stateMutability":"nonpayable"},{"type":"event","name":"OwnershipTransferred","inputs":[{"name":"user","type":"address","indexed":true,"internalType":"address"},{"name":"newOwner","type":"address","indexed":true,"internalType":"address"}],"anonymous":false}],"bytecode":{"object":"0x608060405234801561001057600080fd5b5060405161110d38038061110d83398101604081905261002f91610095565b600080546001600160a01b031916339081178255604051909182917f8be0079c531659141344cd1fd0a4f28419497f9722a3daafe3b4186f6b6457e0908290a350600180546001600160a01b0319166001600160a01b03929092169190911790556100c5565b6000602082840312156100a757600080fd5b81516001600160a01b03811681146100be57600080fd5b9392505050565b611039806100d46000396000f3fe60806040526004361061006f5760003560e01c8063150b7a021461007b5780632eb50125146100bd5780633845eb2b146100eb578063649e83d21461010b57806384a608e21461011e5780638da5cb5b14610140578063a11b07121461016d578063f2fde38b1461018d57600080fd5b3661007657005b600080fd5b34801561008757600080fd5b506100a76100963660046109e9565b630a85bd0160e11b95945050505050565b6040516100b49190610a88565b60405180910390f35b3480156100c957600080fd5b506100dd6100d8366004610a9d565b6101ad565b6040519081526020016100b4565b3480156100f757600080fd5b506100dd610106366004610b0d565b610244565b6100dd610119366004610bcf565b610411565b34801561012a57600080fd5b5061013e610139366004610a9d565b6105d0565b005b34801561014c57600080fd5b50600054610160906001600160a01b031681565b6040516100b49190610c36565b34801561017957600080fd5b50600154610160906001600160a01b031681565b34801561019957600080fd5b5061013e6101a8366004610a9d565b610625565b60015460405163de5488af60e01b815260009182916001600160a01b039091169063de5488af906101e2908690600401610c36565b602060405180830381865afa1580156101ff573d6000803e3d6000fd5b505050506040513d601f19601f820116820180604052508101906102239190610c4a565b9050600061023b82600a670de0b6b3a764000061069a565b95945050505050565b6000808a6001600160a01b03166347ccca026040518163ffffffff1660e01b8152600401602060405180830381865afa158015610285573d6000803e3d6000fd5b505050506040513d601f19601f820116820180604052508101906102a99190610c4a565b905060005b8981101561034357816001600160a01b03166342842e0e33308e8e868181106102d9576102d9610c67565b905060200201356040518463ffffffff1660e01b81526004016102fe93929190610c7d565b600060405180830381600087803b15801561031857600080fd5b505af115801561032c573d6000803e3d6000fd5b50505050808061033b90610cb7565b9150506102ae565b5061034e818c610793565b604051635accf4a560e01b81526001600160a01b038c1690635accf4a590610388908d908d908d908d908d908d908d908d90600401610e27565b6020604051808303816000875af11580156103a7573d6000803e3d6000fd5b505050506040513d601f19601f820116820180604052508101906103cb9190610eff565b915060006103d98a84610f18565b905060006103e9838d8d8561086e565b90506103f58185610f3a565b9350610401334761097b565b5050509998505050505050505050565b6000856001600160a01b0316632a6f869d84878787876040518663ffffffff1660e01b81526004016104469493929190610f53565b60206040518083038185885af1158015610464573d6000803e3d6000fd5b50505050506040513d601f19601f820116820180604052508101906104899190610eff565b90506000866001600160a01b03166347ccca026040518163ffffffff1660e01b8152600401602060405180830381865afa1580156104cb573d6000803e3d6000fd5b505050506040513d601f19601f820116820180604052508101906104ef9190610c4a565b905060006104fd8684610f18565b9050600061050d8389898561086e565b90506105198185610f7a565b935060005b878110156105b357836001600160a01b03166342842e0e30338c8c8681811061054957610549610c67565b905060200201356040518463ffffffff1660e01b815260040161056e93929190610c7d565b600060405180830381600087803b15801561058857600080fd5b505af115801561059c573d6000803e3d6000fd5b5050505080806105ab90610cb7565b91505061051e565b5047156105c4576105c4334761097b565b50505095945050505050565b6000546001600160a01b031633146106035760405162461bcd60e51b81526004016105fa90610f8d565b60405180910390fd5b600180546001600160a01b0319166001600160a01b0392909216919091179055565b6000546001600160a01b0316331461064f5760405162461bcd60e51b81526004016105fa90610f8d565b600080546001600160a01b0319166001600160a01b0383169081178255604051909133917f8be0079c531659141344cd1fd0a4f28419497f9722a3daafe3b4186f6b6457e09190a350565b600080846001600160a01b03166301ffc9a763152a902d60e11b6040518263ffffffff1660e01b81526004016106d09190610a88565b602060405180830381865afa1580156106ed573d6000803e3d6000fd5b505050506040513d601f19601f820116820180604052508101906107119190610fb3565b1561078b5760405163152a902d60e11b815260048101859052602481018490526001600160a01b03861690632a55205a906044016040805180830381865afa158015610761573d6000803e3d6000fd5b505050506040513d601f19601f820116820180604052508101906107859190610fd5565b90925090505b935093915050565b60405163e985e9c560e01b81523060048201526001600160a01b03828116602483015283169063e985e9c590604401602060405180830381865afa1580156107df573d6000803e3d6000fd5b505050506040513d601f19601f820116820180604052508101906108039190610fb3565b61086a5760405163a22cb46560e01b81526001600160a01b0382811660048301526001602483015283169063a22cb46590604401600060405180830381600087803b15801561085157600080fd5b505af1158015610865573d6000803e3d6000fd5b505050505b5050565b60015460405163de5488af60e01b815260009182916001600160a01b039091169063de5488af906108a3908990600401610c36565b602060405180830381865afa1580156108c0573d6000803e3d6000fd5b505050506040513d601f19601f820116820180604052508101906108e49190610c4a565b90506000805b8581101561094057600080610918858a8a8681811061090b5761090b610c67565b905060200201358961069a565b90925090506109278187610f7a565b955090925081905061093881610cb7565b9150506108ea565b5060008311801561095957506001600160a01b03811615155b15610971576109716001600160a01b0382168461097b565b5050949350505050565b600080600080600085875af19050806109cc5760405162461bcd60e51b815260206004820152601360248201527211551217d514905394d1915497d19052531151606a1b60448201526064016105fa565b505050565b6001600160a01b03811681146109e657600080fd5b50565b600080600080600060808688031215610a0157600080fd5b8535610a0c816109d1565b94506020860135610a1c816109d1565b935060408601359250606086013567ffffffffffffffff80821115610a4057600080fd5b818801915088601f830112610a5457600080fd5b813581811115610a6357600080fd5b896020828501011115610a7557600080fd5b9699959850939650602001949392505050565b6001600160e01b031991909116815260200190565b600060208284031215610aaf57600080fd5b8135610aba816109d1565b9392505050565b60008083601f840112610ad357600080fd5b50813567ffffffffffffffff811115610aeb57600080fd5b6020830191508360208260051b8501011115610b0657600080fd5b9250929050565b600080600080600080600080600060c08a8c031215610b2b57600080fd5b8935610b36816109d1565b985060208a013567ffffffffffffffff80821115610b5357600080fd5b610b5f8d838e01610ac1565b909a50985060408c0135975060608c0135965060808c0135915080821115610b8657600080fd5b610b928d838e01610ac1565b909650945060a08c0135915080821115610bab57600080fd5b50610bb88c828d01610ac1565b915080935050809150509295985092959850929598565b600080600080600060808688031215610be757600080fd5b8535610bf2816109d1565b9450602086013567ffffffffffffffff811115610c0e57600080fd5b610c1a88828901610ac1565b9699909850959660408101359660609091013595509350505050565b6001600160a01b0391909116815260200190565b600060208284031215610c5c57600080fd5b8151610aba816109d1565b634e487b7160e01b600052603260045260246000fd5b6001600160a01b039384168152919092166020820152604081019190915260600190565b634e487b7160e01b600052601160045260246000fd5b600060018201610cc957610cc9610ca1565b5060010190565b81835260006001600160fb1b03831115610ce957600080fd5b8260051b80836020870137939093016020019392505050565b6000808335601e19843603018112610d1957600080fd5b830160208101925035905067ffffffffffffffff811115610d3957600080fd5b803603821315610b0657600080fd5b81835281816020850137506000828201602090810191909152601f909101601f19169091010190565b81835260006020808501808196508560051b81019150846000805b88811015610e19578385038a528235607e19893603018112610dac578283fd5b8801803586526080610dc088830183610d02565b828a8a0152610dd2838a018284610d48565b9250505060408083013581890152506060610def81840184610d02565b9350888303828a0152610e03838583610d48565b9d8a019d98505050938701935050600101610d8c565b509298975050505050505050565b60a081526000610e3b60a083018a8c610cd0565b60208381018a9052604084018990528382036060850152868252818101600588811b840183018a60005b8b811015610ed757868303601f190185528135368e9003601e19018112610e8b57600080fd5b8d01868101903567ffffffffffffffff811115610ea757600080fd5b80861b3603821315610eb857600080fd5b610ec3858284610cd0565b968801969450505090850190600101610e65565b50508681036080880152610eec81898b610d71565b9f9e505050505050505050505050505050565b600060208284031215610f1157600080fd5b5051919050565b600082610f3557634e487b7160e01b600052601260045260246000fd5b500490565b81810381811115610f4d57610f4d610ca1565b92915050565b606081526000610f67606083018688610cd0565b6020830194909452506040015292915050565b80820180821115610f4d57610f4d610ca1565b6020808252600c908201526b15539055551213d49256915160a21b604082015260600190565b600060208284031215610fc557600080fd5b81518015158114610aba57600080fd5b60008060408385031215610fe857600080fd5b8251610ff3816109d1565b602093909301519294929350505056fea2646970667358221220ba62da502ee81ec72fe54b7275363a768798d8df787b494291dc399dd460cab264736f6c63430008110033","linkReferences":{}},"methodIdentifiers":{"getRoyaltyRate(address)":"2eb50125","nftBuy(address,uint256[],uint256,uint256)":"649e83d2","nftSell(address,uint256[],uint256,uint256,bytes32[][],(bytes32,bytes,uint256,bytes)[])":"3845eb2b","onERC721Received(address,address,uint256,bytes)":"150b7a02","owner()":"8da5cb5b","royaltyRegistry()":"a11b0712","setRoyaltyRegistry(address)":"84a608e2","transferOwnership(address)":"f2fde38b"},"id":56}