{"abi":[{"type":"constructor","inputs":[{"name":"_stolenNftFilterOracle","type":"address","internalType":"address"}],"stateMutability":"nonpayable"},{"type":"function","name":"create","inputs":[{"name":"nft","type":"address","internalType":"address"},{"name":"baseToken","type":"address","internalType":"address"},{"name":"merkleRoot","type":"bytes32","internalType":"bytes32"}],"outputs":[{"name":"pair","type":"address","internalType":"contract Pair"}],"stateMutability":"nonpayable"},{"type":"function","name":"destroy","inputs":[{"name":"nft","type":"address","internalType":"address"},{"name":"baseToken","type":"address","internalType":"address"},{"name":"merkleRoot","type":"bytes32","internalType":"bytes32"}],"outputs":[],"stateMutability":"nonpayable"},{"type":"function","name":"owner","inputs":[],"outputs":[{"name":"","type":"address","internalType":"address"}],"stateMutability":"view"},{"type":"function","name":"pairs","inputs":[{"name":"","type":"address","internalType":"address"},{"name":"","type":"address","internalType":"address"},{"name":"","type":"bytes32","internalType":"bytes32"}],"outputs":[{"name":"","type":"address","internalType":"address"}],"stateMutability":"view"},{"type":"function","name":"setStolenNftFilterOracle","inputs":[{"name":"_stolenNftFilterOracle","type":"address","internalType":"address"}],"outputs":[],"stateMutability":"nonpayable"},{"type":"function","name":"stolenNftFilterOracle","inputs":[],"outputs":[{"name":"","type":"address","internalType":"address"}],"stateMutability":"view"},{"type":"function","name":"transferOwnership","inputs":[{"name":"newOwner","type":"address","internalType":"address"}],"outputs":[],"stateMutability":"nonpayable"},{"type":"event","name":"Create","inputs":[{"name":"nft","type":"address","indexed":true,"internalType":"address"},{"name":"baseToken","type":"address","indexed":true,"internalType":"address"},{"name":"merkleRoot","type":"bytes32","indexed":true,"internalType":"bytes32"}],"anonymous":false},{"type":"event","name":"Destroy","inputs":[{"name":"nft","type":"address","indexed":true,"internalType":"address"},{"name":"baseToken","type":"address","indexed":true,"internalType":"address"},{"name":"merkleRoot","type":"bytes32","indexed":true,"internalType":"bytes32"}],"anonymous":false},{"type":"event","name":"OwnershipTransferred","inputs":[{"name":"user","type":"address","indexed":true,"internalType":"address"},{"name":"newOwner","type":"address","indexed":true,"internalType":"address"}],"anonymous":false},{"type":"event","name":"SetStolenNftFilterOracle","inputs":[{"name":"stolenNftFilterOracle","type":"address","indexed":true,"internalType":"address"}],"anonymous":false}],"bytecode":{"object":"0x608060405234801561001057600080fd5b50604051615e6d380380615e6d83398101604081905261002f91610095565b600080546001600160a01b031916339081178255604051909182917f8be0079c531659141344cd1fd0a4f28419497f9722a3daafe3b4186f6b6457e0908290a350600280546001600160a01b0319166001600160a01b03929092169190911790556100c5565b6000602082840312156100a757600080fd5b81516001600160a01b03811681146100be57600080fd5b9392505050565b615d99806100d46000396000f3fe60806040523480156200001157600080fd5b5060043610620000765760003560e01c8063358602f7146200007b578063505fe15214620000ab5780638da5cb5b14620000c45780638f33853714620000d8578063b3c3b30414620000ef578063d1692f56146200012c578063f2fde38b1462000143575b600080fd5b6002546200008f906001600160a01b031681565b6040516001600160a01b03909116815260200160405180910390f35b620000c2620000bc36600462000b8c565b6200015a565b005b6000546200008f906001600160a01b031681565b620000c2620000e936600462000bcd565b6200024a565b6200008f6200010036600462000b8c565b60016020908152600093845260408085208252928452828420905282529020546001600160a01b031681565b6200008f6200013d36600462000b8c565b620002c1565b620000c26200015436600462000bcd565b6200055d565b6001600160a01b03838116600090815260016020908152604080832086851684528252808320858452909152902054163314620001de5760405162461bcd60e51b815260206004820152601c60248201527f4f6e6c7920706169722063616e2064657374726f7920697473656c660000000060448201526064015b60405180910390fd5b6001600160a01b03808416600081815260016020908152604080832094871680845294825280832086845290915280822080546001600160a01b031916905551849392917f14397e8603dbce74295a5f389f130d9abc9567253064be027262ed9f4dcb1aae91a4505050565b6000546001600160a01b03163314620002775760405162461bcd60e51b8152600401620001d59062000beb565b600280546001600160a01b0319166001600160a01b0383169081179091556040517fb49e19c91982afc50d472370ce6b4361b542e53465f60f070e39fe46656477d790600090a250565b6001600160a01b0383811660009081526001602090815260408083208685168452825280832085845290915281205490911615620003385760405162461bcd60e51b81526020600482015260136024820152725061697220616c72656164792065786973747360681b6044820152606401620001d5565b6000846001600160a01b03163b116200038b5760405162461bcd60e51b8152602060048201526014602482015273125b9d985b1a59081391950818dbdb9d1c9858dd60621b6044820152606401620001d5565b6000836001600160a01b03163b1180620003ac57506001600160a01b038316155b620003fa5760405162461bcd60e51b815260206004820152601b60248201527f496e76616c6964206261736520746f6b656e20636f6e747261637400000000006044820152606401620001d5565b60006001600160a01b03841615620004265762000420846001600160a01b0316620005d5565b62000443565b6040518060400160405280600381526020016208aa8960eb1b8152505b905060006200045b866001600160a01b0316620005d5565b9050600062000473876001600160a01b031662000610565b9050600082846040516020016200048c92919062000c37565b6040516020818303038152906040529050878787838587604051620004b19062000b61565b620004c29695949392919062000ca5565b604051809103906000f080158015620004df573d6000803e3d6000fd5b506001600160a01b0389811660008181526001602090815260408083208d86168085529083528184208d855290925280832080546001600160a01b03191695871695909517909455925193985089937f94e35d08a6788cb2901c35019eb1105f35dcfdac00943412ebe0236470ee420f9190a4505050509392505050565b6000546001600160a01b031633146200058a5760405162461bcd60e51b8152600401620001d59062000beb565b600080546001600160a01b0319166001600160a01b0383169081178255604051909133917f8be0079c531659141344cd1fd0a4f28419497f9722a3daafe3b4186f6b6457e09190a350565b60606000620005ec836395d89b4160e01b6200063e565b905080516000036200060a5762000603836200077b565b9392505050565b92915050565b6060600062000627836306fdde0360e01b6200063e565b905080516000036200060a57620006038362000790565b60408051600481526024810182526020810180516001600160e01b03166001600160e01b03198516179052905160609160009182916001600160a01b038716916200068a919062000d11565b600060405180830381855afa9150503d8060008114620006c7576040519150601f19603f3d011682016040523d82523d6000602084013e620006cc565b606091505b5091509150811580620006de57508051155b15620006fe5760405180602001604052806000815250925050506200060a565b8051602003620007385760008180602001905181019062000720919062000d2f565b90506200072d81620007a6565b93505050506200060a565b60408151111562000763578080602001905181019062000759919062000d5f565b925050506200060a565b50506040805160208101909152600081529392505050565b60606200060a61ffff609084901c166200091d565b60606200060a826001600160a01b03166200091d565b604080516020808252818301909252606091600091906020820181803683370190505090506000805b60208110156200085a576000858260208110620007f057620007f062000e18565b1a60f81b90506001600160f81b03198116156200084457808484815181106200081d576200081d62000e18565b60200101906001600160f81b031916908160001a90535082620008408162000e44565b9350505b5080620008518162000e44565b915050620007cf565b5060008167ffffffffffffffff81111562000879576200087962000d49565b6040519080825280601f01601f191660200182016040528015620008a4576020820181803683370190505b50905060005b828110156200091457838181518110620008c857620008c862000e18565b602001015160f81c60f81b828281518110620008e857620008e862000e18565b60200101906001600160f81b031916908160001a905350806200090b8162000e44565b915050620008aa565b50949350505050565b60606200060a826200092f8462000938565b600101620009a7565b600080608083901c15620009515760809290921c916010015b604083901c15620009675760409290921c916008015b602083901c156200097d5760209290921c916004015b601083901c15620009935760109290921c916002015b600883901c156200060a5760010192915050565b60606000620009b883600262000e60565b620009c590600262000e7a565b67ffffffffffffffff811115620009e057620009e062000d49565b6040519080825280601f01601f19166020018201604052801562000a0b576020820181803683370190505b509050600360fc1b8160008151811062000a295762000a2962000e18565b60200101906001600160f81b031916908160001a905350600f60fb1b8160018151811062000a5b5762000a5b62000e18565b60200101906001600160f81b031916908160001a905350600062000a8184600262000e60565b62000a8e90600162000e7a565b90505b600181111562000b10576f181899199a1a9b1b9c1cb0b131b232b360811b85600f166010811062000ac65762000ac662000e18565b1a60f81b82828151811062000adf5762000adf62000e18565b60200101906001600160f81b031916908160001a90535060049490941c9362000b088162000e90565b905062000a91565b508315620006035760405162461bcd60e51b815260206004820181905260248201527f537472696e67733a20686578206c656e67746820696e73756666696369656e746044820152606401620001d5565b614eb98062000eab83390190565b80356001600160a01b038116811462000b8757600080fd5b919050565b60008060006060848603121562000ba257600080fd5b62000bad8462000b6f565b925062000bbd6020850162000b6f565b9150604084013590509250925092565b60006020828403121562000be057600080fd5b620006038262000b6f565b6020808252600c908201526b15539055551213d49256915160a21b604082015260600190565b60005b8381101562000c2e57818101518382015260200162000c14565b50506000910152565b6000835162000c4b81846020880162000c11565b601d60f91b908301908152835162000c6b81600184016020880162000c11565b01600101949350505050565b6000815180845262000c9181602086016020860162000c11565b601f01601f19169290920160200192915050565b6001600160a01b038781168252861660208201526040810185905260c06060820181905260009062000cda9083018662000c77565b828103608084015262000cee818662000c77565b905082810360a084015262000d04818562000c77565b9998505050505050505050565b6000825162000d2581846020870162000c11565b9190910192915050565b60006020828403121562000d4257600080fd5b5051919050565b634e487b7160e01b600052604160045260246000fd5b60006020828403121562000d7257600080fd5b815167ffffffffffffffff8082111562000d8b57600080fd5b818401915084601f83011262000da057600080fd5b81518181111562000db55762000db562000d49565b604051601f8201601f19908116603f0116810190838211818310171562000de05762000de062000d49565b8160405282815287602084870101111562000dfa57600080fd5b62000e0d83602083016020880162000c11565b979650505050505050565b634e487b7160e01b600052603260045260246000fd5b634e487b7160e01b600052601160045260246000fd5b60006001820162000e595762000e5962000e2e565b5060010190565b80820281158282048414176200060a576200060a62000e2e565b808201808211156200060a576200060a62000e2e565b60008162000ea25762000ea262000e2e565b50600019019056fe6101806040523480156200001257600080fd5b5060405162004eb938038062004eb98339810160408190526200003591620002bc565b816040516020016200004891906200037c565b604051602081830303815290604052816040516020016200006a9190620003b3565b60408051601f19818403018152919052601260006200008a84826200046d565b5060016200009983826200046d565b5060ff81166080524660a052620000af62000128565b60c0525050506001600160a01b0380871660e0528516610100526101208490526040518390620000df90620001c4565b620000eb919062000539565b604051809103906000f08015801562000108573d6000803e3d6000fd5b506001600160a01b0316610140525050336101605250620005ec92505050565b60007f8b73c3c69bb8fe3d512ecc4cf759cc79239f7b179b0ffacaa9a75d522b39400f60006040516200015c91906200056e565b6040805191829003822060208301939093528101919091527fc89efdaa54c0f20c7adf612882df0950f5a951637e0307cdcb4c672f298b8bc660608201524660808201523060a082015260c00160405160208183030381529060405280519060200120905090565b6111d28062003ce783390190565b80516001600160a01b0381168114620001ea57600080fd5b919050565b634e487b7160e01b600052604160045260246000fd5b60005b838110156200022257818101518382015260200162000208565b50506000910152565b600082601f8301126200023d57600080fd5b81516001600160401b03808211156200025a576200025a620001ef565b604051601f8301601f19908116603f01168101908282118183101715620002855762000285620001ef565b816040528381528660208588010111156200029f57600080fd5b620002b284602083016020890162000205565b9695505050505050565b60008060008060008060c08789031215620002d657600080fd5b620002e187620001d2565b9550620002f160208801620001d2565b6040880151606089015191965094506001600160401b03808211156200031657600080fd5b620003248a838b016200022b565b945060808901519150808211156200033b57600080fd5b620003498a838b016200022b565b935060a08901519150808211156200036057600080fd5b506200036f89828a016200022b565b9150509295509295509295565b600082516200039081846020870162000205565b7010333930b1ba34b7b730b6103a37b5b2b760791b920191825250601101919050565b603360f91b815260008251620003d181600185016020870162000205565b9190910160010192915050565b600181811c90821680620003f357607f821691505b6020821081036200041457634e487b7160e01b600052602260045260246000fd5b50919050565b601f8211156200046857600081815260208120601f850160051c81016020861015620004435750805b601f850160051c820191505b8181101562000464578281556001016200044f565b5050505b505050565b81516001600160401b03811115620004895762000489620001ef565b620004a1816200049a8454620003de565b846200041a565b602080601f831160018114620004d95760008415620004c05750858301515b600019600386901b1c1916600185901b17855562000464565b600085815260208120601f198616915b828110156200050a57888601518255948401946001909101908401620004e9565b5085821015620005295787850151600019600388901b60f8161c191681555b5050505050600190811b01905550565b60208152600082518060208401526200055a81604085016020870162000205565b601f01601f19169190910160400192915050565b60008083546200057e81620003de565b60018281168015620005995760018114620005af57620005e0565b60ff1984168752821515830287019450620005e0565b8760005260208060002060005b85811015620005d75781548a820152908401908201620005bc565b50505082870194505b50929695505050505050565b60805160a05160c05160e051610100516101205161014051610160516135ae62000739600039600081816103ca01528181610ffd015281816113f40152818161197401528181611a6401526126a60152600081816105e9015281816107bb01528181610bf401528181610de901528181610f5b0152610fce01526000818161048b01528181611ad50152818161257701526125d10152600081816106d801528181610c5d01528181610ca901528181610d91015281816110d30152818161110d015281816117fc015281816118af0152818161190c01528181611ab301528181611c0b01528181611c3a01528181611e0601528181611e4e0152818161244c015261248e015260008181610562015281816112c70152818161156b0152818161168a01528181611a910152612760015260006117ad0152600061177d015260006104bf01526135ae6000f3fe6080604052600436106102205760003560e01c80633644e5151161012e578063956c8327116100ab578063d3c9727c1161006f578063d3c9727c146106fa578063d505accf1461071a578063d7a2e4c91461073a578063dd62ed3e1461075a578063fceacc831461079257600080fd5b8063956c83271461066557806395d89b411461067c578063a035b1fe14610691578063a9059cbb146106a6578063c55dae63146106c657600080fd5b80634cfb998a116100f25780634cfb998a146105a45780635accf4a5146105b75780635fcbd285146105d757806370a082311461060b5780637ecebe001461063857600080fd5b80633644e5151461051357806340993b261461052857806343d726d61461053b57806347ccca02146105505780634cba3eca1461058457600080fd5b80631d989f83116101bc5780632a6f869d116101805780632a6f869d146104445780632e1a7d4d146104575780632eb4a7ab14610479578063313ce567146104ad57806335ec39d9146104f357600080fd5b80631d989f8314610390578063203ae565146103a3578063217c1d68146103b857806323b872dd14610404578063286605711461042457600080fd5b8063037d785b14610225578063052d7c001461025f57806306fdde0314610283578063095ea7b3146102a55780630a94914e146102d5578063150b7a02146102f5578063168585e51461033a57806318160ddd1461035a5780631ae74cdd14610370575b600080fd5b34801561023157600080fd5b50610245610240366004612981565b6107b4565b604080519283526020830191909152015b60405180910390f35b34801561026b57600080fd5b5061027560065481565b604051908152602001610256565b34801561028f57600080fd5b50610298610915565b604051610256919061299a565b3480156102b157600080fd5b506102c56102c0366004612a00565b6109a3565b6040519015158152602001610256565b3480156102e157600080fd5b506102756102f0366004612a2c565b610a10565b34801561030157600080fd5b50610321610310366004612a58565b630a85bd0160e11b95945050505050565b6040516001600160e01b03199091168152602001610256565b34801561034657600080fd5b50610275610355366004612981565b610aa3565b34801561036657600080fd5b5061027560025481565b34801561037c57600080fd5b5061024561038b366004612af6565b610aee565b61027561039e366004612b28565b610d08565b3480156103af57600080fd5b5061027561116f565b3480156103c457600080fd5b506103ec7f000000000000000000000000000000000000000000000000000000000000000081565b6040516001600160a01b039091168152602001610256565b34801561041057600080fd5b506102c561041f366004612b6b565b61117e565b34801561043057600080fd5b5061027561043f366004612c0c565b61125e565b610275610452366004612c5f565b6113b3565b34801561046357600080fd5b50610477610472366004612981565b6113e8565b005b34801561048557600080fd5b506102757f000000000000000000000000000000000000000000000000000000000000000081565b3480156104b957600080fd5b506104e17f000000000000000000000000000000000000000000000000000000000000000081565b60405160ff9091168152602001610256565b3480156104ff57600080fd5b5061027561050e366004612caf565b611604565b34801561051f57600080fd5b50610275611779565b610275610536366004612a2c565b6117cf565b34801561054757600080fd5b50610477611968565b34801561055c57600080fd5b506103ec7f000000000000000000000000000000000000000000000000000000000000000081565b34801561059057600080fd5b5061024561059f366004612d48565b611b5f565b6102756105b2366004612db7565b611b9b565b3480156105c357600080fd5b506102756105d2366004612e87565b611bcd565b3480156105e357600080fd5b506103ec7f000000000000000000000000000000000000000000000000000000000000000081565b34801561061757600080fd5b50610275610626366004612f33565b60036020526000908152604090205481565b34801561064457600080fd5b50610275610653366004612f33565b60056020526000908152604090205481565b34801561067157600080fd5b5061027562093a8081565b34801561068857600080fd5b50610298611bf9565b34801561069d57600080fd5b50610275611c06565b3480156106b257600080fd5b506102c56106c1366004612a00565b611d15565b3480156106d257600080fd5b506103ec7f000000000000000000000000000000000000000000000000000000000000000081565b34801561070657600080fd5b50610275610715366004612a2c565b611d7b565b34801561072657600080fd5b50610477610735366004612f5f565b611ea9565b34801561074657600080fd5b50610275610755366004612981565b6120e7565b34801561076657600080fd5b50610275610775366004612fd0565b600460209081526000928352604080842090915290825290205481565b34801561079e57600080fd5b5030600090815260036020526040902054610275565b60008060007f00000000000000000000000000000000000000000000000000000000000000006001600160a01b03166318160ddd6040518163ffffffff1660e01b8152600401602060405180830381865afa158015610817573d6000803e3d6000fd5b505050506040513d601f19601f8201168201806040525081019061083b9190613009565b90506000818561084961116f565b6108539190613038565b61085d9190613065565b9050600082866108793060009081526003602052604090205490565b6108839190613038565b61088d9190613065565b905060008361089d886001613079565b306000908152600360205260409020546108b79190613038565b6108c19190613065565b90506108d5670de0b6b3a76400008361308c565b158015906108ee57506103e86108eb83836130a0565b11155b8015610900575066038d7ea4c6800084115b15610909578091505b50909590945092505050565b60008054610922906130b3565b80601f016020809104026020016040519081016040528092919081815260200182805461094e906130b3565b801561099b5780601f106109705761010080835404028352916020019161099b565b820191906000526020600020905b81548152906001019060200180831161097e57829003601f168201915b505050505081565b3360008181526004602090815260408083206001600160a01b038716808552925280832085905551919290917f8c5be1e5ebec7d5bd14f71427d1e84f3dd0314c0f7b2291e5b200ac8c7c3b925906109fe9086815260200190565b60405180910390a35060015b92915050565b60008115610a79576000610a2261116f565b610a2c8487613038565b610a369190613065565b90506000610a503060009081526003602052604090205490565b610a5a8587613038565b610a649190613065565b9050610a708282612141565b92505050610a9c565b620186a0610a8f610a8a8587613038565b612157565b610a9991906130a0565b90505b9392505050565b6000610a0a610ab4836103e8613038565b610abc61116f565b84610ad33060009081526003602052604090205490565b610add91906130a0565b610ae9906103de613038565b61223f565b600080821580610afe5750428310155b610b235760405162461bcd60e51b8152600401610b1a906130ed565b60405180910390fd5b610b2c866107b4565b909250905084821015610b815760405162461bcd60e51b815260206004820152601f60248201527f536c6970706167653a206261736520746f6b656e20616d6f756e74206f7574006044820152606401610b1a565b83811015610bd15760405162461bcd60e51b815260206004820152601e60248201527f536c6970706167653a206672616374696f6e616c20746f6b656e206f757400006044820152606401610b1a565b610bdc303383612265565b50604051632770a7eb60e21b81526001600160a01b037f00000000000000000000000000000000000000000000000000000000000000001690639dc29fac90610c2b9033908a9060040161310e565b600060405180830381600087803b158015610c4557600080fd5b505af1158015610c59573d6000803e3d6000fd5b50507f00000000000000000000000000000000000000000000000000000000000000006001600160a01b03169150610c9c905057610c9733836122ea565b610cd0565b610cd06001600160a01b037f0000000000000000000000000000000000000000000000000000000000000000163384612340565b8581837fe26e44b49401e2c8d21cfcb6628ae520c5a95ebd3b087893b427af4fa3d4e0d960405160405180910390a494509492505050565b6000811580610d175750428210155b610d335760405162461bcd60e51b8152600401610b1a906130ed565b600087118015610d435750600086115b610d8f5760405162461bcd60e51b815260206004820152601a60248201527f496e70757420746f6b656e20616d6f756e74206973207a65726f0000000000006044820152606401610b1a565b7f00000000000000000000000000000000000000000000000000000000000000006001600160a01b031615610dc5573415610dc9565b8634145b610de55760405162461bcd60e51b8152600401610b1a90613127565b60007f00000000000000000000000000000000000000000000000000000000000000006001600160a01b03166318160ddd6040518163ffffffff1660e01b8152600401602060405180830381865afa158015610e45573d6000803e3d6000fd5b505050506040513d601f19601f82011682018060405250810190610e699190613009565b90508015610edb576000610e7b611c06565b9050858110158015610e8d5750848111155b610ed95760405162461bcd60e51b815260206004820152601d60248201527f536c6970706167653a207072696365206f7574206f6620626f756e64730000006044820152606401610b1a565b505b610ee6888883610a10565b915085821015610f385760405162461bcd60e51b815260206004820152601d60248201527f536c6970706167653a206c7020746f6b656e20616d6f756e74206f75740000006044820152606401610b1a565b610f43333089612265565b506040516340c10f1960e01b81526001600160a01b037f000000000000000000000000000000000000000000000000000000000000000016906340c10f1990610f92903390869060040161310e565b600060405180830381600087803b158015610fac57600080fd5b505af1158015610fc0573d6000803e3d6000fd5b50505050806000036110d1577f00000000000000000000000000000000000000000000000000000000000000006001600160a01b03166340c10f197f00000000000000000000000000000000000000000000000000000000000000006001600160a01b0316638da5cb5b6040518163ffffffff1660e01b8152600401602060405180830381865afa158015611059573d6000803e3d6000fd5b505050506040513d601f19601f8201168201806040525081019061107d9190613154565b620186a06040518363ffffffff1660e01b815260040161109e92919061310e565b600060405180830381600087803b1580156110b857600080fd5b505af11580156110cc573d6000803e3d6000fd5b505050505b7f00000000000000000000000000000000000000000000000000000000000000006001600160a01b031615611135576111356001600160a01b037f00000000000000000000000000000000000000000000000000000000000000001633308b6123be565b8187897f2a31efc7e9b3f67e8cd108d5980ce3d6ac332ef092f12c5f1d748a7dfdf48f0660405160405180910390a4509695505050505050565b6000611179612448565b905090565b6001600160a01b038316600090815260046020908152604080832033845290915281205460001981146111da576111b583826130a0565b6001600160a01b03861660009081526004602090815260408083203384529091529020555b6001600160a01b038516600090815260036020526040812080548592906112029084906130a0565b90915550506001600160a01b03808516600081815260036020526040908190208054870190555190918716906000805160206135598339815191529061124b9087815260200190565b60405180910390a3506001949350505050565b6000611272670de0b6b3a764000084613038565b905061127e338261250b565b81156112ba5760006103e8611294836003613038565b61129e9190613065565b90506112ab333083612265565b506112b68183613079565b9150505b60005b8381101561136b577f00000000000000000000000000000000000000000000000000000000000000006001600160a01b03166342842e0e303388888681811061130857611308613171565b905060200201356040518463ffffffff1660e01b815260040161132d93929190613187565b600060405180830381600087803b15801561134757600080fd5b505af115801561135b573d6000803e3d6000fd5b5050600190920191506112bd9050565b50838360405161137c9291906131ab565b604051908190038120907f49c6b1e1927bec3d67ff457e5fd52befa360549040211069e7c52c817ed23b4a90600090a29392505050565b60006113d16113ca670de0b6b3a764000086613038565b84846117cf565b90506113df8585600061125e565b50949350505050565b336001600160a01b03167f00000000000000000000000000000000000000000000000000000000000000006001600160a01b0316638da5cb5b6040518163ffffffff1660e01b8152600401602060405180830381865afa158015611450573d6000803e3d6000fd5b505050506040513d601f19601f820116820180604052508101906114749190613154565b6001600160a01b0316146114c05760405162461bcd60e51b81526020600482015260136024820152722bb4ba34323930bb9d103737ba1037bbb732b960691b6044820152606401610b1a565b60065460000361150b5760405162461bcd60e51b815260206004820152601660248201527515da5d1a191c985dc81b9bdd081a5b9a5d1a585d195960521b6044820152606401610b1a565b6006544210156115545760405162461bcd60e51b8152602060048201526014602482015273139bdd081dda5d1a191c985dd8589b19481e595d60621b6044820152606401610b1a565b604051632142170760e11b81526001600160a01b037f000000000000000000000000000000000000000000000000000000000000000016906342842e0e906115a490309033908690600401613187565b600060405180830381600087803b1580156115be57600080fd5b505af11580156115d2573d6000803e3d6000fd5b50506040518392507f5b6b431d4476a211bb7d41c20d1aab9ae2321deee0d20be3d9fc9b1093fa6e3d9150600090a250565b60006006546000146116475760405162461bcd60e51b815260206004820152600c60248201526b15dc985c0e8818db1bdcd95960a21b6044820152606401610b1a565b61165387878787612575565b61165f878785856126a2565b611671670de0b6b3a764000087613038565b905061167d33826127c7565b60005b8681101561172e577f00000000000000000000000000000000000000000000000000000000000000006001600160a01b03166342842e0e33308b8b868181106116cb576116cb613171565b905060200201356040518463ffffffff1660e01b81526004016116f093929190613187565b600060405180830381600087803b15801561170a57600080fd5b505af115801561171e573d6000803e3d6000fd5b5050600190920191506116809050565b50868660405161173f9291906131ab565b604051908190038120907f54d2ea0f504a95a03aa80f593be4914a1ebece60c3315b75040de03aa5df5c3a90600090a29695505050505050565b60007f000000000000000000000000000000000000000000000000000000000000000046146117aa57611179612819565b507f000000000000000000000000000000000000000000000000000000000000000090565b60008115806117de5750428210155b6117fa5760405162461bcd60e51b8152600401610b1a906130ed565b7f00000000000000000000000000000000000000000000000000000000000000006001600160a01b031615611830573415611834565b8234145b6118505760405162461bcd60e51b8152600401610b1a90613127565b61185984610aa3565b9050828111156118a15760405162461bcd60e51b815260206004820152601360248201527229b634b83830b3b29d1030b6b7bab73a1034b760691b6044820152606401610b1a565b6118ac303386612265565b507f00000000000000000000000000000000000000000000000000000000000000006001600160a01b03166118ff5760006118e782856130a0565b905080156118f9576118f933826122ea565b50611934565b6119346001600160a01b037f0000000000000000000000000000000000000000000000000000000000000000163330846123be565b604051849082907f76911b5d8081a7d290dd15cdb0e39e9513ac7e8d1cce3275a7cf1380889abacc90600090a39392505050565b336001600160a01b03167f00000000000000000000000000000000000000000000000000000000000000006001600160a01b0316638da5cb5b6040518163ffffffff1660e01b8152600401602060405180830381865afa1580156119d0573d6000803e3d6000fd5b505050506040513d601f19601f820116820180604052508101906119f49190613154565b6001600160a01b031614611a3d5760405162461bcd60e51b815260206004820152601060248201526f21b637b9b29d103737ba1037bbb732b960811b6044820152606401610b1a565b611a4a62093a8042613079565b60065560405163282ff0a960e11b81526001600160a01b037f0000000000000000000000000000000000000000000000000000000000000000169063505fe15290611afd907f0000000000000000000000000000000000000000000000000000000000000000907f0000000000000000000000000000000000000000000000000000000000000000907f000000000000000000000000000000000000000000000000000000000000000090600401613187565b600060405180830381600087803b158015611b1757600080fd5b505af1158015611b2b573d6000803e3d6000fd5b50506006546040519092507fbf67515a38ee520223d32c1266d52101c30d936ed1f3e436c8caeb0a43cb06bf9150600090a2565b600080611b7f8888611b79670de0b6b3a764000088613038565b89610aee565b9092509050611b8f85858561125e565b50965096945050505050565b600080611bac8c8c88888888611604565b9050611bbc8d828c8c8c8c610d08565b9d9c50505050505050505050505050565b600080611bde8a8a88888888611604565b9050611beb818989611d7b565b9a9950505050505050505050565b60018054610922906130b3565b6000807f00000000000000000000000000000000000000000000000000000000000000006001600160a01b031615611cca577f00000000000000000000000000000000000000000000000000000000000000006001600160a01b031663313ce5676040518163ffffffff1660e01b8152600401602060405180830381865afa158015611c96573d6000803e3d6000fd5b505050506040513d601f19601f82011682018060405250810190611cba91906131d4565b611cc59060246131f1565b611ccd565b60125b60ff169050611ce83060009081526003602052604090205490565b611cf382600a6132ee565b611cfb612448565b611d059190613038565b611d0f9190613065565b91505090565b33600090815260036020526040812080548391908390611d369084906130a0565b90915550506001600160a01b03831660008181526003602052604090819020805485019055513390600080516020613559833981519152906109fe9086815260200190565b6000811580611d8a5750428210155b611da65760405162461bcd60e51b8152600401610b1a906130ed565b611daf846120e7565b905082811015611df85760405162461bcd60e51b815260206004820152601460248201527314db1a5c1c1859d94e88185b5bdd5b9d081bdd5d60621b6044820152606401610b1a565b611e03333086612265565b507f00000000000000000000000000000000000000000000000000000000000000006001600160a01b0316611e4157611e3c33826122ea565b611e75565b611e756001600160a01b037f0000000000000000000000000000000000000000000000000000000000000000163383612340565b604051819085907f8ed05978f1a2453a08590ad9c67430e04d0b816de1318b575d1c28b7965ff5d590600090a39392505050565b42841015611ef35760405162461bcd60e51b815260206004820152601760248201527614115493525517d11150511312539157d1561412549151604a1b6044820152606401610b1a565b60006001611eff611779565b6001600160a01b038a811660008181526005602090815260409182902080546001810190915582517f6e71edae12b1b97f4d1f60370fef10105fa2faae0126114a169c64845d6126c98184015280840194909452938d166060840152608083018c905260a083019390935260c08083018b90528151808403909101815260e08301909152805192019190912061190160f01b6101008301526101028201929092526101228101919091526101420160408051601f198184030181528282528051602091820120600084529083018083525260ff871690820152606081018590526080810184905260a0016020604051602081039080840390855afa15801561200b573d6000803e3d6000fd5b5050604051601f1901519150506001600160a01b038116158015906120415750876001600160a01b0316816001600160a01b0316145b61207e5760405162461bcd60e51b815260206004820152600e60248201526d24a72b20a624a22fa9a4a3a722a960911b6044820152606401610b1a565b6001600160a01b0390811660009081526004602090815260408083208a8516808552908352928190208990555188815291928a16917f8c5be1e5ebec7d5bd14f71427d1e84f3dd0314c0f7b2291e5b200ac8c7c3b925910160405180910390a350505050505050565b6000806120f6836103de613038565b90508061210f3060009081526003602052604090205490565b61211b906103e8613038565b6121259190613079565b61212d61116f565b6121379083613038565b610a9c9190613065565b60008183106121505781610a9c565b5090919050565b60008160000361216957506000919050565b60006001612176846128b3565b901c6001901b9050600181848161218f5761218f61304f565b048201901c905060018184816121a7576121a761304f565b048201901c905060018184816121bf576121bf61304f565b048201901c905060018184816121d7576121d761304f565b048201901c905060018184816121ef576121ef61304f565b048201901c905060018184816122075761220761304f565b048201901c9050600181848161221f5761221f61304f565b048201901c9050610a9c818285816122395761223961304f565b04612141565b600082600019048411830215820261225657600080fd5b50910281810615159190040190565b6001600160a01b03831660009081526003602052604081208054839190839061228f9084906130a0565b90915550506001600160a01b0380841660008181526003602052604090819020805486019055519091861690600080516020613559833981519152906122d89086815260200190565b60405180910390a35060019392505050565b600080600080600085875af190508061233b5760405162461bcd60e51b815260206004820152601360248201527211551217d514905394d1915497d19052531151606a1b6044820152606401610b1a565b505050565b600060405163a9059cbb60e01b8152836004820152826024820152602060006044836000895af13d15601f3d11600160005114161716915050806123b85760405162461bcd60e51b815260206004820152600f60248201526e1514905394d1915497d19052531151608a1b6044820152606401610b1a565b50505050565b60006040516323b872dd60e01b81528460048201528360248201528260448201526020600060648360008a5af13d15601f3d11600160005114161716915050806124415760405162461bcd60e51b81526020600482015260146024820152731514905394d1915497d19493d357d1905253115160621b6044820152606401610b1a565b5050505050565b60007f00000000000000000000000000000000000000000000000000000000000000006001600160a01b031615612501576040516370a0823160e01b81523060048201527f00000000000000000000000000000000000000000000000000000000000000006001600160a01b0316906370a0823190602401602060405180830381865afa1580156124dd573d6000803e3d6000fd5b505050506040513d601f19601f820116820180604052508101906111799190613009565b61117934476130a0565b6001600160a01b038216600090815260036020526040812080548392906125339084906130a0565b90915550506002805482900390556040518181526000906001600160a01b03841690600080516020613559833981519152906020015b60405180910390a35050565b7f0000000000000000000000000000000000000000000000000000000000000000156123b85760005b838110156124415760006126538484848181106125bd576125bd613171565b90506020028101906125cf91906132fa565b7f000000000000000000000000000000000000000000000000000000000000000089898781811061260257612602613171565b9050602002013560405160200161261b91815260200190565b60408051601f198184030181528282528051602091820120908301520160405160208183030381529060405280519060200120612947565b9050806126995760405162461bcd60e51b815260206004820152601460248201527324b73b30b634b21036b2b935b63290383937b7b360611b6044820152606401610b1a565b5060010161259e565b60007f00000000000000000000000000000000000000000000000000000000000000006001600160a01b031663358602f76040518163ffffffff1660e01b8152600401602060405180830381865afa158015612702573d6000803e3d6000fd5b505050506040513d601f19601f820116820180604052508101906127269190613154565b90506001600160a01b03811661273c57506123b8565b604051638a4fa05b60e01b81526001600160a01b03821690638a4fa05b90612790907f00000000000000000000000000000000000000000000000000000000000000009089908990899089906004016133b1565b60006040518083038186803b1580156127a857600080fd5b505afa1580156127bc573d6000803e3d6000fd5b505050505050505050565b80600260008282546127d99190613079565b90915550506001600160a01b0382166000818152600360209081526040808320805486019055518481526000805160206135598339815191529101612569565b60007f8b73c3c69bb8fe3d512ecc4cf759cc79239f7b179b0ffacaa9a75d522b39400f600060405161284b91906134b9565b6040805191829003822060208301939093528101919091527fc89efdaa54c0f20c7adf612882df0950f5a951637e0307cdcb4c672f298b8bc660608201524660808201523060a082015260c00160405160208183030381529060405280519060200120905090565b600080608083901c156128c857608092831c92015b604083901c156128da57604092831c92015b602083901c156128ec57602092831c92015b601083901c156128fe57601092831c92015b600883901c1561291057600892831c92015b600483901c1561292257600492831c92015b600283901c1561293457600292831c92015b600183901c15610a0a5760010192915050565b60008315612979578360051b8501855b803580851160051b948552602094851852604060002093018181106129575750505b501492915050565b60006020828403121561299357600080fd5b5035919050565b600060208083528351808285015260005b818110156129c7578581018301518582016040015282016129ab565b506000604082860101526040601f19601f8301168501019250505092915050565b6001600160a01b03811681146129fd57600080fd5b50565b60008060408385031215612a1357600080fd5b8235612a1e816129e8565b946020939093013593505050565b600080600060608486031215612a4157600080fd5b505081359360208301359350604090920135919050565b600080600080600060808688031215612a7057600080fd5b8535612a7b816129e8565b94506020860135612a8b816129e8565b93506040860135925060608601356001600160401b0380821115612aae57600080fd5b818801915088601f830112612ac257600080fd5b813581811115612ad157600080fd5b896020828501011115612ae357600080fd5b9699959850939650602001949392505050565b60008060008060808587031215612b0c57600080fd5b5050823594602084013594506040840135936060013592509050565b60008060008060008060c08789031215612b4157600080fd5b505084359660208601359650604086013595606081013595506080810135945060a0013592509050565b600080600060608486031215612b8057600080fd5b8335612b8b816129e8565b92506020840135612b9b816129e8565b929592945050506040919091013590565b60008083601f840112612bbe57600080fd5b5081356001600160401b03811115612bd557600080fd5b6020830191508360208260051b8501011115612bf057600080fd5b9250929050565b80358015158114612c0757600080fd5b919050565b600080600060408486031215612c2157600080fd5b83356001600160401b03811115612c3757600080fd5b612c4386828701612bac565b9094509250612c56905060208501612bf7565b90509250925092565b60008060008060608587031215612c7557600080fd5b84356001600160401b03811115612c8b57600080fd5b612c9787828801612bac565b90989097506020870135966040013595509350505050565b60008060008060008060608789031215612cc857600080fd5b86356001600160401b0380821115612cdf57600080fd5b612ceb8a838b01612bac565b90985096506020890135915080821115612d0457600080fd5b612d108a838b01612bac565b90965094506040890135915080821115612d2957600080fd5b50612d3689828a01612bac565b979a9699509497509295939492505050565b60008060008060008060a08789031215612d6157600080fd5b86359550602087013594506040870135935060608701356001600160401b03811115612d8c57600080fd5b612d9889828a01612bac565b9094509250612dab905060808801612bf7565b90509295509295509295565b60008060008060008060008060008060006101008c8e031215612dd957600080fd5b8b359a506001600160401b038060208e01351115612df657600080fd5b612e068e60208f01358f01612bac565b909b50995060408d0135985060608d0135975060808d0135965060a08d0135955060c08d0135811015612e3857600080fd5b612e488e60c08f01358f01612bac565b909550935060e08d0135811015612e5e57600080fd5b50612e6f8d60e08e01358e01612bac565b81935080925050509295989b509295989b9093969950565b60008060008060008060008060a0898b031215612ea357600080fd5b88356001600160401b0380821115612eba57600080fd5b612ec68c838d01612bac565b909a50985060208b0135975060408b0135965060608b0135915080821115612eed57600080fd5b612ef98c838d01612bac565b909650945060808b0135915080821115612f1257600080fd5b50612f1f8b828c01612bac565b999c989b5096995094979396929594505050565b600060208284031215612f4557600080fd5b8135610a9c816129e8565b60ff811681146129fd57600080fd5b600080600080600080600060e0888a031215612f7a57600080fd5b8735612f85816129e8565b96506020880135612f95816129e8565b955060408801359450606088013593506080880135612fb381612f50565b9699959850939692959460a0840135945060c09093013592915050565b60008060408385031215612fe357600080fd5b8235612fee816129e8565b91506020830135612ffe816129e8565b809150509250929050565b60006020828403121561301b57600080fd5b5051919050565b634e487b7160e01b600052601160045260246000fd5b8082028115828204841417610a0a57610a0a613022565b634e487b7160e01b600052601260045260246000fd5b6000826130745761307461304f565b500490565b80820180821115610a0a57610a0a613022565b60008261309b5761309b61304f565b500690565b81810381811115610a0a57610a0a613022565b600181811c908216806130c757607f821691505b6020821081036130e757634e487b7160e01b600052602260045260246000fd5b50919050565b602080825260079082015266115e1c1a5c995960ca1b604082015260600190565b6001600160a01b03929092168252602082015260400190565b602080825260139082015272125b9d985b1a5908195d1a195c881a5b9c1d5d606a1b604082015260600190565b60006020828403121561316657600080fd5b8151610a9c816129e8565b634e487b7160e01b600052603260045260246000fd5b6001600160a01b039384168152919092166020820152604081019190915260600190565b60006001600160fb1b038311156131c157600080fd5b8260051b80858437919091019392505050565b6000602082840312156131e657600080fd5b8151610a9c81612f50565b60ff8281168282160390811115610a0a57610a0a613022565b600181815b8085111561324557816000190482111561322b5761322b613022565b8085161561323857918102915b93841c939080029061320f565b509250929050565b60008261325c57506001610a0a565b8161326957506000610a0a565b816001811461327f5760028114613289576132a5565b6001915050610a0a565b60ff84111561329a5761329a613022565b50506001821b610a0a565b5060208310610133831016604e8410600b84101617156132c8575081810a610a0a565b6132d2838361320a565b80600019048211156132e6576132e6613022565b029392505050565b6000610a9c838361324d565b6000808335601e1984360301811261331157600080fd5b8301803591506001600160401b0382111561332b57600080fd5b6020019150600581901b3603821315612bf057600080fd5b6000808335601e1984360301811261335a57600080fd5b83016020810192503590506001600160401b0381111561337957600080fd5b803603821315612bf057600080fd5b81835281816020850137506000828201602090810191909152601f909101601f19169091010190565b6001600160a01b0386168152606060208083018290528282018690526000919060806001600160fb1b038811156133e757600080fd5b8760051b808a838801378501858103820160408088019190915282820188905260a0600589901b83018101919083018a6000805b8c8110156134a457868603609f190184528235368f9003607e19018112613440578283fd5b8e01803587526134528a820182613343565b8a8c8a01526134648b8a018284613388565b915050868201358789015261347b8c830183613343565b92508882038d8a015261348f828483613388565b9850505093890193509188019160010161341b565b50939f9e505050505050505050505050505050565b600080835481600182811c9150808316806134d557607f831692505b602080841082036134f457634e487b7160e01b86526022600452602486fd5b818015613508576001811461351d5761354a565b60ff198616895284151585028901965061354a565b60008a81526020902060005b868110156135425781548b820152908501908301613529565b505084890196505b50949897505050505050505056feddf252ad1be2c89b69c2b068fc378daa952ba7f163c4a11628f55a4df523b3efa26469706673582212203b7c945c93d6a1a594c3029bd0da9a2cd12dc6cdc51b414924b1ac445cb65a6464736f6c6343000811003360e06040523480156200001157600080fd5b50604051620011d2380380620011d28339810160408190526200003491620001d5565b806040516020016200004791906200028d565b60405160208183030381529060405281604051602001620000699190620002bc565b60408051601f1981840301815290829052600080546001600160a01b03191633908117825591926012929182917f8be0079c531659141344cd1fd0a4f28419497f9722a3daafe3b4186f6b6457e0908290a3506001620000ca848262000378565b506002620000d9838262000378565b5060ff81166080524660a052620000ef620000fd565b60c05250620004c292505050565b60007f8b73c3c69bb8fe3d512ecc4cf759cc79239f7b179b0ffacaa9a75d522b39400f600160405162000131919062000444565b6040805191829003822060208301939093528101919091527fc89efdaa54c0f20c7adf612882df0950f5a951637e0307cdcb4c672f298b8bc660608201524660808201523060a082015260c00160405160208183030381529060405280519060200120905090565b634e487b7160e01b600052604160045260246000fd5b60005b83811015620001cc578181015183820152602001620001b2565b50506000910152565b600060208284031215620001e857600080fd5b81516001600160401b03808211156200020057600080fd5b818401915084601f8301126200021557600080fd5b8151818111156200022a576200022a62000199565b604051601f8201601f19908116603f0116810190838211818310171562000255576200025562000199565b816040528281528760208487010111156200026f57600080fd5b62000282836020830160208801620001af565b979650505050505050565b60008251620002a1818460208701620001af565b68102628103a37b5b2b760b91b920191825250600901919050565b624c502d60e81b815260008251620002dc816003850160208701620001af565b9190910160030192915050565b600181811c90821680620002fe57607f821691505b6020821081036200031f57634e487b7160e01b600052602260045260246000fd5b50919050565b601f8211156200037357600081815260208120601f850160051c810160208610156200034e5750805b601f850160051c820191505b818110156200036f578281556001016200035a565b5050505b505050565b81516001600160401b0381111562000394576200039462000199565b620003ac81620003a58454620002e9565b8462000325565b602080601f831160018114620003e45760008415620003cb5750858301515b600019600386901b1c1916600185901b1785556200036f565b600085815260208120601f198616915b828110156200041557888601518255948401946001909101908401620003f4565b5085821015620004345787850151600019600388901b60f8161c191681555b5050505050600190811b01905550565b60008083546200045481620002e9565b600182811680156200046f57600181146200048557620004b6565b60ff1984168752821515830287019450620004b6565b8760005260208060002060005b85811015620004ad5781548a82015290840190820162000492565b50505082870194505b50929695505050505050565b60805160a05160c051610ce0620004f260003960006104a40152600061046f015260006101550152610ce06000f3fe608060405234801561001057600080fd5b50600436106100e05760003560e01c80637ecebe00116100875780637ecebe00146101c65780638da5cb5b146101e657806395d89b41146102115780639dc29fac14610219578063a9059cbb1461022c578063d505accf1461023f578063dd62ed3e14610252578063f2fde38b1461027d57600080fd5b806306fdde03146100e5578063095ea7b31461010357806318160ddd1461012657806323b872dd1461013d578063313ce567146101505780633644e5151461018957806340c10f191461019157806370a08231146101a6575b600080fd5b6100ed610290565b6040516100fa91906109b7565b60405180910390f35b610116610111366004610a21565b61031e565b60405190151581526020016100fa565b61012f60035481565b6040519081526020016100fa565b61011661014b366004610a4b565b61038b565b6101777f000000000000000000000000000000000000000000000000000000000000000081565b60405160ff90911681526020016100fa565b61012f61046b565b6101a461019f366004610a21565b6104c6565b005b61012f6101b4366004610a87565b60046020526000908152604090205481565b61012f6101d4366004610a87565b60066020526000908152604090205481565b6000546101f9906001600160a01b031681565b6040516001600160a01b0390911681526020016100fa565b6100ed610507565b6101a4610227366004610a21565b610514565b61011661023a366004610a21565b610548565b6101a461024d366004610aa9565b6105ae565b61012f610260366004610b1c565b600560209081526000928352604080842090915290825290205481565b6101a461028b366004610a87565b6107ec565b6001805461029d90610b4f565b80601f01602080910402602001604051908101604052809291908181526020018280546102c990610b4f565b80156103165780601f106102eb57610100808354040283529160200191610316565b820191906000526020600020905b8154815290600101906020018083116102f957829003601f168201915b505050505081565b3360008181526005602090815260408083206001600160a01b038716808552925280832085905551919290917f8c5be1e5ebec7d5bd14f71427d1e84f3dd0314c0f7b2291e5b200ac8c7c3b925906103799086815260200190565b60405180910390a35060015b92915050565b6001600160a01b038316600090815260056020908152604080832033845290915281205460001981146103e7576103c28382610b9f565b6001600160a01b03861660009081526005602090815260408083203384529091529020555b6001600160a01b0385166000908152600460205260408120805485929061040f908490610b9f565b90915550506001600160a01b0380851660008181526004602052604090819020805487019055519091871690600080516020610c8b833981519152906104589087815260200190565b60405180910390a3506001949350505050565b60007f000000000000000000000000000000000000000000000000000000000000000046146104a15761049c610861565b905090565b507f000000000000000000000000000000000000000000000000000000000000000090565b6000546001600160a01b031633146104f95760405162461bcd60e51b81526004016104f090610bb2565b60405180910390fd5b61050382826108fb565b5050565b6002805461029d90610b4f565b6000546001600160a01b0316331461053e5760405162461bcd60e51b81526004016104f090610bb2565b6105038282610955565b33600090815260046020526040812080548391908390610569908490610b9f565b90915550506001600160a01b03831660008181526004602052604090819020805485019055513390600080516020610c8b833981519152906103799086815260200190565b428410156105f85760405162461bcd60e51b815260206004820152601760248201527614115493525517d11150511312539157d1561412549151604a1b60448201526064016104f0565b6000600161060461046b565b6001600160a01b038a811660008181526006602090815260409182902080546001810190915582517f6e71edae12b1b97f4d1f60370fef10105fa2faae0126114a169c64845d6126c98184015280840194909452938d166060840152608083018c905260a083019390935260c08083018b90528151808403909101815260e08301909152805192019190912061190160f01b6101008301526101028201929092526101228101919091526101420160408051601f198184030181528282528051602091820120600084529083018083525260ff871690820152606081018590526080810184905260a0016020604051602081039080840390855afa158015610710573d6000803e3d6000fd5b5050604051601f1901519150506001600160a01b038116158015906107465750876001600160a01b0316816001600160a01b0316145b6107835760405162461bcd60e51b815260206004820152600e60248201526d24a72b20a624a22fa9a4a3a722a960911b60448201526064016104f0565b6001600160a01b0390811660009081526005602090815260408083208a8516808552908352928190208990555188815291928a16917f8c5be1e5ebec7d5bd14f71427d1e84f3dd0314c0f7b2291e5b200ac8c7c3b925910160405180910390a350505050505050565b6000546001600160a01b031633146108165760405162461bcd60e51b81526004016104f090610bb2565b600080546001600160a01b0319166001600160a01b0383169081178255604051909133917f8be0079c531659141344cd1fd0a4f28419497f9722a3daafe3b4186f6b6457e09190a350565b60007f8b73c3c69bb8fe3d512ecc4cf759cc79239f7b179b0ffacaa9a75d522b39400f60016040516108939190610bd8565b6040805191829003822060208301939093528101919091527fc89efdaa54c0f20c7adf612882df0950f5a951637e0307cdcb4c672f298b8bc660608201524660808201523060a082015260c00160405160208183030381529060405280519060200120905090565b806003600082825461090d9190610c77565b90915550506001600160a01b038216600081815260046020908152604080832080548601905551848152600080516020610c8b83398151915291015b60405180910390a35050565b6001600160a01b0382166000908152600460205260408120805483929061097d908490610b9f565b90915550506003805482900390556040518181526000906001600160a01b03841690600080516020610c8b83398151915290602001610949565b600060208083528351808285015260005b818110156109e4578581018301518582016040015282016109c8565b506000604082860101526040601f19601f8301168501019250505092915050565b80356001600160a01b0381168114610a1c57600080fd5b919050565b60008060408385031215610a3457600080fd5b610a3d83610a05565b946020939093013593505050565b600080600060608486031215610a6057600080fd5b610a6984610a05565b9250610a7760208501610a05565b9150604084013590509250925092565b600060208284031215610a9957600080fd5b610aa282610a05565b9392505050565b600080600080600080600060e0888a031215610ac457600080fd5b610acd88610a05565b9650610adb60208901610a05565b95506040880135945060608801359350608088013560ff81168114610aff57600080fd5b9699959850939692959460a0840135945060c09093013592915050565b60008060408385031215610b2f57600080fd5b610b3883610a05565b9150610b4660208401610a05565b90509250929050565b600181811c90821680610b6357607f821691505b602082108103610b8357634e487b7160e01b600052602260045260246000fd5b50919050565b634e487b7160e01b600052601160045260246000fd5b8181038181111561038557610385610b89565b6020808252600c908201526b15539055551213d49256915160a21b604082015260600190565b600080835481600182811c915080831680610bf457607f831692505b60208084108203610c1357634e487b7160e01b86526022600452602486fd5b818015610c275760018114610c3c57610c69565b60ff1986168952841515850289019650610c69565b60008a81526020902060005b86811015610c615781548b820152908501908301610c48565b505084890196505b509498975050505050505050565b8082018082111561038557610385610b8956feddf252ad1be2c89b69c2b068fc378daa952ba7f163c4a11628f55a4df523b3efa264697066735822122036b688fa52d230e612f019352cd75cd63d5f5143501e6b731efc36e77f3370ee64736f6c63430008110033a2646970667358221220a554ffe70389f9a69e07f7610c389d00f3ff891fbb698d5902d412c55ca9615d64736f6c63430008110033","linkReferences":{}},"methodIdentifiers":{"create(address,address,bytes32)":"d1692f56","destroy(address,address,bytes32)":"505fe152","owner()":"8da5cb5b","pairs(address,address,bytes32)":"b3c3b304","setStolenNftFilterOracle(address)":"8f338537","stolenNftFilterOracle()":"358602f7","transferOwnership(address)":"f2fde38b"},"id":55}