{"abi":[{"type":"constructor","inputs":[{"name":"name","type":"string","internalType":"string"},{"name":"symbol","type":"string","internalType":"string"},{"name":"baseUri_","type":"string","internalType":"string"}],"stateMutability":"nonpayable"},{"type":"function","name":"approve","inputs":[{"name":"to","type":"address","internalType":"address"},{"name":"tokenId","type":"uint256","internalType":"uint256"}],"outputs":[],"stateMutability":"payable"},{"type":"function","name":"balanceOf","inputs":[{"name":"owner","type":"address","internalType":"address"}],"outputs":[{"name":"","type":"uint256","internalType":"uint256"}],"stateMutability":"view"},{"type":"function","name":"baseUri","inputs":[],"outputs":[{"name":"","type":"string","internalType":"string"}],"stateMutability":"view"},{"type":"function","name":"getApproved","inputs":[{"name":"tokenId","type":"uint256","internalType":"uint256"}],"outputs":[{"name":"","type":"address","internalType":"address"}],"stateMutability":"view"},{"type":"function","name":"isApprovedForAll","inputs":[{"name":"owner","type":"address","internalType":"address"},{"name":"operator","type":"address","internalType":"address"}],"outputs":[{"name":"","type":"bool","internalType":"bool"}],"stateMutability":"view"},{"type":"function","name":"mint","inputs":[{"name":"to","type":"address","internalType":"address"},{"name":"quantity","type":"uint256","internalType":"uint256"}],"outputs":[],"stateMutability":"nonpayable"},{"type":"function","name":"name","inputs":[],"outputs":[{"name":"","type":"string","internalType":"string"}],"stateMutability":"view"},{"type":"function","name":"owner","inputs":[],"outputs":[{"name":"","type":"address","internalType":"address"}],"stateMutability":"view"},{"type":"function","name":"ownerOf","inputs":[{"name":"tokenId","type":"uint256","internalType":"uint256"}],"outputs":[{"name":"","type":"address","internalType":"address"}],"stateMutability":"view"},{"type":"function","name":"royaltyInfo","inputs":[{"name":"tokenId","type":"uint256","internalType":"uint256"},{"name":"salePrice","type":"uint256","internalType":"uint256"}],"outputs":[{"name":"","type":"address","internalType":"address"},{"name":"","type":"uint256","internalType":"uint256"}],"stateMutability":"view"},{"type":"function","name":"safeTransferFrom","inputs":[{"name":"from","type":"address","internalType":"address"},{"name":"to","type":"address","internalType":"address"},{"name":"tokenId","type":"uint256","internalType":"uint256"}],"outputs":[],"stateMutability":"payable"},{"type":"function","name":"safeTransferFrom","inputs":[{"name":"from","type":"address","internalType":"address"},{"name":"to","type":"address","internalType":"address"},{"name":"tokenId","type":"uint256","internalType":"uint256"},{"name":"_data","type":"bytes","internalType":"bytes"}],"outputs":[],"stateMutability":"payable"},{"type":"function","name":"setApprovalForAll","inputs":[{"name":"operator","type":"address","internalType":"address"},{"name":"approved","type":"bool","internalType":"bool"}],"outputs":[],"stateMutability":"nonpayable"},{"type":"function","name":"supportsInterface","inputs":[{"name":"interfaceId","type":"bytes4","internalType":"bytes4"}],"outputs":[{"name":"","type":"bool","internalType":"bool"}],"stateMutability":"view"},{"type":"function","name":"symbol","inputs":[],"outputs":[{"name":"","type":"string","internalType":"string"}],"stateMutability":"view"},{"type":"function","name":"tokenURI","inputs":[{"name":"tokenId","type":"uint256","internalType":"uint256"}],"outputs":[{"name":"","type":"string","internalType":"string"}],"stateMutability":"view"},{"type":"function","name":"totalSupply","inputs":[],"outputs":[{"name":"","type":"uint256","internalType":"uint256"}],"stateMutability":"view"},{"type":"function","name":"transferFrom","inputs":[{"name":"from","type":"address","internalType":"address"},{"name":"to","type":"address","internalType":"address"},{"name":"tokenId","type":"uint256","internalType":"uint256"}],"outputs":[],"stateMutability":"payable"},{"type":"event","name":"Approval","inputs":[{"name":"owner","type":"address","indexed":true,"internalType":"address"},{"name":"approved","type":"address","indexed":true,"internalType":"address"},{"name":"tokenId","type":"uint256","indexed":true,"internalType":"uint256"}],"anonymous":false},{"type":"event","name":"ApprovalForAll","inputs":[{"name":"owner","type":"address","indexed":true,"internalType":"address"},{"name":"operator","type":"address","indexed":true,"internalType":"address"},{"name":"approved","type":"bool","indexed":false,"internalType":"bool"}],"anonymous":false},{"type":"event","name":"ConsecutiveTransfer","inputs":[{"name":"fromTokenId","type":"uint256","indexed":true,"internalType":"uint256"},{"name":"toTokenId","type":"uint256","indexed":false,"internalType":"uint256"},{"name":"from","type":"address","indexed":true,"internalType":"address"},{"name":"to","type":"address","indexed":true,"internalType":"address"}],"anonymous":false},{"type":"event","name":"Transfer","inputs":[{"name":"from","type":"address","indexed":true,"internalType":"address"},{"name":"to","type":"address","indexed":true,"internalType":"address"},{"name":"tokenId","type":"uint256","indexed":true,"internalType":"uint256"}],"anonymous":false},{"type":"error","name":"ApprovalCallerNotOwnerNorApproved","inputs":[]},{"type":"error","name":"ApprovalQueryForNonexistentToken","inputs":[]},{"type":"error","name":"BalanceQueryForZeroAddress","inputs":[]},{"type":"error","name":"MintERC2309QuantityExceedsLimit","inputs":[]},{"type":"error","name":"MintToZeroAddress","inputs":[]},{"type":"error","name":"MintZeroQuantity","inputs":[]},{"type":"error","name":"OwnerQueryForNonexistentToken","inputs":[]},{"type":"error","name":"OwnershipNotInitializedForExtraData","inputs":[]},{"type":"error","name":"TransferCallerNotOwnerNorApproved","inputs":[]},{"type":"error","name":"TransferFromIncorrectOwner","inputs":[]},{"type":"error","name":"TransferToNonERC721ReceiverImplementer","inputs":[]},{"type":"error","name":"TransferToZeroAddress","inputs":[]},{"type":"error","name":"URIQueryForNonexistentToken","inputs":[]}],"bytecode":{"object":"0x60a06040523480156200001157600080fd5b50604051620013c3380380620013c383398101604081905262000034916200013c565b828260026200004483826200025c565b5060036200005382826200025c565b50506000805550600a6200006882826200025c565b50503360805250620003289050565b634e487b7160e01b600052604160045260246000fd5b600082601f8301126200009f57600080fd5b81516001600160401b0380821115620000bc57620000bc62000077565b604051601f8301601f19908116603f01168101908282118183101715620000e757620000e762000077565b816040528381526020925086838588010111156200010457600080fd5b600091505b8382101562000128578582018301518183018401529082019062000109565b600093810190920192909252949350505050565b6000806000606084860312156200015257600080fd5b83516001600160401b03808211156200016a57600080fd5b62000178878388016200008d565b945060208601519150808211156200018f57600080fd5b6200019d878388016200008d565b93506040860151915080821115620001b457600080fd5b50620001c3868287016200008d565b9150509250925092565b600181811c90821680620001e257607f821691505b6020821081036200020357634e487b7160e01b600052602260045260246000fd5b50919050565b601f8211156200025757600081815260208120601f850160051c81016020861015620002325750805b601f850160051c820191505b8181101562000253578281556001016200023e565b5050505b505050565b81516001600160401b0381111562000278576200027862000077565b6200029081620002898454620001cd565b8462000209565b602080601f831160018114620002c85760008415620002af5750858301515b600019600386901b1c1916600185901b17855562000253565b600085815260208120601f198616915b82811015620002f957888601518255948401946001909101908401620002d8565b5085821015620003185787850151600019600388901b60f8161c191681555b5050505050600190811b01905550565b6080516110786200034b6000396000818161028c015261065d01526110786000f3fe6080604052600436106100e95760003560e01c80636352211e116100855780636352211e1461023a57806370a082311461025a5780638da5cb5b1461027a57806395d89b41146102ae5780639abc8320146102c3578063a22cb465146102d8578063b88d4fde146102f8578063c87b56dd1461030b578063e985e9c51461032b57600080fd5b806301ffc9a7146100ee57806306fdde0314610123578063081812fc14610145578063095ea7b31461017d57806318160ddd1461019257806323b872dd146101b55780632a55205a146101c857806340c10f191461020757806342842e0e14610227575b600080fd5b3480156100fa57600080fd5b5061010e610109366004610bc8565b61034b565b60405190151581526020015b60405180910390f35b34801561012f57600080fd5b5061013861035c565b60405161011a9190610c35565b34801561015157600080fd5b50610165610160366004610c48565b6103ee565b6040516001600160a01b03909116815260200161011a565b61019061018b366004610c7d565b610432565b005b34801561019e57600080fd5b50600154600054035b60405190815260200161011a565b6101906101c3366004610ca7565b6104d2565b3480156101d457600080fd5b506101e86101e3366004610ce3565b610658565b604080516001600160a01b03909316835260208301919091520161011a565b34801561021357600080fd5b50610190610222366004610c7d565b61069f565b610190610235366004610ca7565b6106ad565b34801561024657600080fd5b50610165610255366004610c48565b6106cd565b34801561026657600080fd5b506101a7610275366004610d05565b6106d8565b34801561028657600080fd5b506101657f000000000000000000000000000000000000000000000000000000000000000081565b3480156102ba57600080fd5b50610138610727565b3480156102cf57600080fd5b50610138610736565b3480156102e457600080fd5b506101906102f3366004610d20565b6107c4565b610190610306366004610d72565b610830565b34801561031757600080fd5b50610138610326366004610c48565b61087a565b34801561033757600080fd5b5061010e610346366004610e4e565b6108ae565b6000610356826108dc565b92915050565b60606002805461036b90610e81565b80601f016020809104026020016040519081016040528092919081815260200182805461039790610e81565b80156103e45780601f106103b9576101008083540402835291602001916103e4565b820191906000526020600020905b8154815290600101906020018083116103c757829003601f168201915b5050505050905090565b60006103f982610911565b610416576040516333d1c03960e21b815260040160405180910390fd5b506000908152600660205260409020546001600160a01b031690565b600061043d826106cd565b9050336001600160a01b038216146104765761045981336108ae565b610476576040516367d9dca160e11b815260040160405180910390fd5b60008281526006602052604080822080546001600160a01b0319166001600160a01b0387811691821790925591518593918516917f8c5be1e5ebec7d5bd14f71427d1e84f3dd0314c0f7b2291e5b200ac8c7c3b92591a4505050565b60006104dd82610938565b9050836001600160a01b0316816001600160a01b0316146105105760405162a1148160e81b815260040160405180910390fd5b60008281526006602052604090208054338082146001600160a01b0388169091141761055d5761054086336108ae565b61055d57604051632ce44b5f60e11b815260040160405180910390fd5b6001600160a01b03851661058457604051633a954ecd60e21b815260040160405180910390fd5b801561058f57600082555b6001600160a01b038681166000908152600560205260408082208054600019019055918716808252919020805460010190554260a01b17600160e11b17600085815260046020526040812091909155600160e11b841690036106215760018401600081815260046020526040812054900361061f57600054811461061f5760008181526004602052604090208490555b505b83856001600160a01b0316876001600160a01b031660008051602061102383398151915260405160405180910390a4505050505050565b6000807f000000000000000000000000000000000000000000000000000000000000000061271061068a8560fa610ebb565b6106949190610ee0565b915091509250929050565b6106a982826109a6565b5050565b6106c883838360405180602001604052806000815250610830565b505050565b600061035682610938565b60006001600160a01b038216610701576040516323d3ad8160e21b815260040160405180910390fd5b506001600160a01b031660009081526005602052604090205467ffffffffffffffff1690565b60606003805461036b90610e81565b600a805461074390610e81565b80601f016020809104026020016040519081016040528092919081815260200182805461076f90610e81565b80156107bc5780601f10610791576101008083540402835291602001916107bc565b820191906000526020600020905b81548152906001019060200180831161079f57829003601f168201915b505050505081565b3360008181526007602090815260408083206001600160a01b03871680855290835292819020805460ff191686151590811790915590519081529192917f17307eab39ab6107e8899845ad3d59bd9653f200f220920489ca2b5937696c31910160405180910390a35050565b61083b8484846104d2565b6001600160a01b0383163b156108745761085784848484610a80565b610874576040516368d2bf6b60e11b815260040160405180910390fd5b50505050565b6060600a61088783610b6b565b604051602001610898929190610f1e565b6040516020818303038152906040529050919050565b6001600160a01b03918216600090815260076020908152604080832093909416825291909152205460ff1690565b60006001600160e01b0319821663152a902d60e11b148061035657506301ffc9a760e01b6001600160e01b0319831614610356565b6000805482108015610356575050600090815260046020526040902054600160e01b161590565b60008160005481101561098d5760008181526004602052604081205490600160e01b8216900361098b575b80600003610984575060001901600081815260046020526040902054610963565b9392505050565b505b604051636f96cda160e11b815260040160405180910390fd5b60008054908290036109cb5760405163b562e8dd60e01b815260040160405180910390fd5b6001600160a01b03831660008181526005602090815260408083208054680100000000000000018802019055848352600490915281206001851460e11b4260a01b178317905582840190839083906000805160206110238339815191528180a4600183015b818114610a565780836000600080516020611023833981519152600080a4600101610a30565b5081600003610a7757604051622e076360e81b815260040160405180910390fd5b60005550505050565b604051630a85bd0160e11b81526000906001600160a01b0385169063150b7a0290610ab5903390899088908890600401610fc8565b6020604051808303816000875af1925050508015610af0575060408051601f3d908101601f19168201909252610aed91810190611005565b60015b610b4e573d808015610b1e576040519150601f19603f3d011682016040523d82523d6000602084013e610b23565b606091505b508051600003610b46576040516368d2bf6b60e11b815260040160405180910390fd5b805181602001fd5b6001600160e01b031916630a85bd0160e11b149050949350505050565b606060a06040510180604052602081039150506000815280825b600183039250600a81066030018353600a900480610b855750819003601f19909101908152919050565b6001600160e01b031981168114610bc557600080fd5b50565b600060208284031215610bda57600080fd5b813561098481610baf565b60005b83811015610c00578181015183820152602001610be8565b50506000910152565b60008151808452610c21816020860160208601610be5565b601f01601f19169290920160200192915050565b6020815260006109846020830184610c09565b600060208284031215610c5a57600080fd5b5035919050565b80356001600160a01b0381168114610c7857600080fd5b919050565b60008060408385031215610c9057600080fd5b610c9983610c61565b946020939093013593505050565b600080600060608486031215610cbc57600080fd5b610cc584610c61565b9250610cd360208501610c61565b9150604084013590509250925092565b60008060408385031215610cf657600080fd5b50508035926020909101359150565b600060208284031215610d1757600080fd5b61098482610c61565b60008060408385031215610d3357600080fd5b610d3c83610c61565b915060208301358015158114610d5157600080fd5b809150509250929050565b634e487b7160e01b600052604160045260246000fd5b60008060008060808587031215610d8857600080fd5b610d9185610c61565b9350610d9f60208601610c61565b925060408501359150606085013567ffffffffffffffff80821115610dc357600080fd5b818701915087601f830112610dd757600080fd5b813581811115610de957610de9610d5c565b604051601f8201601f19908116603f01168101908382118183101715610e1157610e11610d5c565b816040528281528a6020848701011115610e2a57600080fd5b82602086016020830137600060208483010152809550505050505092959194509250565b60008060408385031215610e6157600080fd5b610e6a83610c61565b9150610e7860208401610c61565b90509250929050565b600181811c90821680610e9557607f821691505b602082108103610eb557634e487b7160e01b600052602260045260246000fd5b50919050565b808202811582820484141761035657634e487b7160e01b600052601160045260246000fd5b600082610efd57634e487b7160e01b600052601260045260246000fd5b500490565b60008151610f14818560208601610be5565b9290920192915050565b600080845481600182811c915080831680610f3a57607f831692505b60208084108203610f5957634e487b7160e01b86526022600452602486fd5b818015610f6d5760018114610f8257610faf565b60ff1986168952841515850289019650610faf565b60008b81526020902060005b86811015610fa75781548b820152908501908301610f8e565b505084890196505b505050505050610fbf8185610f02565b95945050505050565b6001600160a01b0385811682528416602082015260408101839052608060608201819052600090610ffb90830184610c09565b9695505050505050565b60006020828403121561101757600080fd5b815161098481610baf56feddf252ad1be2c89b69c2b068fc378daa952ba7f163c4a11628f55a4df523b3efa264697066735822122001cd0751d99cec1f8fdd748bfdbf934f59da56f62f266051c5a2eb91fe9cd41464736f6c63430008110033","linkReferences":{}},"methodIdentifiers":{"approve(address,uint256)":"095ea7b3","balanceOf(address)":"70a08231","baseUri()":"9abc8320","getApproved(uint256)":"081812fc","isApprovedForAll(address,address)":"e985e9c5","mint(address,uint256)":"40c10f19","name()":"06fdde03","owner()":"8da5cb5b","ownerOf(uint256)":"6352211e","royaltyInfo(uint256,uint256)":"2a55205a","safeTransferFrom(address,address,uint256)":"42842e0e","safeTransferFrom(address,address,uint256,bytes)":"b88d4fde","setApprovalForAll(address,bool)":"a22cb465","supportsInterface(bytes4)":"01ffc9a7","symbol()":"95d89b41","tokenURI(uint256)":"c87b56dd","totalSupply()":"18160ddd","transferFrom(address,address,uint256)":"23b872dd"},"id":50}