{"abi":[{"type":"receive","stateMutability":"payable"},{"type":"function","name":"buyAndAdd","inputs":[{"name":"pair","type":"address","internalType":"address"},{"name":"buyParams","type":"tuple","internalType":"struct CaviarZapRouter.BuyParams","components":[{"name":"outputAmount","type":"uint256","internalType":"uint256"},{"name":"maxInputAmount","type":"uint256","internalType":"uint256"},{"name":"deadline","type":"uint256","internalType":"uint256"}]},{"name":"addParams","type":"tuple","internalType":"struct CaviarZapRouter.AddParams","components":[{"name":"baseTokenAmount","type":"uint256","internalType":"uint256"},{"name":"fractionalTokenAmount","type":"uint256","internalType":"uint256"},{"name":"minLpTokenAmount","type":"uint256","internalType":"uint256"},{"name":"minPrice","type":"uint256","internalType":"uint256"},{"name":"maxPrice","type":"uint256","internalType":"uint256"},{"name":"deadline","type":"uint256","internalType":"uint256"}]}],"outputs":[{"name":"inputAmount","type":"uint256","internalType":"uint256"},{"name":"lpTokenAmount","type":"uint256","internalType":"uint256"}],"stateMutability":"payable"},{"type":"function","name":"onERC721Received","inputs":[{"name":"","type":"address","internalType":"address"},{"name":"","type":"address","internalType":"address"},{"name":"","type":"uint256","internalType":"uint256"},{"name":"","type":"bytes","internalType":"bytes"}],"outputs":[{"name":"","type":"bytes4","internalType":"bytes4"}],"stateMutability":"nonpayable"},{"type":"function","name":"removeAndSell","inputs":[{"name":"pair","type":"address","internalType":"address"},{"name":"removeParams","type":"tuple","internalType":"struct CaviarZapRouter.RemoveParams","components":[{"name":"lpTokenAmount","type":"uint256","internalType":"uint256"},{"name":"minBaseTokenOutputAmount","type":"uint256","internalType":"uint256"},{"name":"minFractionalTokenOutputAmount","type":"uint256","internalType":"uint256"},{"name":"deadline","type":"uint256","internalType":"uint256"}]},{"name":"sellParams","type":"tuple","internalType":"struct CaviarZapRouter.SellParams","components":[{"name":"inputAmount","type":"uint256","internalType":"uint256"},{"name":"minOutputAmount","type":"uint256","internalType":"uint256"},{"name":"deadline","type":"uint256","internalType":"uint256"}]}],"outputs":[{"name":"baseTokenOutputAmount","type":"uint256","internalType":"uint256"},{"name":"fractionalTokenOutputAmount","type":"uint256","internalType":"uint256"},{"name":"outputAmount","type":"uint256","internalType":"uint256"}],"stateMutability":"nonpayable"}],"bytecode":{"object":"0x608060405234801561001057600080fd5b5061078a806100206000396000f3fe6080604052600436106100385760003560e01c8063150b7a021461004457806355958bdc1461008e5780636d8f030b146100c957600080fd5b3661003f57005b600080fd5b34801561005057600080fd5b5061007061005f366004610574565b630a85bd0160e11b95945050505050565b6040516001600160e01b031990911681526020015b60405180910390f35b34801561009a57600080fd5b506100ae6100a936600461062b565b6100f1565b60408051938452602084019290925290820152606001610085565b6100dc6100d736600461067e565b6102f6565b60408051928352602083019190915201610085565b600080600080866001600160a01b0316635fcbd2856040518163ffffffff1660e01b8152600401602060405180830381865afa158015610135573d6000803e3d6000fd5b505050506040513d601f19601f8201168201806040525081019061015991906106d1565b6040516323b872dd60e01b8152336004820152306024820152873560448201529091506001600160a01b038216906323b872dd906064016020604051808303816000875af11580156101af573d6000803e3d6000fd5b505050506040513d601f19601f820116820180604052508101906101d391906106f5565b5060408051631ae74cdd60e01b81528735600482015260208801356024820152908701356044820152606087013560648201526001600160a01b03881690631ae74cdd9060840160408051808303816000875af1158015610238573d6000803e3d6000fd5b505050506040513d601f19601f8201168201806040525081019061025c9190610717565b604080516334f25c9f60e21b8152883560048201526020890135602482015290880135604482015291955093506001600160a01b0388169063d3c9727c906064016020604051808303816000875af11580156102bc573d6000803e3d6000fd5b505050506040513d601f19601f820116820180604052508101906102e0919061073b565b91506102ec3347610502565b5093509350939050565b6040805163204c9d9360e11b81528335600482015260208401356024820181905291840135604482015260009182916001600160a01b038716916340993b269160640160206040518083038185885af1158015610357573d6000803e3d6000fd5b50505050506040513d601f19601f8201168201806040525081019061037c919061073b565b60408051631d989f8360e01b81528535600482015260208601356024820152908501356044820152606085013560648201526080850135608482015260a085013560a48201529092506001600160a01b03861690631d989f8390479060c40160206040518083038185885af11580156103f9573d6000803e3d6000fd5b50505050506040513d601f19601f8201168201806040525081019061041e919061073b565b90506000856001600160a01b0316635fcbd2856040518163ffffffff1660e01b8152600401602060405180830381865afa158015610460573d6000803e3d6000fd5b505050506040513d601f19601f8201168201806040525081019061048491906106d1565b60405163a9059cbb60e01b8152336004820152602481018490529091506001600160a01b0382169063a9059cbb906044016020604051808303816000875af11580156104d4573d6000803e3d6000fd5b505050506040513d601f19601f820116820180604052508101906104f891906106f5565b5050935093915050565b600080600080600085875af19050806105575760405162461bcd60e51b815260206004820152601360248201527211551217d514905394d1915497d19052531151606a1b604482015260640160405180910390fd5b505050565b6001600160a01b038116811461057157600080fd5b50565b60008060008060006080868803121561058c57600080fd5b85356105978161055c565b945060208601356105a78161055c565b935060408601359250606086013567ffffffffffffffff808211156105cb57600080fd5b818801915088601f8301126105df57600080fd5b8135818111156105ee57600080fd5b89602082850101111561060057600080fd5b9699959850939650602001949392505050565b60006060828403121561062557600080fd5b50919050565b600080600083850361010081121561064257600080fd5b843561064d8161055c565b93506080601f198201121561066157600080fd5b506020840191506106758560a08601610613565b90509250925092565b600080600083850361014081121561069557600080fd5b84356106a08161055c565b93506106af8660208701610613565b925060c0607f19820112156106c357600080fd5b506080840190509250925092565b6000602082840312156106e357600080fd5b81516106ee8161055c565b9392505050565b60006020828403121561070757600080fd5b815180151581146106ee57600080fd5b6000806040838503121561072a57600080fd5b505080516020909101519092909150565b60006020828403121561074d57600080fd5b505191905056fea26469706673582212209e08d394996126e2469a0c0494dae8e2051e06b2a752daa9e29dd13de5b53d9964736f6c63430008110033","linkReferences":{}},"methodIdentifiers":{"buyAndAdd(address,(uint256,uint256,uint256),(uint256,uint256,uint256,uint256,uint256,uint256))":"6d8f030b","onERC721Received(address,address,uint256,bytes)":"150b7a02","removeAndSell(address,(uint256,uint256,uint256,uint256),(uint256,uint256,uint256))":"55958bdc"},"id":57}