{"abi":[{"type":"constructor","inputs":[{"name":"_caviar","type":"address","internalType":"address"}],"stateMutability":"nonpayable"},{"type":"function","name":"addLiquidityWithNFT","inputs":[{"name":"pair","type":"address","internalType":"address"},{"name":"baseTokenAmount","type":"uint256","internalType":"uint256"},{"name":"tokenIds","type":"uint256[]","internalType":"uint256[]"},{"name":"minLpTokenAmount","type":"uint256","internalType":"uint256"},{"name":"minPrice","type":"uint256","internalType":"uint256"},{"name":"maxPrice","type":"uint256","internalType":"uint256"},{"name":"deadline","type":"uint256","internalType":"uint256"},{"name":"proofs","type":"bytes32[][]","internalType":"bytes32[][]"},{"name":"messages","type":"tuple[]","internalType":"struct ReservoirOracle.Message[]","components":[{"name":"id","type":"bytes32","internalType":"bytes32"},{"name":"payload","type":"bytes","internalType":"bytes"},{"name":"timestamp","type":"uint256","internalType":"uint256"},{"name":"signature","type":"bytes","internalType":"bytes"}]}],"outputs":[{"name":"","type":"uint256","internalType":"uint256"}],"stateMutability":"payable"},{"type":"function","name":"approveNFT","inputs":[{"name":"nft","type":"address","internalType":"address"}],"outputs":[],"stateMutability":"nonpayable"},{"type":"function","name":"approveToken","inputs":[{"name":"token","type":"address","internalType":"address"},{"name":"amount","type":"uint256","internalType":"uint256"}],"outputs":[],"stateMutability":"nonpayable"},{"type":"function","name":"caviar","inputs":[],"outputs":[{"name":"","type":"address","internalType":"contract Caviar"}],"stateMutability":"view"},{"type":"function","name":"createNFTAndPair","inputs":[{"name":"_name","type":"string","internalType":"string"},{"name":"_symbol","type":"string","internalType":"string"},{"name":"baseURI","type":"string","internalType":"string"},{"name":"_maxSupply","type":"uint256","internalType":"uint256"},{"name":"baseToken","type":"address","internalType":"address"},{"name":"merkleRoot","type":"bytes32","internalType":"bytes32"}],"outputs":[{"name":"nftAddress","type":"address","internalType":"address"},{"name":"pairAddress","type":"address","internalType":"address"}],"stateMutability":"nonpayable"},{"type":"function","name":"isTokenApproved","inputs":[{"name":"user","type":"address","internalType":"address"},{"name":"token","type":"address","internalType":"address"}],"outputs":[{"name":"","type":"bool","internalType":"bool"}],"stateMutability":"view"},{"type":"function","name":"onERC721Received","inputs":[{"name":"","type":"address","internalType":"address"},{"name":"","type":"address","internalType":"address"},{"name":"","type":"uint256","internalType":"uint256"},{"name":"","type":"bytes","internalType":"bytes"}],"outputs":[{"name":"","type":"bytes4","internalType":"bytes4"}],"stateMutability":"nonpayable"}],"bytecode":{"object":"0x60a060405234801561001057600080fd5b5060405161339638038061339683398101604081905261002f91610040565b6001600160a01b0316608052610070565b60006020828403121561005257600080fd5b81516001600160a01b038116811461006957600080fd5b9392505050565b6080516133046100926000396000818161014301526108ce01526133046000f3fe608060405260043610620000685760003560e01c8063022fc88b146200006d57806311e9a95e1462000094578063150b7a0214620000e2578063217c1d68146200012f57806392175392146200017e57806395dbd31114620001a4578063ba7b128114620001ea575b600080fd5b3480156200007a57600080fd5b50620000926200008c36600462000990565b62000220565b005b348015620000a157600080fd5b5062000092620000b3366004620009bf565b336000908152602081815260408083206001600160a01b0394909416835292905220805460ff19166001179055565b348015620000ef57600080fd5b50620001116200010136600462000a78565b630a85bd0160e11b949350505050565b6040516001600160e01b031990911681526020015b60405180910390f35b3480156200013c57600080fd5b50620001657f000000000000000000000000000000000000000000000000000000000000000081565b6040516001600160a01b03909116815260200162000126565b620001956200018f36600462000b4e565b6200030e565b60405190815260200162000126565b348015620001b157600080fd5b50620001c9620001c336600462000c6a565b62000345565b604080516001600160a01b0393841681529290911660208301520162000126565b348015620001f757600080fd5b506200020f6200020936600462000d24565b62000372565b604051901515815260200162000126565b60405163095ea7b360e01b8152306004820152602481018290526001600160a01b0383169063095ea7b3906044016020604051808303816000875af11580156200026e573d6000803e3d6000fd5b505050506040513d601f19601f8201168201806040525081019062000294919062000d62565b620002de5760405162461bcd60e51b8152602060048201526015602482015274151bdad95b88185c1c1c9bdd985b0819985a5b1959605a1b60448201526064015b60405180910390fd5b50336000908152602081815260408083206001600160a01b0394909416835292905220805460ff19166001179055565b60006200031e8d8d8d8d6200039e565b620003348d8d8d8d8d8d8d8d8d8d8d8d6200077f565b9d9c50505050505050505050505050565b60008062000356888888886200080a565b915062000365828585620008b4565b9050965096945050505050565b6001600160a01b0391821660009081526020818152604080832093909416825291909152205460ff1690565b6000846001600160a01b03166347ccca026040518163ffffffff1660e01b8152600401602060405180830381865afa158015620003df573d6000803e3d6000fd5b505050506040513d601f19601f8201168201806040525081019062000405919062000d86565b90506000856001600160a01b031663c55dae636040518163ffffffff1660e01b8152600401602060405180830381865afa15801562000448573d6000803e3d6000fd5b505050506040513d601f19601f820116820180604052508101906200046e919062000d86565b90506200047c338362000372565b620004bd5760405162461bcd60e51b815260206004820152601060248201526f139195081b9bdd08185c1c1c9bdd995960821b6044820152606401620002d5565b6001600160a01b03811615620005e757620004d9338262000372565b620005215760405162461bcd60e51b815260206004820152601760248201527610985cd9481d1bdad95b881b9bdd08185c1c1c9bdd9959604a1b6044820152606401620002d5565b6040516323b872dd60e01b81526001600160a01b038216906323b872dd906200055390339030908a9060040162000da6565b6020604051808303816000875af115801562000573573d6000803e3d6000fd5b505050506040513d601f19601f8201168201806040525081019062000599919062000d62565b620005e75760405162461bcd60e51b815260206004820152601a60248201527f4261736520746f6b656e207472616e73666572206661696c65640000000000006044820152606401620002d5565b60005b838110156200068a57826001600160a01b03166342842e0e333088888681811062000619576200061962000dca565b905060200201356040518463ffffffff1660e01b8152600401620006409392919062000da6565b600060405180830381600087803b1580156200065b57600080fd5b505af115801562000670573d6000803e3d6000fd5b505050508080620006819062000de0565b915050620005ea565b5060405163a22cb46560e01b81526001600160a01b0387811660048301526001602483015283169063a22cb46590604401600060405180830381600087803b158015620006d657600080fd5b505af1158015620006eb573d6000803e3d6000fd5b505050506001600160a01b03811615620007775760405163095ea7b360e01b81526001600160a01b0387811660048301526024820187905282169063095ea7b3906044016020604051808303816000875af11580156200074f573d6000803e3d6000fd5b505050506040513d601f19601f8201168201806040525081019062000775919062000d62565b505b505050505050565b60008c6001600160a01b0316634cfb998a348e8e8e8e8e8e8e8e8e8e8e6040518d63ffffffff1660e01b8152600401620007c49b9a9998979695949392919062000f5f565b60206040518083038185885af1158015620007e3573d6000803e3d6000fd5b50505050506040513d601f19601f8201168201806040525081019062000334919062001059565b600080858585856040516200081f9062000957565b6200082e9493929190620010bb565b604051809103906000f0801580156200084b573d6000803e3d6000fd5b5060405163f2fde38b60e01b81523360048201529091506001600160a01b0382169063f2fde38b90602401600060405180830381600087803b1580156200089157600080fd5b505af1158015620008a6573d6000803e3d6000fd5b509298975050505050505050565b6040516368b497ab60e11b81526000906001600160a01b037f0000000000000000000000000000000000000000000000000000000000000000169063d1692f5690620009099087908790879060040162000da6565b6020604051808303816000875af115801562000929573d6000803e3d6000fd5b505050506040513d601f19601f820116820180604052508101906200094f919062000d86565b949350505050565b6121c2806200110d83390190565b6001600160a01b03811681146200097b57600080fd5b50565b80356200098b8162000965565b919050565b60008060408385031215620009a457600080fd5b8235620009b18162000965565b946020939093013593505050565b600060208284031215620009d257600080fd5b8135620009df8162000965565b9392505050565b634e487b7160e01b600052604160045260246000fd5b60006001600160401b038084111562000a195762000a19620009e6565b604051601f8501601f19908116603f0116810190828211818310171562000a445762000a44620009e6565b8160405280935085815286868601111562000a5e57600080fd5b858560208301376000602087830101525050509392505050565b6000806000806080858703121562000a8f57600080fd5b843562000a9c8162000965565b9350602085013562000aae8162000965565b92506040850135915060608501356001600160401b0381111562000ad157600080fd5b8501601f8101871362000ae357600080fd5b62000af487823560208401620009fc565b91505092959194509250565b60008083601f84011262000b1357600080fd5b5081356001600160401b0381111562000b2b57600080fd5b6020830191508360208260051b850101111562000b4757600080fd5b9250929050565b6000806000806000806000806000806000806101208d8f03121562000b7257600080fd5b62000b7d8d6200097e565b9b5060208d01359a506001600160401b0360408e0135111562000b9f57600080fd5b62000bb18e60408f01358f0162000b00565b909a50985060608d0135975060808d0135965060a08d0135955060c08d013594506001600160401b0360e08e0135111562000beb57600080fd5b62000bfd8e60e08f01358f0162000b00565b90945092506001600160401b036101008e0135111562000c1c57600080fd5b62000c2f8e6101008f01358f0162000b00565b81935080925050509295989b509295989b509295989b565b600082601f83011262000c5957600080fd5b620009df83833560208501620009fc565b60008060008060008060c0878903121562000c8457600080fd5b86356001600160401b038082111562000c9c57600080fd5b62000caa8a838b0162000c47565b9750602089013591508082111562000cc157600080fd5b62000ccf8a838b0162000c47565b9650604089013591508082111562000ce657600080fd5b5062000cf589828a0162000c47565b94505060608701359250608087013562000d0f8162000965565b8092505060a087013590509295509295509295565b6000806040838503121562000d3857600080fd5b823562000d458162000965565b9150602083013562000d578162000965565b809150509250929050565b60006020828403121562000d7557600080fd5b81518015158114620009df57600080fd5b60006020828403121562000d9957600080fd5b8151620009df8162000965565b6001600160a01b039384168152919092166020820152604081019190915260600190565b634e487b7160e01b600052603260045260246000fd5b60006001820162000e0157634e487b7160e01b600052601160045260246000fd5b5060010190565b81835260006001600160fb1b0383111562000e2257600080fd5b8260051b80836020870137939093016020019392505050565b6000808335601e1984360301811262000e5357600080fd5b83016020810192503590506001600160401b0381111562000e7357600080fd5b80360382131562000b4757600080fd5b81835281816020850137506000828201602090810191909152601f909101601f19169091010190565b81835260006020808501808196508560051b81019150846000805b88811015620008a6578385038a528235607e1989360301811262000ee9578283fd5b880180358652608062000eff8883018362000e3b565b828a8a015262000f13838a01828462000e83565b925050506040808301358189015250606062000f328184018462000e3b565b9350888303828a015262000f4883858362000e83565b9d8a019d9850505093870193505060010162000ec7565b8b8152600060206101008184015262000f7e61010084018d8f62000e08565b8b60408501528a60608501528960808501528860a085015283810360c0850152808782528282019050828860051b8301018960005b8a8110156200102c57848303601f190184528135368d9003601e1901811262000fdb57600080fd5b8c0186810190356001600160401b0381111562000ff757600080fd5b8060051b36038213156200100a57600080fd5b6200101785828462000e08565b95880195945050509085019060010162000fb3565b505085810360e08701526200104381888a62000eac565b9450505050509c9b505050505050505050505050565b6000602082840312156200106c57600080fd5b5051919050565b6000815180845260005b818110156200109b576020818501810151868301820152016200107d565b506000602082860101526020601f19601f83011685010191505092915050565b608081526000620010d0608083018762001073565b8281036020840152620010e4818762001073565b90508281036040840152620010fa818662001073565b9150508260608301529594505050505056fe60a06040523480156200001157600080fd5b50604051620021c2380380620021c28339810160408190526200003491620001ba565b83836000620000448382620002e2565b506001620000538282620002e2565b505050620000706200006a6200009f60201b60201c565b620000a3565b600d6200007e8382620002e2565b5080156200008d578062000091565b6000195b60805250620003ae92505050565b3390565b600b80546001600160a01b038381166001600160a01b0319831681179093556040519116919082907f8be0079c531659141344cd1fd0a4f28419497f9722a3daafe3b4186f6b6457e090600090a35050565b634e487b7160e01b600052604160045260246000fd5b600082601f8301126200011d57600080fd5b81516001600160401b03808211156200013a576200013a620000f5565b604051601f8301601f19908116603f01168101908282118183101715620001655762000165620000f5565b816040528381526020925086838588010111156200018257600080fd5b600091505b83821015620001a6578582018301518183018401529082019062000187565b600093810190920192909252949350505050565b60008060008060808587031215620001d157600080fd5b84516001600160401b0380821115620001e957600080fd5b620001f7888389016200010b565b955060208701519150808211156200020e57600080fd5b6200021c888389016200010b565b945060408701519150808211156200023357600080fd5b5062000242878288016200010b565b606096909601519497939650505050565b600181811c908216806200026857607f821691505b6020821081036200028957634e487b7160e01b600052602260045260246000fd5b50919050565b601f821115620002dd57600081815260208120601f850160051c81016020861015620002b85750805b601f850160051c820191505b81811015620002d957828155600101620002c4565b5050505b505050565b81516001600160401b03811115620002fe57620002fe620000f5565b62000316816200030f845462000253565b846200028f565b602080601f8311600181146200034e5760008415620003355750858301515b600019600386901b1c1916600185901b178555620002d9565b600085815260208120601f198616915b828110156200037f578886015182559484019460019091019084016200035e565b50858210156200039e5787850151600019600388901b60f8161c191681555b5050505050600190811b01905550565b608051611df1620003d1600039600081816102cd01526107be0152611df16000f3fe608060405234801561001057600080fd5b50600436106101425760003560e01c806370a08231116100b8578063b88d4fde1161007c578063b88d4fde1461028f578063c87b56dd146102a2578063d204c45e146102b5578063d5abeb01146102c8578063e985e9c5146102ef578063f2fde38b1461030257600080fd5b806370a0823114610248578063715018a61461025b5780638da5cb5b1461026357806395d89b4114610274578063a22cb4651461027c57600080fd5b806323b872dd1161010a57806323b872dd146101d65780632f745c59146101e957806342842e0e146101fc5780634f6ccce71461020f57806355f804b3146102225780636352211e1461023557600080fd5b806301ffc9a71461014757806306fdde031461016f578063081812fc14610184578063095ea7b3146101af57806318160ddd146101c4575b600080fd5b61015a6101553660046116e5565b610315565b60405190151581526020015b60405180910390f35b610177610326565b6040516101669190611752565b610197610192366004611765565b6103b8565b6040516001600160a01b039091168152602001610166565b6101c26101bd36600461179a565b6103df565b005b6008545b604051908152602001610166565b6101c26101e43660046117c4565b6104f9565b6101c86101f736600461179a565b61052a565b6101c261020a3660046117c4565b6105c0565b6101c861021d366004611765565b6105db565b6101c26102303660046118ac565b61066e565b610197610243366004611765565b610686565b6101c86102563660046118e1565b6106bb565b6101c2610741565b600b546001600160a01b0316610197565b610177610755565b6101c261028a3660046118fc565b610764565b6101c261029d366004611938565b61076f565b6101776102b0366004611765565b6107a7565b6101c86102c33660046119b4565b6107b2565b6101c87f000000000000000000000000000000000000000000000000000000000000000081565b61015a6102fd366004611a02565b61085e565b6101c26103103660046118e1565b61088c565b600061032082610905565b92915050565b60606000805461033590611a35565b80601f016020809104026020016040519081016040528092919081815260200182805461036190611a35565b80156103ae5780601f10610383576101008083540402835291602001916103ae565b820191906000526020600020905b81548152906001019060200180831161039157829003601f168201915b5050505050905090565b60006103c38261092a565b506000908152600460205260409020546001600160a01b031690565b60006103ea82610686565b9050806001600160a01b0316836001600160a01b03160361045c5760405162461bcd60e51b815260206004820152602160248201527f4552433732313a20617070726f76616c20746f2063757272656e74206f776e656044820152603960f91b60648201526084015b60405180910390fd5b336001600160a01b03821614806104785750610478813361085e565b6104ea5760405162461bcd60e51b815260206004820152603d60248201527f4552433732313a20617070726f76652063616c6c6572206973206e6f7420746f60448201527f6b656e206f776e6572206f7220617070726f76656420666f7220616c6c0000006064820152608401610453565b6104f4838361094f565b505050565b61050333826109bd565b61051f5760405162461bcd60e51b815260040161045390611a6f565b6104f4838383610a1c565b6000610535836106bb565b82106105975760405162461bcd60e51b815260206004820152602b60248201527f455243373231456e756d657261626c653a206f776e657220696e646578206f7560448201526a74206f6620626f756e647360a81b6064820152608401610453565b506001600160a01b03919091166000908152600660209081526040808320938352929052205490565b6104f48383836040518060200160405280600081525061076f565b60006105e660085490565b82106106495760405162461bcd60e51b815260206004820152602c60248201527f455243373231456e756d657261626c653a20676c6f62616c20696e646578206f60448201526b7574206f6620626f756e647360a01b6064820152608401610453565b6008828154811061065c5761065c611abc565b90600052602060002001549050919050565b610676610b8d565b600d6106828282611b20565b5050565b6000818152600260205260408120546001600160a01b0316806103205760405162461bcd60e51b815260040161045390611be0565b60006001600160a01b0382166107255760405162461bcd60e51b815260206004820152602960248201527f4552433732313a2061646472657373207a65726f206973206e6f7420612076616044820152683634b21037bbb732b960b91b6064820152608401610453565b506001600160a01b031660009081526003602052604090205490565b610749610b8d565b6107536000610be7565b565b60606001805461033590611a35565b610682338383610c39565b61077933836109bd565b6107955760405162461bcd60e51b815260040161045390611a6f565b6107a184848484610d03565b50505050565b606061032082610d36565b60006107bc610b8d565b7f00000000000000000000000000000000000000000000000000000000000000006107e6600c5490565b106108285760405162461bcd60e51b815260206004820152601260248201527113585e081cdd5c1c1b1e481c995858da195960721b6044820152606401610453565b6000610833600c5490565b9050610843600c80546001019055565b61084d8482610e31565b6108578184610e4b565b9392505050565b6001600160a01b03918216600090815260056020908152604080832093909416825291909152205460ff1690565b610894610b8d565b6001600160a01b0381166108f95760405162461bcd60e51b815260206004820152602660248201527f4f776e61626c653a206e6577206f776e657220697320746865207a65726f206160448201526564647265737360d01b6064820152608401610453565b61090281610be7565b50565b60006001600160e01b0319821663780e9d6360e01b1480610320575061032082610ecf565b61093381610f1f565b6109025760405162461bcd60e51b815260040161045390611be0565b600081815260046020526040902080546001600160a01b0319166001600160a01b038416908117909155819061098482610686565b6001600160a01b03167f8c5be1e5ebec7d5bd14f71427d1e84f3dd0314c0f7b2291e5b200ac8c7c3b92560405160405180910390a45050565b6000806109c983610686565b9050806001600160a01b0316846001600160a01b031614806109f057506109f0818561085e565b80610a145750836001600160a01b0316610a09846103b8565b6001600160a01b0316145b949350505050565b826001600160a01b0316610a2f82610686565b6001600160a01b031614610a555760405162461bcd60e51b815260040161045390611c12565b6001600160a01b038216610ab75760405162461bcd60e51b8152602060048201526024808201527f4552433732313a207472616e7366657220746f20746865207a65726f206164646044820152637265737360e01b6064820152608401610453565b610ac48383836001610f3c565b826001600160a01b0316610ad782610686565b6001600160a01b031614610afd5760405162461bcd60e51b815260040161045390611c12565b600081815260046020908152604080832080546001600160a01b03199081169091556001600160a01b0387811680865260038552838620805460001901905590871680865283862080546001019055868652600290945282852080549092168417909155905184937fddf252ad1be2c89b69c2b068fc378daa952ba7f163c4a11628f55a4df523b3ef91a4505050565b600b546001600160a01b031633146107535760405162461bcd60e51b815260206004820181905260248201527f4f776e61626c653a2063616c6c6572206973206e6f7420746865206f776e65726044820152606401610453565b600b80546001600160a01b038381166001600160a01b0319831681179093556040519116919082907f8be0079c531659141344cd1fd0a4f28419497f9722a3daafe3b4186f6b6457e090600090a35050565b816001600160a01b0316836001600160a01b031603610c965760405162461bcd60e51b815260206004820152601960248201527822a9219b99189d1030b8383937bb32903a379031b0b63632b960391b6044820152606401610453565b6001600160a01b03838116600081815260056020908152604080832094871680845294825291829020805460ff191686151590811790915591519182527f17307eab39ab6107e8899845ad3d59bd9653f200f220920489ca2b5937696c31910160405180910390a3505050565b610d0e848484610a1c565b610d1a84848484610f48565b6107a15760405162461bcd60e51b815260040161045390611c57565b6060610d418261092a565b6000828152600a602052604081208054610d5a90611a35565b80601f0160208091040260200160405190810160405280929190818152602001828054610d8690611a35565b8015610dd35780601f10610da857610100808354040283529160200191610dd3565b820191906000526020600020905b815481529060010190602001808311610db657829003601f168201915b505050505090506000610de4611049565b90508051600003610df6575092915050565b815115610e28578082604051602001610e10929190611ca9565b60405160208183030381529060405292505050919050565b610a1484611058565b6106828282604051806020016040528060008152506110be565b610e5482610f1f565b610eb75760405162461bcd60e51b815260206004820152602e60248201527f45524337323155524953746f726167653a2055524920736574206f66206e6f6e60448201526d32bc34b9ba32b73a103a37b5b2b760911b6064820152608401610453565b6000828152600a602052604090206104f48282611b20565b60006001600160e01b031982166380ac58cd60e01b1480610f0057506001600160e01b03198216635b5e139f60e01b145b8061032057506301ffc9a760e01b6001600160e01b0319831614610320565b6000908152600260205260409020546001600160a01b0316151590565b6107a1848484846110f1565b60006001600160a01b0384163b1561103e57604051630a85bd0160e11b81526001600160a01b0385169063150b7a0290610f8c903390899088908890600401611cd8565b6020604051808303816000875af1925050508015610fc7575060408051601f3d908101601f19168201909252610fc491810190611d15565b60015b611024573d808015610ff5576040519150601f19603f3d011682016040523d82523d6000602084013e610ffa565b606091505b50805160000361101c5760405162461bcd60e51b815260040161045390611c57565b805181602001fd5b6001600160e01b031916630a85bd0160e11b149050610a14565b506001949350505050565b6060600d805461033590611a35565b60606110638261092a565b600061106d611049565b9050600081511161108d5760405180602001604052806000815250610857565b8061109784611231565b6040516020016110a8929190611ca9565b6040516020818303038152906040529392505050565b6110c883836112c4565b6110d56000848484610f48565b6104f45760405162461bcd60e51b815260040161045390611c57565b6110fd848484846113df565b600181111561116c5760405162461bcd60e51b815260206004820152603560248201527f455243373231456e756d657261626c653a20636f6e7365637574697665207472604482015274185b9cd9995c9cc81b9bdd081cdd5c1c1bdc9d1959605a1b6064820152608401610453565b816001600160a01b0385166111c8576111c381600880546000838152600960205260408120829055600182018355919091527ff3f7a9fe364faab93b216da50a3214154f22a0a2b415b23a84c8169e8b636ee30155565b6111eb565b836001600160a01b0316856001600160a01b0316146111eb576111eb8582611467565b6001600160a01b0384166112075761120281611504565b61122a565b846001600160a01b0316846001600160a01b03161461122a5761122a84826115b3565b5050505050565b6060600061123e836115f7565b600101905060008167ffffffffffffffff81111561125e5761125e611800565b6040519080825280601f01601f191660200182016040528015611288576020820181803683370190505b5090508181016020015b600019016f181899199a1a9b1b9c1cb0b131b232b360811b600a86061a8153600a850494508461129257509392505050565b6001600160a01b03821661131a5760405162461bcd60e51b815260206004820181905260248201527f4552433732313a206d696e7420746f20746865207a65726f20616464726573736044820152606401610453565b61132381610f1f565b156113405760405162461bcd60e51b815260040161045390611d32565b61134e600083836001610f3c565b61135781610f1f565b156113745760405162461bcd60e51b815260040161045390611d32565b6001600160a01b038216600081815260036020908152604080832080546001019055848352600290915280822080546001600160a01b0319168417905551839291907fddf252ad1be2c89b69c2b068fc378daa952ba7f163c4a11628f55a4df523b3ef908290a45050565b60018111156107a1576001600160a01b03841615611425576001600160a01b0384166000908152600360205260408120805483929061141f908490611d7f565b90915550505b6001600160a01b038316156107a1576001600160a01b0383166000908152600360205260408120805483929061145c908490611d92565b909155505050505050565b60006001611474846106bb565b61147e9190611d7f565b6000838152600760205260409020549091508082146114d1576001600160a01b03841660009081526006602090815260408083208584528252808320548484528184208190558352600790915290208190555b5060009182526007602090815260408084208490556001600160a01b039094168352600681528383209183525290812055565b60085460009061151690600190611d7f565b6000838152600960205260408120546008805493945090928490811061153e5761153e611abc565b90600052602060002001549050806008838154811061155f5761155f611abc565b600091825260208083209091019290925582815260099091526040808220849055858252812055600880548061159757611597611da5565b6001900381819060005260206000200160009055905550505050565b60006115be836106bb565b6001600160a01b039093166000908152600660209081526040808320868452825280832085905593825260079052919091209190915550565b60008072184f03e93ff9f4daa797ed6e38ed64bf6a1f0160401b83106116365772184f03e93ff9f4daa797ed6e38ed64bf6a1f0160401b830492506040015b6d04ee2d6d415b85acef81000000008310611662576d04ee2d6d415b85acef8100000000830492506020015b662386f26fc10000831061168057662386f26fc10000830492506010015b6305f5e1008310611698576305f5e100830492506008015b61271083106116ac57612710830492506004015b606483106116be576064830492506002015b600a83106103205760010192915050565b6001600160e01b03198116811461090257600080fd5b6000602082840312156116f757600080fd5b8135610857816116cf565b60005b8381101561171d578181015183820152602001611705565b50506000910152565b6000815180845261173e816020860160208601611702565b601f01601f19169290920160200192915050565b6020815260006108576020830184611726565b60006020828403121561177757600080fd5b5035919050565b80356001600160a01b038116811461179557600080fd5b919050565b600080604083850312156117ad57600080fd5b6117b68361177e565b946020939093013593505050565b6000806000606084860312156117d957600080fd5b6117e28461177e565b92506117f06020850161177e565b9150604084013590509250925092565b634e487b7160e01b600052604160045260246000fd5b600067ffffffffffffffff8084111561183157611831611800565b604051601f8501601f19908116603f0116810190828211818310171561185957611859611800565b8160405280935085815286868601111561187257600080fd5b858560208301376000602087830101525050509392505050565b600082601f83011261189d57600080fd5b61085783833560208501611816565b6000602082840312156118be57600080fd5b813567ffffffffffffffff8111156118d557600080fd5b610a148482850161188c565b6000602082840312156118f357600080fd5b6108578261177e565b6000806040838503121561190f57600080fd5b6119188361177e565b91506020830135801515811461192d57600080fd5b809150509250929050565b6000806000806080858703121561194e57600080fd5b6119578561177e565b93506119656020860161177e565b925060408501359150606085013567ffffffffffffffff81111561198857600080fd5b8501601f8101871361199957600080fd5b6119a887823560208401611816565b91505092959194509250565b600080604083850312156119c757600080fd5b6119d08361177e565b9150602083013567ffffffffffffffff8111156119ec57600080fd5b6119f88582860161188c565b9150509250929050565b60008060408385031215611a1557600080fd5b611a1e8361177e565b9150611a2c6020840161177e565b90509250929050565b600181811c90821680611a4957607f821691505b602082108103611a6957634e487b7160e01b600052602260045260246000fd5b50919050565b6020808252602d908201527f4552433732313a2063616c6c6572206973206e6f7420746f6b656e206f776e6560408201526c1c881bdc88185c1c1c9bdd9959609a1b606082015260800190565b634e487b7160e01b600052603260045260246000fd5b601f8211156104f457600081815260208120601f850160051c81016020861015611af95750805b601f850160051c820191505b81811015611b1857828155600101611b05565b505050505050565b815167ffffffffffffffff811115611b3a57611b3a611800565b611b4e81611b488454611a35565b84611ad2565b602080601f831160018114611b835760008415611b6b5750858301515b600019600386901b1c1916600185901b178555611b18565b600085815260208120601f198616915b82811015611bb257888601518255948401946001909101908401611b93565b5085821015611bd05787850151600019600388901b60f8161c191681555b5050505050600190811b01905550565b602080825260189082015277115490cdcc8c4e881a5b9d985b1a59081d1bdad95b88125160421b604082015260600190565b60208082526025908201527f4552433732313a207472616e736665722066726f6d20696e636f72726563742060408201526437bbb732b960d91b606082015260800190565b60208082526032908201527f4552433732313a207472616e7366657220746f206e6f6e20455243373231526560408201527131b2b4bb32b91034b6b83632b6b2b73a32b960711b606082015260800190565b60008351611cbb818460208801611702565b835190830190611ccf818360208801611702565b01949350505050565b6001600160a01b0385811682528416602082015260408101839052608060608201819052600090611d0b90830184611726565b9695505050505050565b600060208284031215611d2757600080fd5b8151610857816116cf565b6020808252601c908201527f4552433732313a20746f6b656e20616c7265616479206d696e74656400000000604082015260600190565b634e487b7160e01b600052601160045260246000fd5b8181038181111561032057610320611d69565b8082018082111561032057610320611d69565b634e487b7160e01b600052603160045260246000fdfea264697066735822122093e88b5cb244bd8ebc1abae49d3c91215e4a8b15fc986a60ca9827e882df37d264736f6c63430008110033a26469706673582212206f5fbc5ae337e9d420fd39fca19bf8adc39363c6f079bd053bb923fa255695d964736f6c63430008110033","linkReferences":{}},"methodIdentifiers":{"addLiquidityWithNFT(address,uint256,uint256[],uint256,uint256,uint256,uint256,bytes32[][],(bytes32,bytes,uint256,bytes)[])":"92175392","approveNFT(address)":"11e9a95e","approveToken(address,uint256)":"022fc88b","caviar()":"217c1d68","createNFTAndPair(string,string,string,uint256,address,bytes32)":"95dbd311","isTokenApproved(address,address)":"ba7b1281","onERC721Received(address,address,uint256,bytes)":"150b7a02"},"id":59}