{"abi":[{"type":"constructor","inputs":[{"name":"name_","type":"string","internalType":"string"},{"name":"symbol_","type":"string","internalType":"string"},{"name":"baseTokenURI_","type":"string","internalType":"string"},{"name":"_maxSupply","type":"uint256","internalType":"uint256"}],"stateMutability":"nonpayable"},{"type":"function","name":"approve","inputs":[{"name":"spender","type":"address","internalType":"address"},{"name":"id","type":"uint256","internalType":"uint256"}],"outputs":[],"stateMutability":"nonpayable"},{"type":"function","name":"balanceOf","inputs":[{"name":"owner","type":"address","internalType":"address"}],"outputs":[{"name":"","type":"uint256","internalType":"uint256"}],"stateMutability":"view"},{"type":"function","name":"getApproved","inputs":[{"name":"","type":"uint256","internalType":"uint256"}],"outputs":[{"name":"","type":"address","internalType":"address"}],"stateMutability":"view"},{"type":"function","name":"isApprovedForAll","inputs":[{"name":"","type":"address","internalType":"address"},{"name":"","type":"address","internalType":"address"}],"outputs":[{"name":"","type":"bool","internalType":"bool"}],"stateMutability":"view"},{"type":"function","name":"maxSupply","inputs":[],"outputs":[{"name":"","type":"uint256","internalType":"uint256"}],"stateMutability":"view"},{"type":"function","name":"name","inputs":[],"outputs":[{"name":"","type":"string","internalType":"string"}],"stateMutability":"view"},{"type":"function","name":"owner","inputs":[],"outputs":[{"name":"","type":"address","internalType":"address"}],"stateMutability":"view"},{"type":"function","name":"ownerOf","inputs":[{"name":"id","type":"uint256","internalType":"uint256"}],"outputs":[{"name":"owner","type":"address","internalType":"address"}],"stateMutability":"view"},{"type":"function","name":"renounceOwnership","inputs":[],"outputs":[],"stateMutability":"nonpayable"},{"type":"function","name":"safeMint","inputs":[{"name":"to","type":"address","internalType":"address"}],"outputs":[{"name":"","type":"uint256","internalType":"uint256"}],"stateMutability":"nonpayable"},{"type":"function","name":"safeTransferFrom","inputs":[{"name":"from","type":"address","internalType":"address"},{"name":"to","type":"address","internalType":"address"},{"name":"id","type":"uint256","internalType":"uint256"}],"outputs":[],"stateMutability":"nonpayable"},{"type":"function","name":"safeTransferFrom","inputs":[{"name":"from","type":"address","internalType":"address"},{"name":"to","type":"address","internalType":"address"},{"name":"id","type":"uint256","internalType":"uint256"},{"name":"data","type":"bytes","internalType":"bytes"}],"outputs":[],"stateMutability":"nonpayable"},{"type":"function","name":"setApprovalForAll","inputs":[{"name":"operator","type":"address","internalType":"address"},{"name":"approved","type":"bool","internalType":"bool"}],"outputs":[],"stateMutability":"nonpayable"},{"type":"function","name":"setBaseURI","inputs":[{"name":"newBaseTokenURI","type":"string","internalType":"string"}],"outputs":[],"stateMutability":"nonpayable"},{"type":"function","name":"supportsInterface","inputs":[{"name":"interfaceId","type":"bytes4","internalType":"bytes4"}],"outputs":[{"name":"","type":"bool","internalType":"bool"}],"stateMutability":"view"},{"type":"function","name":"symbol","inputs":[],"outputs":[{"name":"","type":"string","internalType":"string"}],"stateMutability":"view"},{"type":"function","name":"tokenURI","inputs":[{"name":"","type":"uint256","internalType":"uint256"}],"outputs":[{"name":"","type":"string","internalType":"string"}],"stateMutability":"view"},{"type":"function","name":"totalSupply","inputs":[],"outputs":[{"name":"","type":"uint256","internalType":"uint256"}],"stateMutability":"view"},{"type":"function","name":"transferFrom","inputs":[{"name":"from","type":"address","internalType":"address"},{"name":"to","type":"address","internalType":"address"},{"name":"id","type":"uint256","internalType":"uint256"}],"outputs":[],"stateMutability":"nonpayable"},{"type":"function","name":"transferOwnership","inputs":[{"name":"newOwner","type":"address","internalType":"address"}],"outputs":[],"stateMutability":"nonpayable"},{"type":"event","name":"Approval","inputs":[{"name":"owner","type":"address","indexed":true,"internalType":"address"},{"name":"spender","type":"address","indexed":true,"internalType":"address"},{"name":"id","type":"uint256","indexed":true,"internalType":"uint256"}],"anonymous":false},{"type":"event","name":"ApprovalForAll","inputs":[{"name":"owner","type":"address","indexed":true,"internalType":"address"},{"name":"operator","type":"address","indexed":true,"internalType":"address"},{"name":"approved","type":"bool","indexed":false,"internalType":"bool"}],"anonymous":false},{"type":"event","name":"AttemptingMint","inputs":[{"name":"to","type":"address","indexed":false,"internalType":"address"},{"name":"tokenId","type":"uint256","indexed":false,"internalType":"uint256"}],"anonymous":false},{"type":"event","name":"MintFailed","inputs":[{"name":"to","type":"address","indexed":false,"internalType":"address"},{"name":"tokenId","type":"uint256","indexed":false,"internalType":"uint256"},{"name":"reason","type":"string","indexed":false,"internalType":"string"}],"anonymous":false},{"type":"event","name":"MintSuccessful","inputs":[{"name":"to","type":"address","indexed":false,"internalType":"address"},{"name":"tokenId","type":"uint256","indexed":false,"internalType":"uint256"}],"anonymous":false},{"type":"event","name":"OwnershipTransferred","inputs":[{"name":"previousOwner","type":"address","indexed":true,"internalType":"address"},{"name":"newOwner","type":"address","indexed":true,"internalType":"address"}],"anonymous":false},{"type":"event","name":"Transfer","inputs":[{"name":"from","type":"address","indexed":true,"internalType":"address"},{"name":"to","type":"address","indexed":true,"internalType":"address"},{"name":"id","type":"uint256","indexed":true,"internalType":"uint256"}],"anonymous":false}],"bytecode":{"object":"0x60a06040523480156200001157600080fd5b5060405162001795380380620017958339810160408190526200003491620001ba565b83836000620000448382620002e2565b506001620000538282620002e2565b505050620000706200006a6200009f60201b60201c565b620000a3565b60086200007e8382620002e2565b5080156200008d578062000091565b6000195b60805250620003ae92505050565b3390565b600680546001600160a01b038381166001600160a01b0319831681179093556040519116919082907f8be0079c531659141344cd1fd0a4f28419497f9722a3daafe3b4186f6b6457e090600090a35050565b634e487b7160e01b600052604160045260246000fd5b600082601f8301126200011d57600080fd5b81516001600160401b03808211156200013a576200013a620000f5565b604051601f8301601f19908116603f01168101908282118183101715620001655762000165620000f5565b816040528381526020925086838588010111156200018257600080fd5b600091505b83821015620001a6578582018301518183018401529082019062000187565b600093810190920192909252949350505050565b60008060008060808587031215620001d157600080fd5b84516001600160401b0380821115620001e957600080fd5b620001f7888389016200010b565b955060208701519150808211156200020e57600080fd5b6200021c888389016200010b565b945060408701519150808211156200023357600080fd5b5062000242878288016200010b565b606096909601519497939650505050565b600181811c908216806200026857607f821691505b6020821081036200028957634e487b7160e01b600052602260045260246000fd5b50919050565b601f821115620002dd57600081815260208120601f850160051c81016020861015620002b85750805b601f850160051c820191505b81811015620002d957828155600101620002c4565b5050505b505050565b81516001600160401b03811115620002fe57620002fe620000f5565b62000316816200030f845462000253565b846200028f565b602080601f8311600181146200034e5760008415620003355750858301515b600019600386901b1c1916600185901b178555620002d9565b600085815260208120601f198616915b828110156200037f578886015182559484019460019091019084016200035e565b50858210156200039e5787850151600019600388901b60f8161c191681555b5050505050600190811b01905550565b6080516113c4620003d1600039600081816102ab01526106a601526113c46000f3fe608060405234801561001057600080fd5b506004361061012c5760003560e01c806370a08231116100ad578063b88d4fde11610071578063b88d4fde14610280578063c87b56dd14610293578063d5abeb01146102a6578063e985e9c5146102cd578063f2fde38b146102fb57600080fd5b806370a0823114610239578063715018a61461024c5780638da5cb5b1461025457806395d89b4114610265578063a22cb4651461026d57600080fd5b806323b872dd116100f457806323b872dd146101da57806340d097c3146101ed57806342842e0e1461020057806355f804b3146102135780636352211e1461022657600080fd5b806301ffc9a71461013157806306fdde0314610159578063081812fc1461016e578063095ea7b3146101af57806318160ddd146101c4575b600080fd5b61014461013f366004610dcc565b61030e565b60405190151581526020015b60405180910390f35b610161610360565b6040516101509190610df0565b61019761017c366004610e3e565b6004602052600090815260409020546001600160a01b031681565b6040516001600160a01b039091168152602001610150565b6101c26101bd366004610e6e565b6103ee565b005b6101cc6104b8565b604051908152602001610150565b6101c26101e8366004610e98565b6104c8565b6101cc6101fb366004610ed4565b61064a565b6101c261020e366004610e98565b610786565b6101c2610221366004610f05565b610845565b610197610234366004610e3e565b610855565b6101cc610247366004610ed4565b6108a7565b6101c261090a565b6006546001600160a01b0316610197565b61016161091e565b6101c261027b366004610fb6565b61092b565b6101c261028e366004610ff2565b610997565b6101616102a1366004610e3e565b610a5c565b6101cc7f000000000000000000000000000000000000000000000000000000000000000081565b6101446102db36600461108d565b600560209081526000928352604080842090915290825290205460ff1681565b6101c2610309366004610ed4565b610af0565b60006301ffc9a760e01b6001600160e01b03198316148061033f57506380ac58cd60e01b6001600160e01b03198316145b8061035a5750635b5e139f60e01b6001600160e01b03198316145b92915050565b6000805461036d906110c0565b80601f0160208091040260200160405190810160405280929190818152602001828054610399906110c0565b80156103e65780601f106103bb576101008083540402835291602001916103e6565b820191906000526020600020905b8154815290600101906020018083116103c957829003601f168201915b505050505081565b6000818152600260205260409020546001600160a01b03163381148061043757506001600160a01b038116600090815260056020908152604080832033845290915290205460ff165b61045c5760405162461bcd60e51b8152600401610453906110fa565b60405180910390fd5b60008281526004602052604080822080546001600160a01b0319166001600160a01b0387811691821790925591518593918516917f8c5be1e5ebec7d5bd14f71427d1e84f3dd0314c0f7b2291e5b200ac8c7c3b92591a4505050565b60006104c360075490565b905090565b6000818152600260205260409020546001600160a01b0384811691161461051e5760405162461bcd60e51b815260206004820152600a60248201526957524f4e475f46524f4d60b01b6044820152606401610453565b6001600160a01b0382166105445760405162461bcd60e51b815260040161045390611122565b336001600160a01b038416148061057e57506001600160a01b038316600090815260056020908152604080832033845290915290205460ff165b8061059f57506000818152600460205260409020546001600160a01b031633145b6105bb5760405162461bcd60e51b8152600401610453906110fa565b6001600160a01b0380841660008181526003602090815260408083208054600019019055938616808352848320805460010190558583526002825284832080546001600160a01b03199081168317909155600490925284832080549092169091559251849392917fddf252ad1be2c89b69c2b068fc378daa952ba7f163c4a11628f55a4df523b3ef91a4505050565b6000610654610b69565b600061065f60075490565b604080516001600160a01b0386168152602081018390529192507f695781ca8e1ef4f606f782ce8392fc699cc37b7891cf22482c68d645a4587bad910160405180910390a17f00000000000000000000000000000000000000000000000000000000000000006106ce60075490565b10610724577f1c09b9f722b931760b1d9faff9cb20b547e2b71ed7cb9c3550735839e1cbb3528382604051610704929190611172565b60405180910390a160405162461bcd60e51b8152600401610453906111a0565b610732600780546001019055565b61073c8382610bc3565b604080516001600160a01b0385168152602081018390527f76020ece75bf679c701e656fcffc7e3df8354859b3b0eb7fee42b1378023bb31910160405180910390a190505b919050565b6107918383836104c8565b6001600160a01b0382163b15806108245750604051630a85bd0160e11b808252906001600160a01b0384169063150b7a02906107d5903390889087906004016111b2565b6020604051808303816000875af11580156107f4573d6000803e3d6000fd5b505050506040513d601f19601f8201168201806040525081019061081891906111e5565b6001600160e01b031916145b6108405760405162461bcd60e51b815260040161045390611202565b505050565b6008610851828261127a565b5050565b6000818152600260205260409020546001600160a01b0316806107815760405162461bcd60e51b815260206004820152600a6024820152691393d517d3525395115160b21b6044820152606401610453565b60006001600160a01b0382166108ee5760405162461bcd60e51b815260206004820152600c60248201526b5a45524f5f4144445245535360a01b6044820152606401610453565b506001600160a01b031660009081526003602052604090205490565b610912610b69565b61091c6000610c7d565b565b6001805461036d906110c0565b3360008181526005602090815260408083206001600160a01b03871680855290835292819020805460ff191686151590811790915590519081529192917f17307eab39ab6107e8899845ad3d59bd9653f200f220920489ca2b5937696c31910160405180910390a35050565b6109a28585856104c8565b6001600160a01b0384163b1580610a395750604051630a85bd0160e11b808252906001600160a01b0386169063150b7a02906109ea9033908a9089908990899060040161133a565b6020604051808303816000875af1158015610a09573d6000803e3d6000fd5b505050506040513d601f19601f82011682018060405250810190610a2d91906111e5565b6001600160e01b031916145b610a555760405162461bcd60e51b815260040161045390611202565b5050505050565b606060088054610a6b906110c0565b80601f0160208091040260200160405190810160405280929190818152602001828054610a97906110c0565b8015610ae45780601f10610ab957610100808354040283529160200191610ae4565b820191906000526020600020905b815481529060010190602001808311610ac757829003601f168201915b50505050509050919050565b610af8610b69565b6001600160a01b038116610b5d5760405162461bcd60e51b815260206004820152602660248201527f4f776e61626c653a206e6577206f776e657220697320746865207a65726f206160448201526564647265737360d01b6064820152608401610453565b610b6681610c7d565b50565b6006546001600160a01b0316331461091c5760405162461bcd60e51b815260206004820181905260248201527f4f776e61626c653a2063616c6c6572206973206e6f7420746865206f776e65726044820152606401610453565b610bcd8282610ccf565b6001600160a01b0382163b1580610c615750604051630a85bd0160e11b808252906001600160a01b0384169063150b7a0290610c1290339060009087906004016111b2565b6020604051808303816000875af1158015610c31573d6000803e3d6000fd5b505050506040513d601f19601f82011682018060405250810190610c5591906111e5565b6001600160e01b031916145b6108515760405162461bcd60e51b815260040161045390611202565b600680546001600160a01b038381166001600160a01b0319831681179093556040519116919082907f8be0079c531659141344cd1fd0a4f28419497f9722a3daafe3b4186f6b6457e090600090a35050565b6001600160a01b038216610cf55760405162461bcd60e51b815260040161045390611122565b6000818152600260205260409020546001600160a01b031615610d4b5760405162461bcd60e51b815260206004820152600e60248201526d1053149150511657d3525395115160921b6044820152606401610453565b6001600160a01b038216600081815260036020908152604080832080546001019055848352600290915280822080546001600160a01b0319168417905551839291907fddf252ad1be2c89b69c2b068fc378daa952ba7f163c4a11628f55a4df523b3ef908290a45050565b6001600160e01b031981168114610b6657600080fd5b600060208284031215610dde57600080fd5b8135610de981610db6565b9392505050565b600060208083528351808285015260005b81811015610e1d57858101830151858201604001528201610e01565b506000604082860101526040601f19601f8301168501019250505092915050565b600060208284031215610e5057600080fd5b5035919050565b80356001600160a01b038116811461078157600080fd5b60008060408385031215610e8157600080fd5b610e8a83610e57565b946020939093013593505050565b600080600060608486031215610ead57600080fd5b610eb684610e57565b9250610ec460208501610e57565b9150604084013590509250925092565b600060208284031215610ee657600080fd5b610de982610e57565b634e487b7160e01b600052604160045260246000fd5b600060208284031215610f1757600080fd5b813567ffffffffffffffff80821115610f2f57600080fd5b818401915084601f830112610f4357600080fd5b813581811115610f5557610f55610eef565b604051601f8201601f19908116603f01168101908382118183101715610f7d57610f7d610eef565b81604052828152876020848701011115610f9657600080fd5b826020860160208301376000928101602001929092525095945050505050565b60008060408385031215610fc957600080fd5b610fd283610e57565b915060208301358015158114610fe757600080fd5b809150509250929050565b60008060008060006080868803121561100a57600080fd5b61101386610e57565b945061102160208701610e57565b935060408601359250606086013567ffffffffffffffff8082111561104557600080fd5b818801915088601f83011261105957600080fd5b81358181111561106857600080fd5b89602082850101111561107a57600080fd5b9699959850939650602001949392505050565b600080604083850312156110a057600080fd5b6110a983610e57565b91506110b760208401610e57565b90509250929050565b600181811c908216806110d457607f821691505b6020821081036110f457634e487b7160e01b600052602260045260246000fd5b50919050565b6020808252600e908201526d1393d517d055551213d49256915160921b604082015260600190565b6020808252601190820152701253959053125117d49150d25412515395607a1b604082015260600190565b601281527113585e081cdd5c1c1b1e481c995858da195960721b602082015260400190565b60018060a01b03831681528160208201526060604082015260006111986060830161114d565b949350505050565b60208152600061035a6020830161114d565b6001600160a01b039384168152919092166020820152604081019190915260806060820181905260009082015260a00190565b6000602082840312156111f757600080fd5b8151610de981610db6565b60208082526010908201526f155394d0519157d49150d2541251539560821b604082015260600190565b601f82111561084057600081815260208120601f850160051c810160208610156112535750805b601f850160051c820191505b818110156112725782815560010161125f565b505050505050565b815167ffffffffffffffff81111561129457611294610eef565b6112a8816112a284546110c0565b8461122c565b602080601f8311600181146112dd57600084156112c55750858301515b600019600386901b1c1916600185901b178555611272565b600085815260208120601f198616915b8281101561130c578886015182559484019460019091019084016112ed565b508582101561132a5787850151600019600388901b60f8161c191681555b5050505050600190811b01905550565b6001600160a01b038681168252851660208201526040810184905260806060820181905281018290526000828460a0840137600060a0848401015260a0601f19601f8501168301019050969550505050505056fea2646970667358221220976ac292af9e7ae8176faec7d2d607105d71898ee07186612c40d156572f5bb264736f6c63430008110033","linkReferences":{}},"methodIdentifiers":{"approve(address,uint256)":"095ea7b3","balanceOf(address)":"70a08231","getApproved(uint256)":"081812fc","isApprovedForAll(address,address)":"e985e9c5","maxSupply()":"d5abeb01","name()":"06fdde03","owner()":"8da5cb5b","ownerOf(uint256)":"6352211e","renounceOwnership()":"715018a6","safeMint(address)":"40d097c3","safeTransferFrom(address,address,uint256)":"42842e0e","safeTransferFrom(address,address,uint256,bytes)":"b88d4fde","setApprovalForAll(address,bool)":"a22cb465","setBaseURI(string)":"55f804b3","supportsInterface(bytes4)":"01ffc9a7","symbol()":"95d89b41","tokenURI(uint256)":"c87b56dd","totalSupply()":"18160ddd","transferFrom(address,address,uint256)":"23b872dd","transferOwnership(address)":"f2fde38b"},"id":86}