{"abi":[{"type":"constructor","inputs":[{"name":"overrideFactory","type":"address","internalType":"address"}],"stateMutability":"nonpayable"},{"type":"function","name":"OVERRIDE_FACTORY","inputs":[],"outputs":[{"name":"","type":"address","internalType":"address"}],"stateMutability":"view"},{"type":"function","name":"getOverrideLookupTokenAddress","inputs":[{"name":"overrideAddress","type":"address","internalType":"address"}],"outputs":[{"name":"","type":"address","internalType":"address"}],"stateMutability":"view"},{"type":"function","name":"getRoyaltyLookupAddress","inputs":[{"name":"tokenAddress","type":"address","internalType":"address"}],"outputs":[{"name":"","type":"address","internalType":"address"}],"stateMutability":"view"},{"type":"function","name":"initialize","inputs":[{"name":"_initialOwner","type":"address","internalType":"address"}],"outputs":[],"stateMutability":"nonpayable"},{"type":"function","name":"overrideAllowed","inputs":[{"name":"tokenAddress","type":"address","internalType":"address"}],"outputs":[{"name":"","type":"bool","internalType":"bool"}],"stateMutability":"view"},{"type":"function","name":"owner","inputs":[],"outputs":[{"name":"","type":"address","internalType":"address"}],"stateMutability":"view"},{"type":"function","name":"renounceOwnership","inputs":[],"outputs":[],"stateMutability":"nonpayable"},{"type":"function","name":"setRoyaltyLookupAddress","inputs":[{"name":"tokenAddress","type":"address","internalType":"address"},{"name":"royaltyLookupAddress","type":"address","internalType":"address"}],"outputs":[{"name":"","type":"bool","internalType":"bool"}],"stateMutability":"nonpayable"},{"type":"function","name":"supportsInterface","inputs":[{"name":"interfaceId","type":"bytes4","internalType":"bytes4"}],"outputs":[{"name":"","type":"bool","internalType":"bool"}],"stateMutability":"view"},{"type":"function","name":"transferOwnership","inputs":[{"name":"newOwner","type":"address","internalType":"address"}],"outputs":[],"stateMutability":"nonpayable"},{"type":"event","name":"Initialized","inputs":[{"name":"version","type":"uint8","indexed":false,"internalType":"uint8"}],"anonymous":false},{"type":"event","name":"OwnershipTransferred","inputs":[{"name":"previousOwner","type":"address","indexed":true,"internalType":"address"},{"name":"newOwner","type":"address","indexed":true,"internalType":"address"}],"anonymous":false},{"type":"event","name":"RoyaltyOverride","inputs":[{"name":"owner","type":"address","indexed":false,"internalType":"address"},{"name":"tokenAddress","type":"address","indexed":false,"internalType":"address"},{"name":"royaltyAddress","type":"address","indexed":false,"internalType":"address"}],"anonymous":false}],"bytecode":{"object":"0x60a060405234801561001057600080fd5b50604051610ea5380380610ea583398101604081905261002f91610040565b6001600160a01b0316608052610070565b60006020828403121561005257600080fd5b81516001600160a01b038116811461006957600080fd5b9392505050565b608051610e136100926000396000818161011c0152610b160152610e136000f3fe608060405234801561001057600080fd5b506004361061009e5760003560e01c8063715018a611610066578063715018a6146101515780638da5cb5b1461015b578063c4d66de81461016c578063de5488af1461017f578063f2fde38b1461019257600080fd5b806301ffc9a7146100a357806326bd8982146100cb578063446e5365146100de578063542770d21461011757806370e062811461013e575b600080fd5b6100b66100b1366004610cf5565b6101a5565b60405190151581526020015b60405180910390f35b6100b66100d9366004610d34565b6101dc565b61010a6100ec366004610d6d565b6001600160a01b039081166000908152606660205260409020541690565b6040516100c29190610d8a565b61010a7f000000000000000000000000000000000000000000000000000000000000000081565b6100b661014c366004610d6d565b610384565b61015961093a565b005b6033546001600160a01b031661010a565b61015961017a366004610d6d565b61094e565b61010a61018d366004610d6d565b610a61565b6101596101a0366004610d6d565b610a91565b60006001600160e01b0319821663cc6730c960e01b14806101d657506301ffc9a760e01b6001600160e01b03198316145b92915050565b60006001600160a01b0383163b1515801561021157506001600160a01b0382163b15158061021157506001600160a01b038216155b6102525760405162461bcd60e51b815260206004820152600d60248201526c125b9d985b1a59081a5b9c1d5d609a1b60448201526064015b60405180910390fd5b61025b83610384565b61029b5760405162461bcd60e51b815260206004820152601160248201527014195c9b5a5cdcda5bdb8819195b9a5959607a1b6044820152606401610249565b6001600160a01b038084166000908152606560205260409020541680156102e3576001600160a01b038116600090815260666020526040902080546001600160a01b03191690555b6001600160a01b0380841660008181526066602090815260408083208054958a166001600160a01b0319968716811790915583526065909152902080549092161790557f22fb05840ad0d4b2be640c56e11065f26b799d2918d8f81190416f62b154b9c661034f610b0a565b604080516001600160a01b03928316815282881660208201529186169082015260600160405180910390a15060019392505050565b600061038e610b0a565b6001600160a01b03166103a96033546001600160a01b031690565b6001600160a01b0316036103bf57506001919050565b6103d082632a9f3abf60e11b610b4b565b801561044b5750816001600160a01b03166324d7806c6103ee610b0a565b6040518263ffffffff1660e01b815260040161040a9190610d8a565b602060405180830381865afa158015610427573d6000803e3d6000fd5b505050506040513d601f19601f8201168201806040525081019061044b9190610d9e565b1561045857506001919050565b816001600160a01b0316638da5cb5b6040518163ffffffff1660e01b8152600401602060405180830381865afa9250505080156104b2575060408051601f3d908101601f191682019092526104af91810190610dc0565b60015b1561057d576104bf610b0a565b6001600160a01b0316816001600160a01b0316036104e05750600192915050565b6001600160a01b0381163b1561057b57806001600160a01b0316638da5cb5b6040518163ffffffff1660e01b8152600401602060405180830381865afa92505050801561054a575060408051601f3d908101601f1916820190925261054791810190610dc0565b60015b1561057b57610557610b0a565b6001600160a01b0316816001600160a01b031603610579575060019392505050565b505b505b816001600160a01b03166391d148546000610596610b0a565b6040516001600160e01b031960e085901b16815260048101929092526001600160a01b03166024820152604401602060405180830381865afa9250505080156105fc575060408051601f3d908101601f191682019092526105f991810190610d9e565b60015b156106125780156106105750600192915050565b505b816001600160a01b031663be772d4c6040518163ffffffff1660e01b8152600401602060405180830381865afa92505050801561066c575060408051601f3d908101601f1916820190925261066991810190610dc0565b60015b156106eb57806001600160a01b031663e37ce6fa610688610b0a565b6040518263ffffffff1660e01b81526004016106a49190610d8a565b602060405180830381865afa9250505080156106dd575060408051601f3d908101601f191682019092526106da91810190610d9e565b60015b156106e9579392505050565b505b816001600160a01b031663f7a2da236040518163ffffffff1660e01b8152600401602060405180830381865afa925050508015610745575060408051601f3d908101601f1916820190925261074291810190610dc0565b60015b156107c457806001600160a01b03166324d7806c610761610b0a565b6040518263ffffffff1660e01b815260040161077d9190610d8a565b602060405180830381865afa9250505080156107b6575060408051601f3d908101601f191682019092526107b391810190610d9e565b60015b156107c2579392505050565b505b816001600160a01b031663748365ef6040518163ffffffff1660e01b8152600401602060405180830381865afa92505050801561081e575060408051601f3d908101601f1916820190925261081b91810190610dc0565b60015b156108a857806001600160a01b031663c395fcb361083a610b0a565b6040518263ffffffff1660e01b81526004016108569190610d8a565b602060405180830381865afa92505050801561088f575060408051601f3d908101601f1916820190925261088c91810190610d9e565b60015b156108a65780156108a4575060019392505050565b505b505b816001600160a01b031663f851a4406040518163ffffffff1660e01b8152600401602060405180830381865afa925050508015610902575060408051601f3d908101601f191682019092526108ff91810190610dc0565b60015b156109325761090f610b0a565b6001600160a01b0316816001600160a01b0316036109305750600192915050565b505b506000919050565b610942610b6e565b61094c6000610be7565b565b600054610100900460ff161580801561096e5750600054600160ff909116105b806109885750303b158015610988575060005460ff166001145b6109eb5760405162461bcd60e51b815260206004820152602e60248201527f496e697469616c697a61626c653a20636f6e747261637420697320616c72656160448201526d191e481a5b9a5d1a585b1a5e995960921b6064820152608401610249565b6000805460ff191660011790558015610a0e576000805461ff0019166101001790555b610a1782610be7565b8015610a5d576000805461ff0019169055604051600181527f7f26b83ff96e1f2b6a682f133852f6798a09c465da95921460cefb38474024989060200160405180910390a15b5050565b6001600160a01b038082166000908152606560205260408120549091168015610a8a5792915050565b5090919050565b610a99610b6e565b6001600160a01b038116610afe5760405162461bcd60e51b815260206004820152602660248201527f4f776e61626c653a206e6577206f776e657220697320746865207a65726f206160448201526564647265737360d01b6064820152608401610249565b610b0781610be7565b50565b60006001600160a01b037f0000000000000000000000000000000000000000000000000000000000000000163303610b465750601f1936013590565b503390565b6000610b5683610c39565b8015610b675750610b678383610c6c565b9392505050565b610b76610b0a565b6001600160a01b0316610b916033546001600160a01b031690565b6001600160a01b03161461094c5760405162461bcd60e51b815260206004820181905260248201527f4f776e61626c653a2063616c6c6572206973206e6f7420746865206f776e65726044820152606401610249565b603380546001600160a01b038381166001600160a01b0319831681179093556040519116919082907f8be0079c531659141344cd1fd0a4f28419497f9722a3daafe3b4186f6b6457e090600090a35050565b6000610c4c826301ffc9a760e01b610c6c565b80156101d65750610c65826001600160e01b0319610c6c565b1592915050565b604080516001600160e01b03198316602480830191909152825180830390910181526044909101909152602080820180516001600160e01b03166301ffc9a760e01b178152825160009392849283928392918391908a617530fa92503d91506000519050828015610cde575060208210155b8015610cea5750600081115b979650505050505050565b600060208284031215610d0757600080fd5b81356001600160e01b031981168114610b6757600080fd5b6001600160a01b0381168114610b0757600080fd5b60008060408385031215610d4757600080fd5b8235610d5281610d1f565b91506020830135610d6281610d1f565b809150509250929050565b600060208284031215610d7f57600080fd5b8135610b6781610d1f565b6001600160a01b0391909116815260200190565b600060208284031215610db057600080fd5b81518015158114610b6757600080fd5b600060208284031215610dd257600080fd5b8151610b6781610d1f56fea2646970667358221220778840415509bc230b353d5fc3ed71bf810416c07d2df09b953117304de7711164736f6c63430008110033","linkReferences":{}},"methodIdentifiers":{"OVERRIDE_FACTORY()":"542770d2","getOverrideLookupTokenAddress(address)":"446e5365","getRoyaltyLookupAddress(address)":"de5488af","initialize(address)":"c4d66de8","overrideAllowed(address)":"70e06281","owner()":"8da5cb5b","renounceOwnership()":"715018a6","setRoyaltyLookupAddress(address,address)":"26bd8982","supportsInterface(bytes4)":"01ffc9a7","transferOwnership(address)":"f2fde38b"},"id":29}