{"abi":[{"type":"constructor","inputs":[{"name":"name","type":"string","internalType":"string"},{"name":"symbol","type":"string","internalType":"string"},{"name":"baseTokenURI","type":"string","internalType":"string"},{"name":"_maxSupply","type":"uint256","internalType":"uint256"}],"stateMutability":"nonpayable"},{"type":"function","name":"approve","inputs":[{"name":"to","type":"address","internalType":"address"},{"name":"tokenId","type":"uint256","internalType":"uint256"}],"outputs":[],"stateMutability":"nonpayable"},{"type":"function","name":"balanceOf","inputs":[{"name":"owner","type":"address","internalType":"address"}],"outputs":[{"name":"","type":"uint256","internalType":"uint256"}],"stateMutability":"view"},{"type":"function","name":"getApproved","inputs":[{"name":"tokenId","type":"uint256","internalType":"uint256"}],"outputs":[{"name":"","type":"address","internalType":"address"}],"stateMutability":"view"},{"type":"function","name":"isApprovedForAll","inputs":[{"name":"owner","type":"address","internalType":"address"},{"name":"operator","type":"address","internalType":"address"}],"outputs":[{"name":"","type":"bool","internalType":"bool"}],"stateMutability":"view"},{"type":"function","name":"maxSupply","inputs":[],"outputs":[{"name":"","type":"uint256","internalType":"uint256"}],"stateMutability":"view"},{"type":"function","name":"name","inputs":[],"outputs":[{"name":"","type":"string","internalType":"string"}],"stateMutability":"view"},{"type":"function","name":"owner","inputs":[],"outputs":[{"name":"","type":"address","internalType":"address"}],"stateMutability":"view"},{"type":"function","name":"ownerOf","inputs":[{"name":"tokenId","type":"uint256","internalType":"uint256"}],"outputs":[{"name":"","type":"address","internalType":"address"}],"stateMutability":"view"},{"type":"function","name":"renounceOwnership","inputs":[],"outputs":[],"stateMutability":"nonpayable"},{"type":"function","name":"safeMint","inputs":[{"name":"to","type":"address","internalType":"address"},{"name":"uri","type":"string","internalType":"string"}],"outputs":[{"name":"","type":"uint256","internalType":"uint256"}],"stateMutability":"nonpayable"},{"type":"function","name":"safeTransferFrom","inputs":[{"name":"from","type":"address","internalType":"address"},{"name":"to","type":"address","internalType":"address"},{"name":"tokenId","type":"uint256","internalType":"uint256"}],"outputs":[],"stateMutability":"nonpayable"},{"type":"function","name":"safeTransferFrom","inputs":[{"name":"from","type":"address","internalType":"address"},{"name":"to","type":"address","internalType":"address"},{"name":"tokenId","type":"uint256","internalType":"uint256"},{"name":"data","type":"bytes","internalType":"bytes"}],"outputs":[],"stateMutability":"nonpayable"},{"type":"function","name":"setApprovalForAll","inputs":[{"name":"operator","type":"address","internalType":"address"},{"name":"approved","type":"bool","internalType":"bool"}],"outputs":[],"stateMutability":"nonpayable"},{"type":"function","name":"setBaseURI","inputs":[{"name":"newBaseTokenURI","type":"string","internalType":"string"}],"outputs":[],"stateMutability":"nonpayable"},{"type":"function","name":"supportsInterface","inputs":[{"name":"interfaceId","type":"bytes4","internalType":"bytes4"}],"outputs":[{"name":"","type":"bool","internalType":"bool"}],"stateMutability":"view"},{"type":"function","name":"symbol","inputs":[],"outputs":[{"name":"","type":"string","internalType":"string"}],"stateMutability":"view"},{"type":"function","name":"tokenByIndex","inputs":[{"name":"index","type":"uint256","internalType":"uint256"}],"outputs":[{"name":"","type":"uint256","internalType":"uint256"}],"stateMutability":"view"},{"type":"function","name":"tokenOfOwnerByIndex","inputs":[{"name":"owner","type":"address","internalType":"address"},{"name":"index","type":"uint256","internalType":"uint256"}],"outputs":[{"name":"","type":"uint256","internalType":"uint256"}],"stateMutability":"view"},{"type":"function","name":"tokenURI","inputs":[{"name":"tokenId","type":"uint256","internalType":"uint256"}],"outputs":[{"name":"","type":"string","internalType":"string"}],"stateMutability":"view"},{"type":"function","name":"totalSupply","inputs":[],"outputs":[{"name":"","type":"uint256","internalType":"uint256"}],"stateMutability":"view"},{"type":"function","name":"transferFrom","inputs":[{"name":"from","type":"address","internalType":"address"},{"name":"to","type":"address","internalType":"address"},{"name":"tokenId","type":"uint256","internalType":"uint256"}],"outputs":[],"stateMutability":"nonpayable"},{"type":"function","name":"transferOwnership","inputs":[{"name":"newOwner","type":"address","internalType":"address"}],"outputs":[],"stateMutability":"nonpayable"},{"type":"event","name":"Approval","inputs":[{"name":"owner","type":"address","indexed":true,"internalType":"address"},{"name":"approved","type":"address","indexed":true,"internalType":"address"},{"name":"tokenId","type":"uint256","indexed":true,"internalType":"uint256"}],"anonymous":false},{"type":"event","name":"ApprovalForAll","inputs":[{"name":"owner","type":"address","indexed":true,"internalType":"address"},{"name":"operator","type":"address","indexed":true,"internalType":"address"},{"name":"approved","type":"bool","indexed":false,"internalType":"bool"}],"anonymous":false},{"type":"event","name":"OwnershipTransferred","inputs":[{"name":"previousOwner","type":"address","indexed":true,"internalType":"address"},{"name":"newOwner","type":"address","indexed":true,"internalType":"address"}],"anonymous":false},{"type":"event","name":"Transfer","inputs":[{"name":"from","type":"address","indexed":true,"internalType":"address"},{"name":"to","type":"address","indexed":true,"internalType":"address"},{"name":"tokenId","type":"uint256","indexed":true,"internalType":"uint256"}],"anonymous":false}],"bytecode":{"object":"0x60a06040523480156200001157600080fd5b50604051620021c2380380620021c28339810160408190526200003491620001ba565b83836000620000448382620002e2565b506001620000538282620002e2565b505050620000706200006a6200009f60201b60201c565b620000a3565b600d6200007e8382620002e2565b5080156200008d578062000091565b6000195b60805250620003ae92505050565b3390565b600b80546001600160a01b038381166001600160a01b0319831681179093556040519116919082907f8be0079c531659141344cd1fd0a4f28419497f9722a3daafe3b4186f6b6457e090600090a35050565b634e487b7160e01b600052604160045260246000fd5b600082601f8301126200011d57600080fd5b81516001600160401b03808211156200013a576200013a620000f5565b604051601f8301601f19908116603f01168101908282118183101715620001655762000165620000f5565b816040528381526020925086838588010111156200018257600080fd5b600091505b83821015620001a6578582018301518183018401529082019062000187565b600093810190920192909252949350505050565b60008060008060808587031215620001d157600080fd5b84516001600160401b0380821115620001e957600080fd5b620001f7888389016200010b565b955060208701519150808211156200020e57600080fd5b6200021c888389016200010b565b945060408701519150808211156200023357600080fd5b5062000242878288016200010b565b606096909601519497939650505050565b600181811c908216806200026857607f821691505b6020821081036200028957634e487b7160e01b600052602260045260246000fd5b50919050565b601f821115620002dd57600081815260208120601f850160051c81016020861015620002b85750805b601f850160051c820191505b81811015620002d957828155600101620002c4565b5050505b505050565b81516001600160401b03811115620002fe57620002fe620000f5565b62000316816200030f845462000253565b846200028f565b602080601f8311600181146200034e5760008415620003355750858301515b600019600386901b1c1916600185901b178555620002d9565b600085815260208120601f198616915b828110156200037f578886015182559484019460019091019084016200035e565b50858210156200039e5787850151600019600388901b60f8161c191681555b5050505050600190811b01905550565b608051611df1620003d1600039600081816102cd01526107be0152611df16000f3fe608060405234801561001057600080fd5b50600436106101425760003560e01c806370a08231116100b8578063b88d4fde1161007c578063b88d4fde1461028f578063c87b56dd146102a2578063d204c45e146102b5578063d5abeb01146102c8578063e985e9c5146102ef578063f2fde38b1461030257600080fd5b806370a0823114610248578063715018a61461025b5780638da5cb5b1461026357806395d89b4114610274578063a22cb4651461027c57600080fd5b806323b872dd1161010a57806323b872dd146101d65780632f745c59146101e957806342842e0e146101fc5780634f6ccce71461020f57806355f804b3146102225780636352211e1461023557600080fd5b806301ffc9a71461014757806306fdde031461016f578063081812fc14610184578063095ea7b3146101af57806318160ddd146101c4575b600080fd5b61015a6101553660046116e5565b610315565b60405190151581526020015b60405180910390f35b610177610326565b6040516101669190611752565b610197610192366004611765565b6103b8565b6040516001600160a01b039091168152602001610166565b6101c26101bd36600461179a565b6103df565b005b6008545b604051908152602001610166565b6101c26101e43660046117c4565b6104f9565b6101c86101f736600461179a565b61052a565b6101c261020a3660046117c4565b6105c0565b6101c861021d366004611765565b6105db565b6101c26102303660046118ac565b61066e565b610197610243366004611765565b610686565b6101c86102563660046118e1565b6106bb565b6101c2610741565b600b546001600160a01b0316610197565b610177610755565b6101c261028a3660046118fc565b610764565b6101c261029d366004611938565b61076f565b6101776102b0366004611765565b6107a7565b6101c86102c33660046119b4565b6107b2565b6101c87f000000000000000000000000000000000000000000000000000000000000000081565b61015a6102fd366004611a02565b61085e565b6101c26103103660046118e1565b61088c565b600061032082610905565b92915050565b60606000805461033590611a35565b80601f016020809104026020016040519081016040528092919081815260200182805461036190611a35565b80156103ae5780601f10610383576101008083540402835291602001916103ae565b820191906000526020600020905b81548152906001019060200180831161039157829003601f168201915b5050505050905090565b60006103c38261092a565b506000908152600460205260409020546001600160a01b031690565b60006103ea82610686565b9050806001600160a01b0316836001600160a01b03160361045c5760405162461bcd60e51b815260206004820152602160248201527f4552433732313a20617070726f76616c20746f2063757272656e74206f776e656044820152603960f91b60648201526084015b60405180910390fd5b336001600160a01b03821614806104785750610478813361085e565b6104ea5760405162461bcd60e51b815260206004820152603d60248201527f4552433732313a20617070726f76652063616c6c6572206973206e6f7420746f60448201527f6b656e206f776e6572206f7220617070726f76656420666f7220616c6c0000006064820152608401610453565b6104f4838361094f565b505050565b61050333826109bd565b61051f5760405162461bcd60e51b815260040161045390611a6f565b6104f4838383610a1c565b6000610535836106bb565b82106105975760405162461bcd60e51b815260206004820152602b60248201527f455243373231456e756d657261626c653a206f776e657220696e646578206f7560448201526a74206f6620626f756e647360a81b6064820152608401610453565b506001600160a01b03919091166000908152600660209081526040808320938352929052205490565b6104f48383836040518060200160405280600081525061076f565b60006105e660085490565b82106106495760405162461bcd60e51b815260206004820152602c60248201527f455243373231456e756d657261626c653a20676c6f62616c20696e646578206f60448201526b7574206f6620626f756e647360a01b6064820152608401610453565b6008828154811061065c5761065c611abc565b90600052602060002001549050919050565b610676610b8d565b600d6106828282611b20565b5050565b6000818152600260205260408120546001600160a01b0316806103205760405162461bcd60e51b815260040161045390611be0565b60006001600160a01b0382166107255760405162461bcd60e51b815260206004820152602960248201527f4552433732313a2061646472657373207a65726f206973206e6f7420612076616044820152683634b21037bbb732b960b91b6064820152608401610453565b506001600160a01b031660009081526003602052604090205490565b610749610b8d565b6107536000610be7565b565b60606001805461033590611a35565b610682338383610c39565b61077933836109bd565b6107955760405162461bcd60e51b815260040161045390611a6f565b6107a184848484610d03565b50505050565b606061032082610d36565b60006107bc610b8d565b7f00000000000000000000000000000000000000000000000000000000000000006107e6600c5490565b106108285760405162461bcd60e51b815260206004820152601260248201527113585e081cdd5c1c1b1e481c995858da195960721b6044820152606401610453565b6000610833600c5490565b9050610843600c80546001019055565b61084d8482610e31565b6108578184610e4b565b9392505050565b6001600160a01b03918216600090815260056020908152604080832093909416825291909152205460ff1690565b610894610b8d565b6001600160a01b0381166108f95760405162461bcd60e51b815260206004820152602660248201527f4f776e61626c653a206e6577206f776e657220697320746865207a65726f206160448201526564647265737360d01b6064820152608401610453565b61090281610be7565b50565b60006001600160e01b0319821663780e9d6360e01b1480610320575061032082610ecf565b61093381610f1f565b6109025760405162461bcd60e51b815260040161045390611be0565b600081815260046020526040902080546001600160a01b0319166001600160a01b038416908117909155819061098482610686565b6001600160a01b03167f8c5be1e5ebec7d5bd14f71427d1e84f3dd0314c0f7b2291e5b200ac8c7c3b92560405160405180910390a45050565b6000806109c983610686565b9050806001600160a01b0316846001600160a01b031614806109f057506109f0818561085e565b80610a145750836001600160a01b0316610a09846103b8565b6001600160a01b0316145b949350505050565b826001600160a01b0316610a2f82610686565b6001600160a01b031614610a555760405162461bcd60e51b815260040161045390611c12565b6001600160a01b038216610ab75760405162461bcd60e51b8152602060048201526024808201527f4552433732313a207472616e7366657220746f20746865207a65726f206164646044820152637265737360e01b6064820152608401610453565b610ac48383836001610f3c565b826001600160a01b0316610ad782610686565b6001600160a01b031614610afd5760405162461bcd60e51b815260040161045390611c12565b600081815260046020908152604080832080546001600160a01b03199081169091556001600160a01b0387811680865260038552838620805460001901905590871680865283862080546001019055868652600290945282852080549092168417909155905184937fddf252ad1be2c89b69c2b068fc378daa952ba7f163c4a11628f55a4df523b3ef91a4505050565b600b546001600160a01b031633146107535760405162461bcd60e51b815260206004820181905260248201527f4f776e61626c653a2063616c6c6572206973206e6f7420746865206f776e65726044820152606401610453565b600b80546001600160a01b038381166001600160a01b0319831681179093556040519116919082907f8be0079c531659141344cd1fd0a4f28419497f9722a3daafe3b4186f6b6457e090600090a35050565b816001600160a01b0316836001600160a01b031603610c965760405162461bcd60e51b815260206004820152601960248201527822a9219b99189d1030b8383937bb32903a379031b0b63632b960391b6044820152606401610453565b6001600160a01b03838116600081815260056020908152604080832094871680845294825291829020805460ff191686151590811790915591519182527f17307eab39ab6107e8899845ad3d59bd9653f200f220920489ca2b5937696c31910160405180910390a3505050565b610d0e848484610a1c565b610d1a84848484610f48565b6107a15760405162461bcd60e51b815260040161045390611c57565b6060610d418261092a565b6000828152600a602052604081208054610d5a90611a35565b80601f0160208091040260200160405190810160405280929190818152602001828054610d8690611a35565b8015610dd35780601f10610da857610100808354040283529160200191610dd3565b820191906000526020600020905b815481529060010190602001808311610db657829003601f168201915b505050505090506000610de4611049565b90508051600003610df6575092915050565b815115610e28578082604051602001610e10929190611ca9565b60405160208183030381529060405292505050919050565b610a1484611058565b6106828282604051806020016040528060008152506110be565b610e5482610f1f565b610eb75760405162461bcd60e51b815260206004820152602e60248201527f45524337323155524953746f726167653a2055524920736574206f66206e6f6e60448201526d32bc34b9ba32b73a103a37b5b2b760911b6064820152608401610453565b6000828152600a602052604090206104f48282611b20565b60006001600160e01b031982166380ac58cd60e01b1480610f0057506001600160e01b03198216635b5e139f60e01b145b8061032057506301ffc9a760e01b6001600160e01b0319831614610320565b6000908152600260205260409020546001600160a01b0316151590565b6107a1848484846110f1565b60006001600160a01b0384163b1561103e57604051630a85bd0160e11b81526001600160a01b0385169063150b7a0290610f8c903390899088908890600401611cd8565b6020604051808303816000875af1925050508015610fc7575060408051601f3d908101601f19168201909252610fc491810190611d15565b60015b611024573d808015610ff5576040519150601f19603f3d011682016040523d82523d6000602084013e610ffa565b606091505b50805160000361101c5760405162461bcd60e51b815260040161045390611c57565b805181602001fd5b6001600160e01b031916630a85bd0160e11b149050610a14565b506001949350505050565b6060600d805461033590611a35565b60606110638261092a565b600061106d611049565b9050600081511161108d5760405180602001604052806000815250610857565b8061109784611231565b6040516020016110a8929190611ca9565b6040516020818303038152906040529392505050565b6110c883836112c4565b6110d56000848484610f48565b6104f45760405162461bcd60e51b815260040161045390611c57565b6110fd848484846113df565b600181111561116c5760405162461bcd60e51b815260206004820152603560248201527f455243373231456e756d657261626c653a20636f6e7365637574697665207472604482015274185b9cd9995c9cc81b9bdd081cdd5c1c1bdc9d1959605a1b6064820152608401610453565b816001600160a01b0385166111c8576111c381600880546000838152600960205260408120829055600182018355919091527ff3f7a9fe364faab93b216da50a3214154f22a0a2b415b23a84c8169e8b636ee30155565b6111eb565b836001600160a01b0316856001600160a01b0316146111eb576111eb8582611467565b6001600160a01b0384166112075761120281611504565b61122a565b846001600160a01b0316846001600160a01b03161461122a5761122a84826115b3565b5050505050565b6060600061123e836115f7565b600101905060008167ffffffffffffffff81111561125e5761125e611800565b6040519080825280601f01601f191660200182016040528015611288576020820181803683370190505b5090508181016020015b600019016f181899199a1a9b1b9c1cb0b131b232b360811b600a86061a8153600a850494508461129257509392505050565b6001600160a01b03821661131a5760405162461bcd60e51b815260206004820181905260248201527f4552433732313a206d696e7420746f20746865207a65726f20616464726573736044820152606401610453565b61132381610f1f565b156113405760405162461bcd60e51b815260040161045390611d32565b61134e600083836001610f3c565b61135781610f1f565b156113745760405162461bcd60e51b815260040161045390611d32565b6001600160a01b038216600081815260036020908152604080832080546001019055848352600290915280822080546001600160a01b0319168417905551839291907fddf252ad1be2c89b69c2b068fc378daa952ba7f163c4a11628f55a4df523b3ef908290a45050565b60018111156107a1576001600160a01b03841615611425576001600160a01b0384166000908152600360205260408120805483929061141f908490611d7f565b90915550505b6001600160a01b038316156107a1576001600160a01b0383166000908152600360205260408120805483929061145c908490611d92565b909155505050505050565b60006001611474846106bb565b61147e9190611d7f565b6000838152600760205260409020549091508082146114d1576001600160a01b03841660009081526006602090815260408083208584528252808320548484528184208190558352600790915290208190555b5060009182526007602090815260408084208490556001600160a01b039094168352600681528383209183525290812055565b60085460009061151690600190611d7f565b6000838152600960205260408120546008805493945090928490811061153e5761153e611abc565b90600052602060002001549050806008838154811061155f5761155f611abc565b600091825260208083209091019290925582815260099091526040808220849055858252812055600880548061159757611597611da5565b6001900381819060005260206000200160009055905550505050565b60006115be836106bb565b6001600160a01b039093166000908152600660209081526040808320868452825280832085905593825260079052919091209190915550565b60008072184f03e93ff9f4daa797ed6e38ed64bf6a1f0160401b83106116365772184f03e93ff9f4daa797ed6e38ed64bf6a1f0160401b830492506040015b6d04ee2d6d415b85acef81000000008310611662576d04ee2d6d415b85acef8100000000830492506020015b662386f26fc10000831061168057662386f26fc10000830492506010015b6305f5e1008310611698576305f5e100830492506008015b61271083106116ac57612710830492506004015b606483106116be576064830492506002015b600a83106103205760010192915050565b6001600160e01b03198116811461090257600080fd5b6000602082840312156116f757600080fd5b8135610857816116cf565b60005b8381101561171d578181015183820152602001611705565b50506000910152565b6000815180845261173e816020860160208601611702565b601f01601f19169290920160200192915050565b6020815260006108576020830184611726565b60006020828403121561177757600080fd5b5035919050565b80356001600160a01b038116811461179557600080fd5b919050565b600080604083850312156117ad57600080fd5b6117b68361177e565b946020939093013593505050565b6000806000606084860312156117d957600080fd5b6117e28461177e565b92506117f06020850161177e565b9150604084013590509250925092565b634e487b7160e01b600052604160045260246000fd5b600067ffffffffffffffff8084111561183157611831611800565b604051601f8501601f19908116603f0116810190828211818310171561185957611859611800565b8160405280935085815286868601111561187257600080fd5b858560208301376000602087830101525050509392505050565b600082601f83011261189d57600080fd5b61085783833560208501611816565b6000602082840312156118be57600080fd5b813567ffffffffffffffff8111156118d557600080fd5b610a148482850161188c565b6000602082840312156118f357600080fd5b6108578261177e565b6000806040838503121561190f57600080fd5b6119188361177e565b91506020830135801515811461192d57600080fd5b809150509250929050565b6000806000806080858703121561194e57600080fd5b6119578561177e565b93506119656020860161177e565b925060408501359150606085013567ffffffffffffffff81111561198857600080fd5b8501601f8101871361199957600080fd5b6119a887823560208401611816565b91505092959194509250565b600080604083850312156119c757600080fd5b6119d08361177e565b9150602083013567ffffffffffffffff8111156119ec57600080fd5b6119f88582860161188c565b9150509250929050565b60008060408385031215611a1557600080fd5b611a1e8361177e565b9150611a2c6020840161177e565b90509250929050565b600181811c90821680611a4957607f821691505b602082108103611a6957634e487b7160e01b600052602260045260246000fd5b50919050565b6020808252602d908201527f4552433732313a2063616c6c6572206973206e6f7420746f6b656e206f776e6560408201526c1c881bdc88185c1c1c9bdd9959609a1b606082015260800190565b634e487b7160e01b600052603260045260246000fd5b601f8211156104f457600081815260208120601f850160051c81016020861015611af95750805b601f850160051c820191505b81811015611b1857828155600101611b05565b505050505050565b815167ffffffffffffffff811115611b3a57611b3a611800565b611b4e81611b488454611a35565b84611ad2565b602080601f831160018114611b835760008415611b6b5750858301515b600019600386901b1c1916600185901b178555611b18565b600085815260208120601f198616915b82811015611bb257888601518255948401946001909101908401611b93565b5085821015611bd05787850151600019600388901b60f8161c191681555b5050505050600190811b01905550565b602080825260189082015277115490cdcc8c4e881a5b9d985b1a59081d1bdad95b88125160421b604082015260600190565b60208082526025908201527f4552433732313a207472616e736665722066726f6d20696e636f72726563742060408201526437bbb732b960d91b606082015260800190565b60208082526032908201527f4552433732313a207472616e7366657220746f206e6f6e20455243373231526560408201527131b2b4bb32b91034b6b83632b6b2b73a32b960711b606082015260800190565b60008351611cbb818460208801611702565b835190830190611ccf818360208801611702565b01949350505050565b6001600160a01b0385811682528416602082015260408101839052608060608201819052600090611d0b90830184611726565b9695505050505050565b600060208284031215611d2757600080fd5b8151610857816116cf565b6020808252601c908201527f4552433732313a20746f6b656e20616c7265616479206d696e74656400000000604082015260600190565b634e487b7160e01b600052601160045260246000fd5b8181038181111561032057610320611d69565b8082018082111561032057610320611d69565b634e487b7160e01b600052603160045260246000fdfea264697066735822122093e88b5cb244bd8ebc1abae49d3c91215e4a8b15fc986a60ca9827e882df37d264736f6c63430008110033","linkReferences":{}},"methodIdentifiers":{"approve(address,uint256)":"095ea7b3","balanceOf(address)":"70a08231","getApproved(uint256)":"081812fc","isApprovedForAll(address,address)":"e985e9c5","maxSupply()":"d5abeb01","name()":"06fdde03","owner()":"8da5cb5b","ownerOf(uint256)":"6352211e","renounceOwnership()":"715018a6","safeMint(address,string)":"d204c45e","safeTransferFrom(address,address,uint256)":"42842e0e","safeTransferFrom(address,address,uint256,bytes)":"b88d4fde","setApprovalForAll(address,bool)":"a22cb465","setBaseURI(string)":"55f804b3","supportsInterface(bytes4)":"01ffc9a7","symbol()":"95d89b41","tokenByIndex(uint256)":"4f6ccce7","tokenOfOwnerByIndex(address,uint256)":"2f745c59","tokenURI(uint256)":"c87b56dd","totalSupply()":"18160ddd","transferFrom(address,address,uint256)":"23b872dd","transferOwnership(address)":"f2fde38b"},"id":60}