{"abi":[{"type":"constructor","inputs":[],"stateMutability":"nonpayable"},{"type":"function","name":"RESERVOIR_ORACLE_ADDRESS","inputs":[],"outputs":[{"name":"","type":"address","internalType":"address"}],"stateMutability":"view"},{"type":"function","name":"cooldownPeriod","inputs":[],"outputs":[{"name":"","type":"uint256","internalType":"uint256"}],"stateMutability":"view"},{"type":"function","name":"isDisabled","inputs":[{"name":"","type":"address","internalType":"address"}],"outputs":[{"name":"","type":"bool","internalType":"bool"}],"stateMutability":"view"},{"type":"function","name":"owner","inputs":[],"outputs":[{"name":"","type":"address","internalType":"address"}],"stateMutability":"view"},{"type":"function","name":"setCooldownPeriod","inputs":[{"name":"_cooldownPeriod","type":"uint256","internalType":"uint256"}],"outputs":[],"stateMutability":"nonpayable"},{"type":"function","name":"setIsDisabled","inputs":[{"name":"tokenAddress","type":"address","internalType":"address"},{"name":"_isDisabled","type":"bool","internalType":"bool"}],"outputs":[],"stateMutability":"nonpayable"},{"type":"function","name":"setValidFor","inputs":[{"name":"_validFor","type":"uint256","internalType":"uint256"}],"outputs":[],"stateMutability":"nonpayable"},{"type":"function","name":"transferOwnership","inputs":[{"name":"newOwner","type":"address","internalType":"address"}],"outputs":[],"stateMutability":"nonpayable"},{"type":"function","name":"updateReservoirOracleAddress","inputs":[{"name":"newReservoirOracleAddress","type":"address","internalType":"address"}],"outputs":[],"stateMutability":"nonpayable"},{"type":"function","name":"validFor","inputs":[],"outputs":[{"name":"","type":"uint256","internalType":"uint256"}],"stateMutability":"view"},{"type":"function","name":"validateTokensAreNotStolen","inputs":[{"name":"tokenAddress","type":"address","internalType":"address"},{"name":"tokenIds","type":"uint256[]","internalType":"uint256[]"},{"name":"messages","type":"tuple[]","internalType":"struct ReservoirOracle.Message[]","components":[{"name":"id","type":"bytes32","internalType":"bytes32"},{"name":"payload","type":"bytes","internalType":"bytes"},{"name":"timestamp","type":"uint256","internalType":"uint256"},{"name":"signature","type":"bytes","internalType":"bytes"}]}],"outputs":[],"stateMutability":"view"},{"type":"event","name":"OwnershipTransferred","inputs":[{"name":"user","type":"address","indexed":true,"internalType":"address"},{"name":"newOwner","type":"address","indexed":true,"internalType":"address"}],"anonymous":false},{"type":"error","name":"InvalidMessage","inputs":[]}],"bytecode":{"object":"0x60806040526000600255610e1060035534801561001b57600080fd5b506000805473aeb1d03929bf87f69888f381e73fbf75753d75af6001600160a01b03199182161782556001805433921682179055604051909182917f8be0079c531659141344cd1fd0a4f28419497f9722a3daafe3b4186f6b6457e0908290a350610b238061008b6000396000f3fe608060405234801561001057600080fd5b50600436106100a95760003560e01c80638a4fa05b116100715780638a4fa05b1461012e5780638b67ad0f146101415780638d9d52821461016c5780638da5cb5b1461017f578063c4b7edab14610192578063f2fde38b146101a557600080fd5b806304646a49146100ae578063149120bc146100ca5780634f6c171d146100d357806372d8fcd51461010657806380ea3de11461011b575b600080fd5b6100b760025481565b6040519081526020015b60405180910390f35b6100b760035481565b6100f66100e1366004610757565b60046020526000908152604090205460ff1681565b60405190151581526020016100c1565b610119610114366004610757565b6101b8565b005b610119610129366004610772565b61020d565b61011961013c3660046107d7565b61023c565b600054610154906001600160a01b031681565b6040516001600160a01b0390911681526020016100c1565b61011961017a366004610772565b61045c565b600154610154906001600160a01b031681565b6101196101a0366004610868565b61048b565b6101196101b3366004610757565b6104e0565b6001546001600160a01b031633146101eb5760405162461bcd60e51b81526004016101e29061089b565b60405180910390fd5b600080546001600160a01b0319166001600160a01b0392909216919091179055565b6001546001600160a01b031633146102375760405162461bcd60e51b81526004016101e29061089b565b600255565b6001600160a01b03851660009081526004602052604090205460ff166104555760005b83811015610453573683838381811061027a5761027a6108c1565b905060200281019061028c91906108d7565b905060007fc0a1ebc1ee06dbc8c69ee4d865db358058921259f8d3cb15d2133d87fa20322e888888868181106102c4576102c46108c1565b905060200201356040516020016102f7939291909283526001600160a01b03919091166020830152604082015260600190565b60405160208183030381529060405280519060200120905061032581600354846103209061099a565b610556565b6103715760405162461bcd60e51b815260206004820152601d60248201527f4d6573736167652068617320696e76616c6964207369676e617475726500000060448201526064016101e2565b6000806103816020850185610a34565b81019061038e9190610a7b565b9150915081156103e05760405162461bcd60e51b815260206004820152601c60248201527f4e465420697320666c616767656420617320737573706963696f75730000000060448201526064016101e2565b42600254826103ef9190610abb565b1061043c5760405162461bcd60e51b815260206004820181905260248201527f4e465420776173207472616e7366657272656420746f6f20726563656e746c7960448201526064016101e2565b50505050808061044b90610ad4565b91505061025f565b505b5050505050565b6001546001600160a01b031633146104865760405162461bcd60e51b81526004016101e29061089b565b600355565b6001546001600160a01b031633146104b55760405162461bcd60e51b81526004016101e29061089b565b6001600160a01b03919091166000908152600460205260409020805460ff1916911515919091179055565b6001546001600160a01b0316331461050a5760405162461bcd60e51b81526004016101e29061089b565b600180546001600160a01b0319166001600160a01b03831690811790915560405133907f8be0079c531659141344cd1fd0a4f28419497f9722a3daafe3b4186f6b6457e090600090a350565b8051600090841461056957506000610734565b42826040015111806105895750428383604001516105879190610abb565b105b1561059657506000610734565b6000806000808560600151905080516040036105d257602081015160408201519094506001600160ff1b038116935060ff1c601b019150610605565b80516041036105f8576020810151935060408101519250606081015160001a9150610605565b6000945050505050610734565b600060017f395537e76dcb230984fc10f328a95df716a3205146e2e10a6b1405dc0a67059388600001518960200151805190602001208a60400151604051602001610669949392919093845260208401929092526040830152606082015260800190565b60408051601f198184030181529082905280516020918201207f19457468657265756d205369676e6564204d6573736167653a0a33320000000091830191909152603c820152605c0160408051601f198184030181528282528051602091820120600084529083018083525260ff861690820152606081018790526080810186905260a0016020604051602081039080840390855afa158015610710573d6000803e3d6000fd5b5050604051601f1901516000546001600160a01b0391821691161496505050505050505b9392505050565b80356001600160a01b038116811461075257600080fd5b919050565b60006020828403121561076957600080fd5b6107348261073b565b60006020828403121561078457600080fd5b5035919050565b60008083601f84011261079d57600080fd5b50813567ffffffffffffffff8111156107b557600080fd5b6020830191508360208260051b85010111156107d057600080fd5b9250929050565b6000806000806000606086880312156107ef57600080fd5b6107f88661073b565b9450602086013567ffffffffffffffff8082111561081557600080fd5b61082189838a0161078b565b9096509450604088013591508082111561083a57600080fd5b506108478882890161078b565b969995985093965092949392505050565b8035801515811461075257600080fd5b6000806040838503121561087b57600080fd5b6108848361073b565b915061089260208401610858565b90509250929050565b6020808252600c908201526b15539055551213d49256915160a21b604082015260600190565b634e487b7160e01b600052603260045260246000fd5b60008235607e198336030181126108ed57600080fd5b9190910192915050565b634e487b7160e01b600052604160045260246000fd5b600082601f83011261091e57600080fd5b813567ffffffffffffffff80821115610939576109396108f7565b604051601f8301601f19908116603f01168101908282118183101715610961576109616108f7565b8160405283815286602085880101111561097a57600080fd5b836020870160208301376000602085830101528094505050505092915050565b6000608082360312156109ac57600080fd5b6040516080810167ffffffffffffffff82821081831117156109d0576109d06108f7565b816040528435835260208501359150808211156109ec57600080fd5b6109f83683870161090d565b6020840152604085013560408401526060850135915080821115610a1b57600080fd5b50610a283682860161090d565b60608301525092915050565b6000808335601e19843603018112610a4b57600080fd5b83018035915067ffffffffffffffff821115610a6657600080fd5b6020019150368190038213156107d057600080fd5b60008060408385031215610a8e57600080fd5b610a9783610858565b946020939093013593505050565b634e487b7160e01b600052601160045260246000fd5b80820180821115610ace57610ace610aa5565b92915050565b600060018201610ae657610ae6610aa5565b506001019056fea264697066735822122065b3a0180f938b9294c5a73e4ab0dc8752f1e685678fe8cd5fe9e97769927a2e64736f6c63430008110033","linkReferences":{}},"methodIdentifiers":{"RESERVOIR_ORACLE_ADDRESS()":"8b67ad0f","cooldownPeriod()":"04646a49","isDisabled(address)":"4f6c171d","owner()":"8da5cb5b","setCooldownPeriod(uint256)":"80ea3de1","setIsDisabled(address,bool)":"c4b7edab","setValidFor(uint256)":"8d9d5282","transferOwnership(address)":"f2fde38b","updateReservoirOracleAddress(address)":"72d8fcd5","validFor()":"149120bc","validateTokensAreNotStolen(address,uint256[],(bytes32,bytes,uint256,bytes)[])":"8a4fa05b"},"id":62}